:020000041000EA
:1000000000B5324B212058609868022188439860DF
:10001000D860186158612E4B002199600221596106
:100020000121F02299502B49196001219960352056
:1000300000F044F80222904214D00621196600F024
:1000400034F8196E01211966002018661A6600F04E
:100050002CF8196E196E196E052000F02FF8012189
:100060000842F9D1002199601B49196000215960AB
:100070001A491B48016001219960EB211966A021F2
:10008000196600F012F800219960164914480160C1
:100090000121996001BC002800D000471248134993
:1000A000086003C880F30888084703B5996A0420EC
:1000B0000142FBD001200142F8D103BD02B5186610
:1000C0001866FFF7F2FF186E186E02BD00000240BE
:1000D000000000180000070000035F00212200005C
:1000E000F4000018222000A00001001008ED00E03C
:1000F00000000000000000000000000074B24E7A12
:1001000000200420F7010010C3010010C5010010F9
:10011000C1010010C1010010C1010010C101001097
:10012000C1010010C1010010C1010010C701001081
:10013000C1010010C1010010C9010010CB01001065
:10014000CD010010CD010010CD010010CD01001037
:10015000CD010010CD010010CD010010CD01001027
:10016000CD010010CD010010CD010010CD01001017
:10017000CD010010CD010010CD010010CD01001007
:10018000CD010010CD010010CD010010CD010010F7
:10019000CD010010CD010010CD010010CD010010E7
:1001A000CD010010CD010010CD010010CD010010D7
:1001B000CD010010CD010010CD010010CD010010C7
:1001C00000BE00BE00BE00BE00BE00BEEFF3058054
:1001D000103800BEF2EB8871C0080210E00802106F
:1001E0003802001090A31AE71E481F49086006C88D
:1001F00081F3088810471D480068002801D019487D
:10020000F3E70DA40ECC002902D000F012F8F9E7B4
:100210001749184A002000E001C19142FCD116495B
:100220008847164988471649884700BEFDE701C937
:1002300001C29A42FBD37047E0080210C0000020C0
:100240008C2B0020AC33021000000420000004209E
:10025000AC33021000100420001004200000000045
:10026000704700000000000008ED00E0000000D032
:100270008C2B00200C500220A1290110210300101A
:1002800061290110F8B5C0460448054B10B58342FA
:1002900003D0044B002B00D0984710BD8C2B0020BE
:1002A0008C2B00200000000006480749091A8B101B
:1002B000C90FC91810B5491003D0044B002B00D04A
:1002C000984710BD8C2B00208C2B002000000000D4
:1002D00010B5074C2378002B09D1FFF7D5FF054B4C
:1002E000002B02D0044800E000BF0123237010BDA2
:1002F000582F00200000000040CC0110054B10B525
:10030000002B03D00449054800E000BFFFF7CCFFF5
:1003100010BDC046000000005C2F002040CC011042
:1003200010B588B012F070FF2A480EF0DBFC2A48A6
:1003300012F0B4FC00F0A0FA00F0D0FB00F0BAFC20
:10034000264812F0ABFC0124802202AB2449019321
:10035000520000232348009416F0D6FC802203AB01
:1003600021490193520000232048009416F0CCFC50
:10037000802204AB1E490193520000231D480094C3
:1003800016F0C2FC802205AB1B49019352000023EA
:100390001A48009416F0B8FC802206AB1849019365
:1003A000920000231748009416F0AEFC802207ABA1
:1003B00015499200019315480023009416F0A4FCFF
:1003C000134812F06BFC16F011FD124812F066FC97
:1003D000FEE7C046B80B000040CC011064CC011011
:1003E00080CC01101106001090CC01106D07001098
:1003F000A0CC01102D080010B0CC0110B1080010E5
:10040000C4CC01106D0D0010D4CC0110654A001051
:10041000DCCC0110F8CC0110F0B54746CE4680B5D3
:100420008BB003AC2200104B802723CB23C223CBFD
:1004300023C21B880026138026236B4499460B4B4E
:1004400002AD984623782F706B702A0002233C215E
:1004500040460096013417F059FD4C45F2D10BB0DF
:10046000C0BCB946B046F0BD24E50110B824002058
:10047000F0B557464E464546DE462123E0B587B0E7
:1004800004AC23700B78834663704B788A46A37064
:100490002223E3704B880027A38016236B449946E0
:1004A00080239846174E03AD424623782A706B701E
:1004B0002A0002233C2130000097013417F026FD6A
:1004C0004C45F1D153465B685D1C2800984610F0FE
:1004D000A7FD40230400424659460370013010F046
:1004E000FDFD2B0022003C213000009717F00EFD8F
:1004F000200010F0D5FD07B0F0BCBB46B246A946BF
:10050000A046F0BDB82400207C2803D8124A8300FE
:10051000D3589F46322070474038FCE71538FAE739
:100520002C20F8E72720F6E72D20F4E72B20F2E730
:100530003020F0E72920EEE72620ECE72820EAE744
:100540002E20E8E72F20E6E72A20E4E73120E2E743
:100550000020E0E72520DEE798E10110F8B55746D6
:100560004E464546DE468046E0B50C0017001E00AC
:10057000782943DC382A41DC187800283ED007234C
:100580009B46214B9A46214B994601360D2832D085
:100590000A282DD0782C27DC382F25DC5B46FD1768
:1005A0001D40534603221B5CED19ED101340022B36
:1005B00001D12038C0B2FFF7A7FF4A464146C30029
:1005C000D25CED014B442D194A555A7845446A7066
:1005D0009A78AA70DA78EA701A792A715A796A7167
:1005E0009A79DB79AA71EB71083424B2782C02DD98
:1005F000002408373FB230780028C6D1F0BCBB4693
:10060000B246A946A046F8BDC10302108CE3011012
:10061000F0B5DE4657464E464546E0B599B000F087
:100620009FFB8346002800D18BE005200DF0C6FC1F
:100630000022012105200DF0ADFC322016F036FD20
:10064000D0231B065B689B066CD5414B0693414B40
:100650009846414B99460FAB9A46404B09930AABDB
:1006600008933F4B079314E0322016F01FFD7B6880
:100670001E422CD043460799186800F0E9FA002082
:1006800000F05EFA4B46002218680021002315F0A6
:1006900079FDD02520242D06322016F007FD6B6849
:1006A0001C42F9D116F044FD43460699040018682F
:1006B00000F0CEFA4B4601211868494215F0ACFF14
:1006C000D027012000F03CFA2026264D3F0616F0E8
:1006D0002FFD001BA842C7D814225146584615F0DA
:1006E0000DFF0028C0D05346D86910F0F1FB5346E7
:1006F00004900591986910F0EBFB5346029003912A
:10070000586910F0E5FB099A0090019111210898B1
:1007100012F09AF84346002218680899002315F051
:1007200031FDA1E70A4B06930A4B98460A4B9946BE
:100730000FAB9A46094B09930AAB0893084B0793F2
:10074000B0E7094812F0AAFA002016F0EFFA6CE7B9
:1007500064CD0110E04E0020244C002070CD01102B
:1007600088CD01108713000034CD0110F0B5D646B6
:100770004F4646460620C0B50DF020FC0022012160
:1007800006200DF007FC322016F090FCD0231B064B
:100790005B685B0637D5204B204C9A46204B214F97
:1007A0009846214B9946D02640253606322016F031
:1007B0007DFC73681D42F9D15146206800F048FA6B
:1007C00001213868494215F027FF4146206800F0B2
:1007D0003FFAD026022000F0B3F940253606322039
:1007E00016F064FC73681D42F9D04946206800F099
:1007F0002FFA002000F0A4F900230022002138681D
:1008000015F0C0FCCFE7044B044C9A46044B054F4F
:100810009846054B9946CFE794CD0110E04E002055
:10082000A0CD0110244C0020ACCD011070B5D02516
:10083000802416200DF0C2FB0022012116200DF0AD
:10084000A9FB322016F032FC0A4E2D06E4036B6839
:1008500023420BD1002300220021306815F092FCC6
:10086000322016F023FC6B682342F9D0322016F0B8
:100870001DFCECE7EC4E002010B5012015F06EFDDC
:10088000084B032218600021012015F029FC064BBB
:100890000022186080201121400015F021FC034B3C
:1008A000186010BD244C0020EC4E0020E04E0020CB
:1008B000F0B5DE46454657464E46E0B59DB011229E
:1008C000002109A810F004FC00F04AFA039000F09F
:1008D00055F9774B002498460125764F764E18E05F
:1008E000434601220121012000F078F93B00032258
:1008F0000121012000F072F93300052201210120BD
:1009000000F06CF9FA200134400016F0CFFB0A2CFD
:100910000CD02542E4D00021002000F045F9FA2057
:100920000134400016F0C2FB0A2CF2D10021002055
:1009300000F03AF9614B00219946614B1F009A463D
:10094000604B773F9846604B3E009B465F4B04935D
:100950005F4B05935F4B06935F4B07934B461868BD
:1009600015F05AFE01282BD154462000113C1122CB
:10097000210018F087FCA642F7D13B00424623CA6B
:1009800023C3126800211A60002300203B74002555
:1009900000F00AF92300EAB200210020013500F03E
:1009A0001DF91134082DF5D100F02CF9642016F052
:1009B0007DFB4B460021186815F02EFE0128D3D090
:1009C0005B4601221868524209A915F097FD0128DB
:1009D0004BD00022039813A915F090FD0128E5D112
:1009E0000021002000F0E0F8189810F071FA049A45
:1009F0000090019111210EA811F026FF0EAB0122EB
:100A00000021002000F0EAF8199810F061FA059A28
:100A10000090019111210EA811F016FF0EAB0322D8
:100A20000021002000F0DAF81A9810F051FA069A26
:100A30000090019111210EA811F006FF0EAB0522C6
:100A40000021002000F0CAF81B9810F041FA079A24
:100A50000090019111210EA811F0F6FE072200214D
:100A600000200EAB00F0BAF89EE755465446773D9D
:100A70002000113C1122210018F004FCAC42F7D1F7
:100A8000102209A9380018F0FDFB002300210020E6
:100A90003B74002400F088F82B00E2B20021002013
:100AA000013400F09BF81135082CF5D17CE7C046E5
:100AB000B8CD0110C8CD0110D8CD0110EC4E0020EA
:100AC000DF430020E8CD0110E04E0020F8CD0110FA
:100AD00004CE011010CE01101CCE0110F8B5D024A8
:100AE0008027802680252406BF0136016762052104
:100AF000A7610D206D010DF033FA66620521A66134
:100B00000B200DF02DFA052165620C20A5610DF07A
:100B100027FA6761FA20A661A5610EF0E3F8A761E4
:100B2000FA206661A5610EF0DDF8A761FA20A661E2
:100B300065610EF0D7F8A761A661A561F8BDC04652
:100B4000D02380221B069201012809D15A618022FC
:100B500012019A61D02380221B0652019A617047CC
:100B60009A6180221201022801D15A61F2E79A614A
:100B70000328EFD1802252015A61F0E770B500F0EE
:100B80004BF8FFF749FC064D064C6A68002120002F
:100B900010F09EFA29002000FFF76AFC70BDC046E5
:100BA00074200020F043002043425841FE2370B5DA
:100BB0000C00084E4142084D994328007268FF31ED
:100BC00010F086FA002C00D170BD31002800FFF72C
:100BD0004FFCF9E774200020F043002070B5074D6A
:100BE0000400D2002800C900FFF7B8FC002C00D197
:100BF00070BD28000249FFF73BFCF9E7F0430020F5
:100C00007420002010B502490248FFF731FC10BDE6
:100C100074200020F043002010B5002201210F2095
:100C20000DF0B8F9002201210E200DF0B3F90321D7
:100C30000F200DF095F903210E200DF091F90248D7
:100C4000024917F03BF910BDB8240020801A0600B5
:100C5000F0B589B0112205000F0003A8002110F0A3
:100C600037FA114B1149986A0EF0F8FB0A2104007B
:100C70000EF0F4FB20000E000A210EF0EFFBFA212B
:100C800089000EF0EBFB0A480A00330001000097D0
:100C900003A811F0C3FD012200232800524203A93A
:100CA00015F070FA09B0F0BD00400540A0860100C3
:100CB00028CE011070B5254D84B02549280017F0C5
:100CC000FDF8032100200DF04BF9032101200DF068
:100CD00047F90022012100200DF05CF900220121DA
:100CE00001200DF057F9012015F038FB194C242193
:100CF000206000220A2015F0F3F90121164B494229
:100D00001860206815F088FC002804D1134811F001
:100D1000C5FF04B070BD00266B2302AA13806821B2
:100D200028000096693B17F0F1F81C2303AA1380F2
:100D30006821280000961A3B17F0E8F800230022EB
:100D40000021206815F01EFAE0E7C046C02400200C
:100D5000801A0600004C0020204C002034CE0110E8
:100D6000014B18687047C046204C0020F0B5DE46A5
:100D700057464E464546E0B595B016F0D9F94F4B6B
:100D80004F4F9B464F4BBA4604934F4B08900393EB
:100D90004E4B09AE0BAC059306E0059811F07EFFB3
:100DA0000A2108A816F028F95B466421186815F096
:100DB00033FC0028F1D03B2204AB04A9DA738C4643
:100DC00001232C3A682104980093624417F09EF89E
:100DD00001306BD000233200682100930498063361
:100DE00017F09EF85B4605000022186800210023DA
:100DF00015F0C8F90135D0D03088758843BA238002
:100E00006BBA6380B388C0BA5ABADBBA9846039B00
:100E1000A2801B68EDBA994610F000F849460FF021
:100E200086FF071CA06028000FF0F8FF49460FF06E
:100E30007EFF051CE06040460FF0F0FF49460FF0D2
:100E400076FF234980462061381C0FF084FF20493B
:100E5000071C6061281C0FF07EFF1D49051CA06166
:100E600040460FF078FF391C8046E061381C0FF0D7
:100E700072FF291C071C281C0FF06DFF011C381C79
:100E80000FF052FF4146051C40460FF064FF011C65
:100E9000281C0FF049FF10F025F85346206200226D
:100EA00021001868002315F06DF979E75B460022F0
:100EB00000211868002315F065F96EE7004C00204A
:100EC000204C0020C02400207C20002060CE011097
:100ED0000AE81C41F8B54746CE4680B51F00C368F6
:100EE00044201E5CB96D002E0CD000200D68002D32
:100EF00004D04C68A24206D0002C04D00130083146
:100F00008642F3D8002562229C5A002C44D0089ACD
:100F10002E680020156852685B6E904699463056E0
:100F20000FF07CFF291C0FF0FCFE41460FF013FF71
:100F30004B461B68F860BB60012C2DD00120305659
:100F40000FF06CFF291C0FF0ECFE41460FF003FF81
:100F50004B465B6878613B61022C1DD00220305605
:100F60000FF05CFF291C0FF0DCFE41460FF0F3FE92
:100F70004B469B68F861BB61032C0DD003203056B3
:100F80000FF04CFF291C0FF0CCFE41460FF0E3FEA2
:100F90004B46DB6878623B620020C0BCB946B04675
:100FA000F8BDC04610B50A6803681000984710BD28
:100FB00010B504000800110000681A680968236869
:100FC000984710BD10B5041E10D000290ED0013175
:100FD0000818012109F050FF031E07D0621C1218E7
:100FE00060421040821EC31A138000E0002010BD32
:100FF00010B5831E1B88C01A09F042FF10BDC04601
:1010000010B5086809F03CFF10BDC046030010B5DC
:1010100010008A0003499B00591810F05FF8002067
:1010200010BDC04680320020F0B5DE4657464E4621
:101030004546E0B51B68056887B00193AB680F00B3
:101040009B46EB68594638681C6A16000EF006FA93
:1010500060435946070030680EF000FA4443A24648
:101060000023BA4499465A46BA4534D9002A32D0A8
:101070004B469C00019B00269C46012364449846F5
:1010800005E0AA68731C043493421AD21E006B68F0
:1010900028689B5D0394DB1905934346049383689A
:1010A000002B1AD0C36804AA9B4605A903ABD847F6
:1010B0000028E6D007B0F0BCBB46B246A946A04621
:1010C000F0BDEB681B6AFF18BA4504D94B46B14620
:1010D00001339944CAE70020ECE717F01DF8C04639
:1010E000F0B5DE4657464E464546E0B593688BB0B0
:1010F0000400049150698749059319F0CFF9230042
:101100002269002800D08CE09146002A00D180E0BE
:101110000022002490464A469A4602920394802276
:10112000029BD2000093934200D90092009C059B41
:10113000200058430121800009F09EFE0190002804
:1011400000D1E2E0534642469B680792089409901A
:10115000002B00D1DBE053465046DD6808AA09ABFE
:1011600007A9A847029B002B44D00026049A00251B
:101170001268FF279346B146039B9B009B44019B4B
:1011800058590FF09FFE0400000A38400FF041FE4E
:1011900061490FF0CCFD61490FF0DDFD061C200C0C
:1011A00038400FF036FE5C490FF0C1FD5C490FF08E
:1011B000D2FD011C301C0FF0B7FD061C200038408A
:1011C0000FF027FE54490FF0B2FD56490FF0C3FD52
:1011D000011C301C0FF0A8FD5B46585101239C46B2
:1011E000009BE14404359945C9D31A009446039BFA
:1011F00063440393029B009A01989B1A029309F09F
:101200003FFE8023DB009C4653461B69E044984523
:1012100085D300200BB0F0BCBB46B246A946A04621
:10122000F0BD9346002AF4D0002292465A4601921D
:101230005246D3469A46059C02928022019BD200D8
:101240009846934200D99046404660430121800071
:1012500009F012FE0090002857D05A4653460792D4
:1012600042469B6808920990002B50D05346504646
:10127000DD6808AA09AB07A9A847019B002B34D059
:101280000026049A029B15689B00ED18A146FF27D3
:1012900034002E00009AA300D0580FF013FE050072
:1012A000000C38400FF0B5FD1B490FF040FD3060D9
:1012B000280A38400FF0ADFD17490FF038FD706077
:1012C000280038400FF0A5FD13490FF030FD013420
:1012D000B0600C36A045DDD8029A434694465B00C8
:1012E00043449C4463464C4602934246019B00980B
:1012F0009B1A019309F0C4FD8023DB009C465346F2
:101300001B69E3445B4598D883E7074882E716F0FA
:1013100003FFC0468CCE011000007F43A245163F5C
:101320008716993ED578E93D16FCFFFFF0B5574684
:101330004E46DE464546E0B507009BB0101C1993AB
:101340001A007B680E1C002B00D164E15310099336
:101350000FF0BEFDB44AB54B0EF0F7FA0400301C96
:101360000D000FF0B5FD0B000200290020000EF06B
:10137000CEFA0EF03BFC0EF0EBFB041C0FF0A8FDC8
:1013800016901791211C201C0FF0E5FC099B109072
:101390009B000893002312971193129B099D1A68D2
:1013A0009C68119B0421634328001592189309F04F
:1013B00063FD04210190280009F05EFD04210290E4
:1013C000280009F059FD04210390280009F054FD7C
:1013D00004218346280009F04FFD0421804628009F
:1013E00009F04AFD8246002D00D1FAE019980EF06E
:1013F00023FB02000B000EF081FA0A900B91169865
:10140000179902000B000EF079FA0C900D91FE2056
:10141000109D8005291C0FF084FC0FF059FD0B0076
:1014200002000EF06BFA002700260E900F91281C88
:101430000FF04EFD5B46B146C346B8460690079195
:101440001394149348460EF0F7FA02000B000EF0C6
:1014500055FA0022764B0EF051FA734A734B0EF098
:1014600074FA0A9A0B9B0EF052FA0EF0A9FB0EF0DA
:101470006FFB0FF02DFD0C9A0D9B0EF066FA069A8D
:10148000079B06000F000EF039FA0022684B0EF0A1
:1014900035FA0EF05DFB041C011C10980FF047FCA0
:1014A0004246019B9850201C0FF012FD02000B00D9
:1014B00004000D000E980F990EF029FA0EF048FB6B
:1014C0004246029B98503200069807993B000EF066
:1014D0000CFA0022564B0EF011FA802212069446A6
:1014E0000B006344059304902200049805992B0097
:1014F0000EF00DFA0EF02CFB4246039B9850012390
:101500009C460333E1449C46099BE0444B4599D1FA
:10151000149B139CD8469B46002C62D01599189AB0
:10152000894693009944A3189B00CE180696002480
:1015300043461959029B18590FF00DFC534619598F
:10154000039B051C18590FF006FC011C281C0FF00A
:10155000EBFB4B4619680FF0E7FB5B46185143461F
:10156000051C18590FF0B4FC02000B000EF0C6F970
:101570000600281C0F000FF0ABFC02000B0030002F
:1015800039000EF0BBF95346060018590F000FF052
:101590009FFC02000B00300039000EF0AFF9019BF8
:1015A000060018590F000FF093FC02000B003000EA
:1015B00039000EF0CAF90EF0CBFA4B4618604346DC
:1015C00052461B5913515B4642461B591351089B07
:1015D00004349C42ACD104239C46069BE1444B4519
:1015E000A5D1019809F04CFC029809F049FC039838
:1015F00009F046FC584609F043FC404609F040FC1F
:10160000504609F03DFC129B119A5B680132119221
:10161000934200D9C1E600201BB0F0BCBB46B246E5
:10162000A946A046F0BDC046182D4454FB210940F0
:101630000000F03FF0B557464E46DE464546E0B561
:1016400007009BB0101C18931A007B680E1C002B1F
:1016500000D176E1531007930FF03AFCBD4ABE4B20
:101660000EF073F90400301C0D000FF031FC0B007C
:101670000200290020000EF04AF90EF0B7FA0EF031
:1016800067FA041C0FF024FC14901591211C201CF7
:101690000FF061FB079B3C009B0019930023179000
:1016A0000E932368A56813930E9B079E6B4304213A
:1016B0003000169309F0E0FB04210190300009F09E
:1016C000DBFB04210690300009F0D6FB04218346A1
:1016D000300009F0D1FB04218246300009F0CCFB38
:1016E00004210700300009F0C7FB8046002E00D11E
:1016F0000DE118980EF0A0F902000B000EF0FEF8B4
:10170000089009911498159902000B000EF0F6F854
:101710000A900B91FE20179E8005311C0FF001FBF3
:101720000FF0D6FB02000B000EF0E8F80C900D91C4
:10173000301C0FF0CDFB52460023109242469946D2
:101740009846A246029003910F9511971292404637
:101750000EF072F902000B000EF0D0F800227F4B61
:101760000EF0CCF87B4A7C4B0EF0EFF8089A099B00
:101770000EF0CDF80EF024FA0EF0EAF90FF0A8FB07
:101780000A9A0B9B0EF0E1F8029A039B06000F00E9
:101790000EF0B4F80022714B0EF0B0F80EF0D8F94C
:1017A000041C011CFE2080050FF0C1FA4A46019B73
:1017B0009850201C0FF08CFB02000B0004000D0061
:1017C0000C980D990EF0A3F80EF0C2F94A46069B4C
:1017D00098503200029803993B000EF086F80022E0
:1017E0005E4B0EF08BF88022120694460B00634489
:1017F000059304902200049805992B000EF087F8B9
:101800000EF0A6F95B464A46985001239C460333E6
:10181000E0449C46079BE144434598D1129B0F9DB1
:101820009846109B5446119F9A46002D6FD01399ED
:10183000169A89469446930099445B4665448C46C3
:10184000AD000293199B654408950A944546544699
:101850009A46D3460026A846A246069BB9599859EF
:101860000FF079FA43469959029B041C98590FF0DE
:1018700072FA011C201C0FF057FA4B4619680FF042
:1018800053FA534698510FF023FB0400B8590D004A
:101890000FF01EFB02000B000EF030F802000B00F0
:1018A000200029000EF021F84346040098590D004D
:1018B0000FF00EFB02000B00200029000EF01EF8B6
:1018C000019B040098590D000FF002FB02000B0071
:1018D000200029000EF039F80EF03AF94B46424646
:1018E0001860BB59935153469B59BB5104365E4512
:1018F000B3D104239C46089BE14454464546DA464E
:101900004B45A6D1029B90469B46A2460A9C019855
:1019100009F0B6FA069809F0B3FA584609F0B0FA99
:10192000504609F0ADFA380009F0AAFA404609F02D
:10193000A7FA0E9B01331A000E936368934200D9F5
:10194000AFE600201BB0F0BCBB46B246A946A0469D
:10195000F0BDC046182D4454FB2109400000F03F63
:10196000012A07D0022A09D0032A01D0002A03D075
:10197000002070470160FBE70260F9E70B68036035
:10198000F6E7C046012A07D0022A09D0032A01D06F
:10199000002A03D0002070470160FBE70260F9E7EE
:1019A0000B680360F6E7C046012A07D0022A09D077
:1019B000032A01D0002A03D0002070470160FBE712
:1019C0000260F9E70B680360F6E7C046012A07D01A
:1019D000022A09D0032A01D0002A03D00020704730
:1019E0000160FBE70260F9E70B680360F6E7C046B9
:1019F000F0B5DE4657464E464546E0B50C0083B08E
:101A000000286BD0036A1B68002B67D01D68002D6F
:101A100064D09F68002F61D01A69002A5ED05E688A
:101A2000002E5BD0DA68002A58D05B69002B55D0B5
:101A3000496801293DD1A368416898468B422BD162
:101A40009E423FD1B24238D123689B46002B00D141
:101A500084E000230193D9465C46002609E029680A
:101A600020680FF05EF92060013604340435B0457B
:101A700037D9002CF3D10121042009F0FDF9824669
:101A8000002825D0296800680FF04BF953461860EC
:101A9000504609F0F5F9E7E71A00374809F0C4F9AC
:101AA0001820404203B0F0BCBB46B246A946A0464F
:101AB000F0BD324809F0B8F9F2E73100304809F0DA
:101AC000B3F9EDE7320019002E4809F0ADF9E7E768
:101AD0005B46002B02D0019B002B48D11E204042C8
:101AE000E0E7002415E0FE213D688905281C0FF081
:101AF00061F9002806D14B46291C18680FF02BF914
:101B00004B46186004239C460134E1440437A04549
:101B100019D94B46002BE6D10121042009F0ACF97C
:101B2000051ED5D0FE213E688905301C0FF042F914
:101B3000002804D12868311C0FF00DF92860280016
:101B400009F09EF9DEE75B46002B05D0019B002BD8
:101B500002D0584609F094F90020A3E7434601213A
:101B6000980009F089F901238346019373E75846E9
:101B700009F086F9B2E7C046ECCE011098CE01100C
:101B80007CCF011034CF011082B0F0B545464E46EF
:101B9000DE465746E0B585B00F93531E8846D90FF1
:101BA000C918109B039299460F9B050000930123CF
:101BB0001A4049100192884570DA4B4644468B46DC
:101BC00081460293671C7D006B1EDE003F014F447F
:101BD0004E44796870689A460FF0F4F8E4004C447B
:101BE000002807D0330006CB06C4D34544DD554654
:101BF0002C00E7E73B0006CB06C4AB45F8DC029BB4
:101C0000BB462F004D469946019B002B06D10398F9
:101C10000238C10F09184910B94233D0791ECE0FCE
:101C20007618761047450BDC15E02300721E03CBB7
:101C300003C7D30F9B1837005B10B0451ADA1E009C
:101C4000F4002C19FF0049466068EF190FF0D0F836
:101C50000028EAD1BB465B46009A1A604A465A60A1
:101C600005B0F0BCBB46B246A946A046F0BC08BCD5
:101C700002B01847A346EEE7029B4D4657469946E9
:101C8000B346C1E778000130C10069185C460E0018
:101C90008B460CCE0CC43E000700C3E74346DB0076
:101CA0009B46019B8344002BD5D14746AFE7C046F6
:101CB000F0B545469846130057464E469246DE46D6
:101CC000013BDA0FE0B5D2185746012305008946DB
:101CD00087B052101F40914259DA5346049343464D
:101CE0000E008146019202970391059300E02E00B9
:101CF000771C7D00FF006B1E4F449C009A463B689A
:101D00004C44984623684146181C9B460FF070F8D7
:101D1000002802D0D846270055464B464246B6001A
:101D2000F250019BAB42E2DC039B2C004D469946EE
:101D3000049BBB469A46029F059B9846002F2CD0D9
:101D4000621ED60FB618AA4676104C4509DC14E080
:101D5000721ED30F9B1825605B103400B1452CDA3E
:101D60001E00B70057443D68A4004146281C544457
:101D70000FF028F80028EBD1A3465B4642461A60D4
:101D800007B0F0BCBB46B246A946A046F0BD8B00EA
:101D90009B468344002FF0D14C4651460239CA0F6E
:101DA000521852109442CBD15B4664000134A20019
:101DB000AA18116893461960C2E7BB46DDE7C04622
:101DC000F8B54E46DE46574645468146E0B5884260
:101DD0003FD00300083399423BD008235B429B4627
:101DE00006008B440FE04B46F21A082A37DD082321
:101DF000981A4946301818F0DBFF4B4652465D6092
:101E00001A60B34525D0B0464446A368E5689A46B3
:101E10004B4608365968281C37000EF0E9FF0028A9
:101E2000E1D16168281C0EF0E3FF00280CD02300EC
:101E30002200083303CA03C32700083C6168281C3A
:101E40000EF0D6FF0028F2D153467D603B60B345CB
:101E5000D9D1F0BCBB46B246A946A046F8BD082A77
:101E6000CBD143464A46083303CA03C3C5E7C0463D
:101E7000F0B5DE46574645464E46E0B585B082464B
:101E80008B4602920D1A402D00DCBBE0029B002B1A
:101E900000D198E0534604330393029B013B029325
:101EA00053465E6804235B425B4498461B68EC1013
:101EB00099465346A40054442568301C291C1F68C9
:101EC0000EF080FF4946002850D0281C0EF07AFF03
:101ED00000286FD14946301C0EF074FF534600288D
:101EE00051D11E605F6043461B689846039B391CB6
:101EF00099465B46301C043B01930EF079FF4B463C
:101F00001C1D002830D025000434231F1F68311CFD
:101F1000381C0EF057FF0028F5D12C004146301C2C
:101F2000019D0EF04FFF002808D0043D2B68311CA6
:101F3000181C98460EF05CFF0028F6D1A5422BD95C
:101F40002300424604C3994653462F601E686768C3
:101F50002B1F01931B68391C301C98460EF048FF5C
:101F60004B461C1D0028CED14C46D7E7301C0EF046
:101F700029FF53460028B4D14946281C0EF022FF01
:101F8000002817D053464A461A6043461F605346FE
:101F9000B8461E685F68A9E759462000029AFFF715
:101FA00067FF5346E51A402D2CDD029B002B0BD01A
:101FB000A34673E753461D6027605F681E6843466B
:101FC0001B68984692E70C00AD10AE1E761000E03C
:101FD000013E5246B300D35831002A005046FFF765
:101FE00067FE002EF4D1043C52461268236822603A
:101FF0005246A51A00215046AA10FFF759FE043C8C
:10200000042DF1DC05B0F0BCBB46B246A946A046A3
:10201000F0BDC046F0B5C646884600B51F0006694B
:102020000500140008F0FCFE43461860596016488D
:102030007368984700281ED1210000203369984713
:10204000002811D12B7B0024002B05D10FE0013497
:102050002A7BE3B29A420AD9A300F958AB687269A5
:10206000185D90470028F2D00320404200E0002095
:1020700080BCB846F0BD054B0100180008F0D4FE46
:1020800006204042F4E7C046C50F0010C4CF01103F
:10209000F0B557464546DE464E460400E0B58BB0E7
:1020A0000390924608001D1C0C1B802C00DCF0E005
:1020B000002A00D1F4E0039B260008330593069321
:1020C0006B465746DD77039B049108219C463611E9
:1020D0004942F600DA6866448C4693467268584670
:1020E0009246049A51466244914652681D009046B9
:1020F0001A685C6802920EF07BFE013F41460028A0
:1021000000D184E050460EF073FE2B00002800D072
:1021100084E0414658460EF06BFE039B002852D1E6
:102120001800059D06CD06C0029ADC609A604B46F9
:102130005B6805909846049BBB460293039B069EF2
:102140009A463500261C53465C68301C211C2F0023
:102150000EF04EFE0837002809D03D0008373B1F1F
:102160001E68211C301C0EF043FE0028F5D14046AD
:10217000211C0EF027FEA946029D103D00282ED0FE
:102180002F00211C6868083D0EF01CFE0028F7D1C6
:102190003B000297994527D21A004B4614004D4642
:1021A0001B6803CC03C51360130056604A46083B06
:1021B0005B68D6689846C6E7414650460EF018FE62
:1021C000039B00282AD018004D4606CD06C04A467B
:1021D00002995460A0460590DC681160ABE7029B51
:1021E000083B02939945D7D35F466B463A00DB7FA5
:1021F00048460499FFF74CFF4B46039A9E1A802EDF
:1022000047DD002F17D04B46049313005DE7584677
:102210000EF0EEFD0028CFD0039B81E718003500BB
:1022200006CD06C07460DC684B46029A5B68059078
:10223000984632607FE734001500E410A71E7F1037
:1022400008AE00E0013F3200FB00EB1803CB03C2F5
:10225000736822000093390028003368FFF794FC6C
:10226000002FEFD14C46039D083C2200330003CAE7
:1022700003C323002A0003CA03C37368671B0093C8
:10228000002128003368FA10FFF77EFC083C082F75
:10229000EBDC0BB0F0BCBB46B246A946A046F0BD95
:1022A0008146039DC9E7C046F0B55746DE464E4617
:1022B0004546E0B546688246B7000121380087B040
:1022C00008F0DAFD051E00D193E053465C68A64293
:1022D00000D08CE0002C7DD09E68A34630000EF02C
:1022E00098FDB30099460193002398465346310068
:1022F0007A1900921A684E462C009246894602903E
:102300000395049505934B460020002B0AD04346C5
:102310009D005346002055449F1902CD0EF004FD48
:10232000AF42FAD102990EF002FD019B01C49C4616
:10233000009BC8446644A342E5D1049B5C469B468F
:10234000059B52469A4600234E4699464B46904678
:1023500073439B0098444346039D0195002B27D06F
:102360005B461F6800230093002E0ED045460024D4
:102370002868391C0EF0D5FC013401C5B442F7D3EE
:10238000009B002B21D153465C6801239C460333FC
:10239000E1449C46E344A1451BD253469E681A681B
:1023A0004B46904673439B0098444346002BD7D13D
:1023B0000121B00008F060FD8046002816D05B4681
:1023C0001F6801230093002ED0D1404608F058FD2D
:1023D000D9E7019D0024280008F052FD200007B035
:1023E000F0BCBB46B246A946A046F0BD019D024CDA
:1023F000F1E7024CF2E7C04614FCFFFF16FCFFFFBA
:10240000F0B5DE4657464E464546E0B5A7B00E93BA
:1024100032AB1B7810900993319B03915B081393A7
:102420000D0001330021160021AF082222A89C00D4
:1024300007930EF04DFE3A00C74B21941F931CAB3F
:1024400003CA03C3C54B1E9300232093319BAB42A9
:1024500000D968E1109A1319043B1B680692159382
:1024600001230C930E9A309B00219B1A9B001A00AB
:10247000300098460EF02CFE039B002B00DC02E19E
:10248000109A319B9446069A9BB2934611935B082F
:1024900001330893079BDB000493319B9B000F9350
:1024A000231F634414930E9B5C449B009B440023B6
:1024B0000293AB4B12940A93AA4B0B933199029B54
:1024C0008C461A000D000399624405928A4200D995
:1024D000CD1A079B089A934200D022E1049808F095
:1024E000C7FC18AB9A4604000822002119A80EF078
:1024F000EFFD0A9B524618930B9BFB603B0003CAFF
:1025000003C3994B3C61BB60002C00D1E1E0012189
:102510000F9808F0B1FC8146002800D1D3E0319B30
:102520009D4200D91D00029BA8009900109B02004B
:102530009C460D90614448460EF0D0FD319B0D98AD
:102540005A1B0021920048440EF0C2FD534600225F
:10255000009300210023319808F0D8FA051E00D11D
:10256000D0E04946220008F095FB280008F088FCDE
:10257000484608F085FC049B9A46069BA24499466F
:102580004346B0460D9320686668011C0EF0E3FBDD
:10259000311C051C301C0EF0DEFB011C281C0EF04B
:1025A000C3FB0EF09FFC4B46083401C399465445CB
:1025B000E9D10D9B259A46469846BB68002A00D172
:1025C00090E000241792002B00D1C2E0FB68380095
:1025D00017A9984700232593BB68002B03D003223B
:1025E000390038009847002C00D089E011980EF08F
:1025F00010FC0EF06DFC0B0002005C4900200DF099
:1026000086F9069C129BB1469A4626000D000400EE
:102610003068011C0EF09FFB0EF05AFC22002B00CC
:102620000DF093F90DF094FA01C65645F0D1309BA8
:102630000E9A4E460024934210D94B461E595B46D3
:102640001D59311C281C0EF0D3FB002800D1351C6D
:102650004B461D510434A045EFD14E46099B002B3B
:102660002ED00C9B002B02D0149B159A1A60139A43
:10267000029B94466344029300230C93029B039AAB
:10268000934200DA1AE70024209B1E9A002B06D002
:102690001893002A5DD01F9B18A91CA898470023F7
:1026A00020931E9B002B03D01CA9032208009847EF
:1026B000200027B0F0BCBB46B246A946A046F0BDFC
:1026C000059B0293DAE7259ABB68002A12D0284CB2
:1026D00078E7284808F0A8FB259A002A18D0244C4F
:1026E000BB686FE7002B00D180E703223900380078
:1026F00098477BE7002B03D0390038000332984716
:102700001B4CC1E7484608F0BBFB259A002AE6D1DE
:10271000BB68002BF4D00322390038009847144CD2
:10272000B2E7154CB0E70421079808F0A5FB209B01
:1027300006902090002B07D016931E9B002B08D0EC
:102740001F9B16A91CA8984700230C9300231593E0
:1027500088E615F0E1FCC046011000108519001054
:1027600081AE0010A50F0010611900100000F03FAD
:1027700016FCFFFF20D0011014FCFFFFF0B5DE4671
:102780004E4645465746E0B51E00436804000D001E
:10279000934689B0012B00D0B8E04B68012B00D0E4
:1027A000B4E09368012B00D0B0E053687068013B3F
:1027B000984200D0AAE0B368012B00D0A6E0A2683E
:1027C0008B689A4200D0A1E00121800008F054FB00
:1027D0000390002800D195E05B465868012101383C
:1027E000800008F049FB0190002800D18CE05B4696
:1027F0005B68AA680293013B9846002A2ED02B689A
:1028000005920493236807960693002399469B003C
:102810009A465246049B9E58029B012B16D05B465B
:10282000002400251F68AD007859311C0EF0D0FA45
:10283000002806D07B195868311C0EF0D9FA002800
:1028400045D10134A4B225004445ECD34B46059A4A
:1028500001339BB299469342D9D3079E029B012B29
:102860001DD0336800249946002300259A464F4620
:10287000019BAD005E5900217B19301C99460EF07A
:1028800099FA00281AD1039B311C58590EF04FFABF
:102890004B460134A4B2250018604445E8D30198A2
:1028A00008F0EEFA0024039808F0EAFA200009B0D4
:1028B000F0BCBB46B246A946A046F0BD4B465246C8
:1028C0000134A4B225001A604445D1D3E7E752464B
:1028D000039B5C19069B206899580EF025FA019B12
:1028E000FE219C4620606544286889050EF01CFA8C
:1028F0004B46059A01339BB299462860934200D219
:1029000085E7AAE7024CD1E7014CCCE7014CCDE7C3
:1029100016FCFFFF14FCFFFFF0B54546DE465746A8
:102920004E46E0B58DB0069316AB14001A88436886
:1029300088460492012B00D023E14B68012B00D084
:102940001FE15208531C99468B68170005924B45AE
:1029500000D016E16368012B00D012E1A36899450D
:1029600000D00EE103680993002B00D1F6E00B685C
:10297000002B00D1F2E02368002B00D1EEE0836849
:102980009A46049B9A4500D2DCE000D99A46049B03
:10299000012118008000079308F06EFA021E0890CB
:1029A00000D1DBE007980023002806D0FE2189052E
:1029B00001339BB202C29842FAD104980EF02EFA6B
:1029C000051CFE20069980050EF0B1F9011C281C9B
:1029D0000EF0C1F9011CFE2080050EF0A8F9256853
:1029E0000024061C20000EF014FA311C0EF0B3F97E
:1029F0002300013401C5A4B29F42F3D10121042078
:102A00009B4608F039FA0390002800D1A8E053460D
:102A1000002B00D1B7E0099D0024AC462E009F009A
:102A20006744201C02CD0EF07FF9AF42FAD1041C9E
:102A300050460EF0EEF9011C201C0EF078F9039BB5
:102A4000041C18603068211C0EF06BF901C6B742F7
:102A5000F8D14B460121D80008F00EFA059B04007E
:102A60000133994500D087E0049E0121B00008F0B1
:102A700003FA051E00D190E0564500D95646B7002E
:102A80003A00099928000EF029FB049B00219A1BAB
:102A90009200E8190EF01CFB0BAB00930022002300
:102AA0000021049808F032F8061E00D172E0079861
:102AB0000EF0B4F906990EF04EF9011CFE208005C7
:102AC0000EF035F9290022008146300008F0E2F8C6
:102AD000300008F0D5F9280008F0D2F943461B6809
:102AE00025009846002300269A46049409E0011C1C
:102AF0000EF01AF94346286001C398460136B6B273
:102B00000835534628686C68011C6B600EF023F989
:102B1000211C071C201C0EF01EF9011C381C0EF095
:102B200003F949460EF017F92860B345DFD1434653
:102B3000049C1860200008F0A3F90025039808F011
:102B40009FF90EE0534650469BB201218000079347
:102B500008F092F9021E089000D023E7104D03E020
:102B60000F4D089808F08CF928000DB0F0BCBB465A
:102B7000B246A946A046F0BD0A4D200008F080F9F3
:102B8000DCE7094DF0E70021081C0EF0D0F8039BAC
:102B900018605EE7280008F073F9014DEDE7C046C4
:102BA00016FCFFFF11FCFFFF14FCFFFFF0B54E46C3
:102BB000DE4657464546E0B59BB01E1C24AB1B784D
:102BC00089469B4625AB1B780A900992002B00D0C2
:102BD0005AE3099BC3495C69200017F05FFC002899
:102BE00000D017E1099BDB69002B00D09AE35B461C
:102BF000002B01D000F051FCFC21099B8905301C01
:102C00009D695F6A0EF0A7F8291C041C0EF0DAF823
:102C1000002801D100F091FC38000EF0FAF8211CD8
:102C20000EF099F8311C0EF082F80EF051F90022E6
:102C3000AD4B0CF063FE0CF03BFF01231490421CE3
:102C400049460E680A994D68002D00D1DAE01499C2
:102C5000B14689001291D11A8900169199001591F7
:102C6000002110920B91179611930A9A936812689B
:102C70009B469B009A4651460B9B4B43D318002220
:102C80000C9307930D92002B00D17AE14B460693EB
:102C900000230E934B46002B00D181E158460EF0E5
:102CA000B8F85B46041C002B00D1FDE00025079F0F
:102CB0003E00574401CE011C0EF04DF8011C281CAB
:102CC0000EF032F8051CBE42F4D1211C0EF02FF894
:102CD0000EF008F9069B002118604B461E68301C58
:102CE0000EF068F8002800D0D9E0311C301C0EF03E
:102CF00032F8311C0EF02FF8011C8046301C0EF00B
:102D00002AF808900C9A53469446634405934B4620
:102D100000260F93231C91469A46341C4B4620CB29
:102D2000291C281C99460EF016F8291C0EF013F8E1
:102D3000011C071C201C0DF0F7FF391C041C281C6B
:102D40000EF009F8011C301C0DF0EEFF059B061C6F
:102D50009945E3D10F9B99465346A246191C50460C
:102D60001C1C0DF0E4FF211C051C301C0DF0DFFFC6
:102D7000061C4146281C0DF0DAFF4B4608995860A6
:102D8000301C0DF0D4FF59490DF0CBFF4B464C469B
:102D9000099A9860536A92880C34042A00D107E19A
:102DA000352209990C988A5C0193109B029200933A
:102DB00022005946119BFFF723FB002800D0ADE20B
:102DC0003423099AD35C002B00D097E0129BE518BE
:102DD000069BA946002B03D00E9B002B00D0C8E019
:102DE000079B002B03D00D9B002B00D0C5E00A9B56
:102DF0000B9A5B6801320B92934200D935E7179E1C
:102E0000AD1BAD1028001BB0F0BCBB46B246A946B6
:102E1000A046F0BD2000364917F040FB002831D114
:102E2000099BDB69002B00D025E35B46002B00D01B
:102E300019E3FC21099B8905301C9F695C6A0DF030
:102E40008AFF391C051C0DF0BDFF002800D131E3BD
:102E500020000DF0DEFF291C0DF07DFF311C0DF070
:102E600066FF0EF035F8204B00220CF03EFD0CF012
:102E70001FFE431C013000D1012362080132D11A28
:102E80001491DDE65B46002B00D0FFE2099B5A6AF5
:102E9000D30F9B185B105A1C14930123D0E6154BDB
:102EA0000893154B98462DE7011C00200DF03FFFBD
:102EB000051C0EF017F8069B002118604B461E6893
:102EC000301C0DF077FF002800D198E10020211C74
:102ED0000DF02DFF074B051C0893074B061C984669
:102EE00047E7C04634D001100000E03F00004040FA
:102EF00038D00110C21601006142A20D149B002BB4
:102F000000D163E72600129BD74FE51800213068F7
:102F10000DF050FF002800D037600436B542F5D1DF
:102F2000206819A94000400819F0D6FDCF49061CB9
:102F30000DF011FFCE490DF0F4FE011C301C0DF018
:102F40000AFFCC490DF0F0FE011C301C0DF003FF10
:102F5000C9490DF0E6FE061C19980DF05FFF311C03
:102F60000DF0E2FEC5490DF0F6FE01C4A542D7D131
:102F70002EE7069807F084FF32E7079807F080FFF6
:102F800035E70121504607F077FF01230D934B46AB
:102F9000069300230E934B460790002B00D07DE64E
:102FA0000121042007F068FF012306900E9375E6C7
:102FB0008022DE0FF618761001369205964200D375
:102FC00098E2002E00D129E1B400200007F050FF64
:102FD0002200002182460EF07BF83523099A5946DB
:102FE000D35C0C980293536A5246019300960023D7
:102FF000FFF706FA002800D098E20121043013946C
:10300000A61007F039FF00240C900025201C544620
:10301000AB00E15801350DF087FEAE42F8D8A2466C
:10302000041C30000DF0F5FE011C0590201C0DF075
:103030007EFE002500274B468346B146A8463E004B
:1030400008935246B300D05859460DF06AFE011C51
:10305000041C0DF080FE011C071C201C0DF07BFEE3
:10306000011C281C0DF060FE391C051C40460DF0AB
:103070005BFE01368046B145E3D8089B05994E4674
:1030800099460DF054FE041C011C0DF064FE211C39
:103090000DF061FE0DF026FF00212F1C041C0DF029
:1030A00089FE002844D10023D0460F930599381C8F
:1030B0000DF03DFE211C0DF03AFE0C9B18604B46B6
:1030C000D860139B002B3BD10021081C0DF02FFE74
:1030D000011C051C0DF03FFE041C211C281C0DF0DA
:1030E00026FE67490DF01DFE0C9B4C4618604B46B2
:1030F000109A1861119B1434934208D20023159939
:1031000016985144CA58E25004338342FAD10C98BD
:1031100007F0B6FE4346002B02D00F9B002B64D174
:103120005346002B00D14BE6504607F0A9FE47E678
:1031300000230C9AD04613604A46D36000230F93B5
:1031400000240025201C4446AB00E15801350DF059
:10315000EBFDB542F8D3A046041C30000DF059FE3B
:10316000011C0890201C0DF0E2FD00250027B3464D
:1031700005902E1C4246BB00D05805990DF0D1FD9C
:10318000011C0DF0E8FD041C011C301C0DF0CCFDF1
:10319000211C061C201C0DF0DEFD011C281C0DF05E
:1031A000C3FD0137051C5F45E4D3B346089E58466E
:1031B000311C0DF0BCFD011C0DF0CDFD0021041CE7
:1031C0000DF0F8FD002814D02E4B0C9A4C461360DD
:1031D0004A461361119B109A143493428ED30C9873
:1031E00007F04EFE0F9B002B9AD0404607F048FE9A
:1031F00096E7281C311C0DF09AFD051C6DE7311C6B
:10320000301C0DF0A8FD311C0DF0A5FD011C804601
:10321000301C0DF0A0FD2E1C0890AAE5352209995E
:103220000C988A5C01930292002300225946009672
:10323000FFF7E6F81390002849D0069B05009B464F
:103240005B46002B03D00E9B002B00D02EE1079B8A
:10325000002B00D1D6E50D9B002B00D1D2E50798BD
:1032600007F00EFECEE5C046FFE6DB2EA8A19D3F8F
:10327000F5CA8340FBB3C040E09248409B209A3E91
:1032800000004040000040C044688568012C01D027
:10329000012D76D1FE21099A0A9BD7685D609C605A
:1032A0008905381C0DF086FD002800D091E46C43A0
:1032B000002C00D18DE40A9BA4001D6864192868C5
:1032C000391C0DF048FD01C5A542F8D181E401216A
:1032D000002007F0D1FD01218046042007F0CCFD3D
:1032E00000210C90081C0DF022FD041C011C0DF0A7
:1032F00032FD211C0DF02FFD00270DF0F3FD391CD0
:10330000041C0DF057FD002835D00C9B1F604B4668
:10331000DF6001230F9300239A46D5E6069B050044
:103320009B468DE7099A0A989269DBB2311CFDF73A
:10333000FDFF051E00D065E55B46002B00D0D1E007
:10334000FC21301C89050DF006FD099C051C606AF6
:103350000DF05FFDA769291C041C381C0DF048FD09
:10336000002800D0D9E0211C381C0DF0F4FC311CE1
:103370000DF0DDFC59E401230F93002305979A46D5
:1033800094E62B0063435A1E00270792002B00D0BF
:10339000B3E00A9A1368059301239A461E339846B0
:1033A0002B0015005A46B34626005446924605990E
:1033B000A20052582000190006920BE001228A4018
:1033C000196811431960844200D189E0089BA968FB
:1033D0006E6806930CF042F8059A714394460818FB
:1033E000830063441A68C6170892069A1A60F20EA0
:1033F00094468118424643461140624633401B18AA
:103400005B119B00FB18891AD8D5012220318A4014
:103410001100043B1A68114319608442D6D131006F
:103420000AE0012191401B680B4218D0079A431C07
:10343000824249D91800D917434644460B401B180D
:10344000C90E5B1142189B002240FB18521AE8D5A6
:10345000012120329140043B1B680B42E6D104005D
:10346000AB686E68A3E70A98FEF71EFF002800D13C
:10347000DFE40500C6E4099A0A989269DBB2311CC0
:10348000FEF7D8F8051E00D1CFE4BBE40A98FEF79A
:103490000BFF002800D1F9E4EBE70A98FEF704FFE0
:1034A000002801D1FFF7A8FB0500ABE4584607F060
:1034B000E7FCCCE620000DF0ACFC391C0DF04BFC19
:1034C000311C0DF034FCCCE45E460A95D346002F47
:1034D00002D0380007F0D4FC0A9B5C689D68D9E6EE
:1034E0003100A9E70A98FEF7DFFE002800D127E7A0
:1034F000050087E4164814F0DBFD1F335C09A400C7
:10350000200007F0B5FC071E03D0220000210DF0BB
:10351000DFFD0A9B9D685C683BE7211C281C0DF0C1
:103520001AFC311C0DF003FCFFF77FFB069B050026
:1035300050469B4607F0A4FC82E638000DF069FC7B
:10354000291C0DF008FC311C0DF0F1FBFFF76DFBA1
:1035500040D00110F0B54F46D6464646C0B5894624
:10356000070082B000284CD0C36800259846DB6C69
:10357000002B05D11EE04346DB6C0135AB4219D967
:103580003E69002E01D0AB009E594246146D6B017E
:10359000E418E2690196A3692900009338004B46BC
:1035A0002469A0470028E6D002B0E0BCBA46B14684
:1035B000A846F0BD44234246D25C002A1FD04B46A9
:1035C000002100248A4644279B6D0BE0280007F069
:1035D00057FC4B4652469B6D9A514246D25D013490
:1035E000A2420CD9E6009D59002DF8D02868002889
:1035F000ECD02B7B002BE9D007F042FCE6E7002063
:10360000D2E70B204042CFE7F0B557464546DE46AD
:103610004E46E0B583B00C9B82461500002B00D1CE
:1036200087E0002300269946019353461C682978B9
:103630006368A2685A43019B9C4694446346019385
:1036400003290FD009294ED001292FD03E4807F079
:10365000EBFB0D20404203B0F0BCBB46B246A9468E
:10366000A046F0BD0027002A0AD12DE0FF205B46CE
:10367000424698546268A36801375343BB4223D93A
:103680002268BB009858E9680DF051FB0DF072FC00
:103690006B68B0469B460DF0E3FB2B690136C01802
:1036A000FF28E3DCC343DB171840E0E7002A0BD018
:1036B0006868B300C018002327689400F958C15007
:1036C0000433A342FAD1B61801239C460C9BE14473
:1036D0004B45AAD1A969019A8B08934201D0914226
:1036E0002BD10020B7E70027002A0AD1ECE77F2082
:1036F0005B46424698546268A36801375343BB4215
:10370000E2D92268BB009858E9680DF010FB0DF073
:1037100031FC6B68B0469B460DF0A2FB2B6901366D
:10372000C0187F28E3DC03008033E1DA80204042C8
:10373000DEE7916900228B08D3D0044807F074FBC0
:103740001820404287E7C04674D0011098D001107D
:10375000F0B5C6464D680B00896804004D430178FA
:1037600000B5032927D009290DD001293AD1826952
:103770009108A9423CD1186861680DF0AFFC0020A7
:1037800080BCB846F0BD8769AF423DD1002FF6D06E
:103790000269456890461E687F19002043462856F6
:1037A0000135C01A0DF03AFBE1680DF0D4FA01C6FC
:1037B000BD42F2D1E3E78769AF4225D1002FDED0C9
:1037C0000269456890461E687F194346287801358E
:1037D000C01A0DF023FBE1680DF0BDFA01C6AF423F
:1037E000F3D1CCE70B4807F01FFB0E204042C7E7A0
:1037F0000321D3171940891807482A00891007F0B8
:1038000013FB18204042BBE72A003900024807F0AA
:103810000BFBF6E72CD10110E8D00110F0B5DE4625
:1038200057464E464546E0B5A5B09B46309B07003F
:1038300098461B69914605934346187B8A4680014A
:1038400007F016FB04900A9007F0EAFA002108221C
:1038500015A80DF03DFC794B0FAC06931493784BF3
:1038600014AEE3603200230003CA03C3754B320079
:10387000A3600023404623610CA90AABFEF7CAFBF4
:10388000051E1CD0139BA268002B07D00B93002AA7
:1038900000D1D0E02000E3680BA9984700231393E0
:1038A000A368002B03D003222100200098472800A2
:1038B00025B0F0BCBB46B246A946A046F0BD2F9B42
:1038C0003200996D4423FB5C504602933C23FB5C21
:1038D00001932E9B00935B46FFF796FE051ED1D108
:1038E0000C9E0D9F43461B699B689847002800D09B
:1038F0009CE007F095FAFA22801BB9412F9B9200B9
:103900009864D96400230BF0CFFD2F9B986307F0D8
:1039100085FA831C00D18CE043461B7B002B50D0E2
:103920004B46DB009B46079300239A462F9B049F40
:1039300099460995BA681068002875DD00230125AD
:10394000043202CA01334D438342FAD13E78032E3A
:103950000AD0092E08D0012E50D00E2531003A4849
:1039600007F062FA6D428DE743461B7D1020002B65
:103970002FD107F07DFA01210600280007F07CFA1C
:103980000123337373604B465A4630609B6DB560BC
:1039900079689E50BA690DF0A1FB079A4B46944690
:1039A00042469B6D526863445A6001239C4607332C
:1039B000E2449C4643461B7B4037E3445345B9D819
:1039C000099D059B0698DB689847049807F058FA0C
:1039D00058E707F04DFA01210600A80007F04CFA5D
:1039E0000123337373604B465A469B6D3060B5605C
:1039F000310038009E50FFF7ABFECEE7102007F0F5
:103A000037FA01210890A80007F036FA4B465946CC
:103A1000089A9B6D16735660956010605A507968CD
:103A2000BA690DF05BFBB8E701258FE703256D420E
:103A300072E7050070E714F06FFBC046F10F00104D
:103A4000A50F0010611900102CD10110F0B5DE4651
:103A5000574645464E46E0B5B5B00C933EAB10CB4D
:103A600005911B780F92109323690D941293050012
:103A7000207B800107F0FCF9002108220E901790AE
:103A800025A80DF025FBE24B24AA13932493E14BC8
:103A900022931FAB03CA03C3DF4B200021930023F3
:103AA00024AA23931CA917ABFEF7B4FA8246002878
:103AB00000D0C7E1382216AB9B181B78092B03D026
:103AC000032B01D000F0A5FC07F0AAF90022AB6996
:103AD0000A901493259B0B9107931192002B01D10F
:103AE00000F088FC2B6C2898DC68279B9B460DF027
:103AF00095F9AB6CC949DF68A368061C6069069339
:103B000016F0CCFC059B002800D1B8E11A6903929D
:103B1000002A00D1E8E0002208920592524604965D
:103B20001E00029715928023039ADB0092469A4268
:103B300000D99A465346069801215843800007F061
:103B40009BF90190002800D16EE1059AB3681A92A2
:103B5000524618901992002B01D100F060FC18AB6E
:103B60003000F46819AA1AA9A047039B002B00D1C2
:103B7000A6E0089B079C9C4664440025FF27A146BD
:103B8000099631E0C321049809060DF013F90028C5
:103B90003CD0029B4046002B00D01BE20DF03EF9CA
:103BA0008621C9050DF0BDF80DF05AF94B46187085
:103BB00020000DF033F98621C9050DF0B2F80DF0A3
:103BC0004FF94B46587030000DF028F98621C90591
:103BD0000DF0A7F80DF044F94B46987003239C466E
:103BE0000135E144AA4562D9019AAB00D0580DF0E5
:103BF00069F90600030C040A3B4058468849984678
:103C00003C403E400DF0D6F80028BBD140460DF0B8
:103C100000F9804620000DF0FCF8041C30000DF087
:103C2000F8F8029B061C002B00D0DEE140467D49DF
:103C30000DF07DF87B498046201C0DF078F879491D
:103C4000041C301C0DF073F8061C594640460DF05C
:103C50006EF80DF08FF9049B011C181C98460DF0AE
:103C600063F80DF0FDF84B4659461870201C0DF016
:103C70005EF80DF07FF9011C40460DF055F80DF08F
:103C8000EFF84B4659465870301C0DF050F80DF0C7
:103C900071F9011C40460DF047F80DF0E1F84B4674
:103CA000987003239C460135E144AA459CD8089AA4
:103CB000534694465B0053449C446346099E0893D4
:103CC0005246039B01989B1A039307F0D9F8802270
:103CD000D2009446059B63441A00059333699A42C7
:103CE00000D220E7159B9A4607F098F8831C00D174
:103CF00015E307F095F80A9B0B9CFA22C01AA14124
:103D00000C9C00232064616492000BF0CDFB109B9F
:103D100001006063002B00D04BE307F081F8040042
:103D20000D000D9B1C941D951B699B6898470028EE
:103D300000D06AE307F074F8FA22001BA9410C9C3A
:103D40000023A064E16492000BF0AEFBA06307F0D7
:103D500065F8831C00D160E30D9B1B7B002B4ED0CC
:103D60000F9B0E9DDB001F00019300233A001F00F4
:103D7000534602930C9B91469A460D9B9B46AA681C
:103D80001068002800DC3EE300230124043202CA4C
:103D900001334C438342FAD12E78032E00D19AE1AD
:103DA000092E00D197E1012E00D0AEE1102007F0DE
:103DB0005FF880460121A00007F05EF843461860D6
:103DC0001E735E609C6053464A4641469B6D995007
:103DD0006968AA690DF082F9019A534694465A46D9
:103DE0009B6D526863445A6008239C465B461B7B6C
:103DF00001374035E144BB42C1D8029B9A46129B31
:103E00001398DB6898470E9807F03AF813E0C0461D
:103E1000F10F0010A50F0010611900108CCE0110D9
:103E20008180803B00007F43C648C74906F0FCFF05
:103E300005235B429A46079B002B03D0119B002B66
:103E400000D0B2E2239B219A002B07D01B93002ABB
:103E500000D1E4E2229B1BA91FA8984700232393CB
:103E6000219B002B03D01FA903220800984750462E
:103E700035B0F0BCBB46B246A946A046F0BD1B69B2
:103E80000493002B00D12FE75846B0490CF092FF65
:103E90000023002800D071E1994609935B46029304
:103EA0004B4608935346BB46039615938023049ACA
:103EB000DB0015009A4200D91D00069801216843D5
:103EC000800006F0D9FF81460028ADD0089B1890ED
:103ED00005981A9383681995002B00D19FE218ABBF
:103EE000C46819AA1AA9A047049B002B00D19BE023
:103EF000099A00279446079BFF266344B846AA46C2
:103F0000019337E09249281C0CF011FF9049051CE1
:103F1000381C0CF00CFF8E49071C201C0CF007FF0E
:103F2000041C8C49281C0CF016FF8B49051C381CFE
:103F30000CF011FF011C281C0CF0F6FE8749051C33
:103F4000201C0CF008FF011C281C0CF0EDFE02994F
:103F50000CF0EDFE0DF00EF8011C03980CF0E4FEE1
:103F60000CF07EFF4246019B985401239C46E0449E
:103F7000C24553D943464A469B00D0580CF0A2FF95
:103F80000400000C30400CF044FF051C200A3040B7
:103F90000CF03FFF071C200030400CF03AFF5B465E
:103FA000041C002BAED0022B51D0042BB9D186219A
:103FB000281CC9050CF0B5FE8621051CC905381C56
:103FC0000CF0AFFE8621071CC905201C0CF0A9FED1
:103FD000041CA6E70CF01DFF804620000CF019FF22
:103FE000041C30000CF015FF061C029B022B50D065
:103FF000042B00D029E686214046C9050CF091FE2D
:1040000086218046C905201C0CF08BFE8621041CED
:10401000C905301C0CF085FE061C16E6099B5546AA
:104020009C46D44463460993049B48465B1B049317
:1040300006F026FF8022D2009446089B63441A00B3
:104040000893059B1B699A4200D22FE74AE6404934
:10405000281C0CF06CFE42490CF063FE41490CF048
:1040600066FE3B49051C381C0CF061FE3E490CF015
:1040700058FE3E490CF05BFE3549071C201C0CF035
:1040800056FE3B490CF04DFE3A490CF050FE041C24
:1040900047E740462E490CF04AFE31490CF041FEFC
:1040A00030490CF044FE2A498046201C0CF03FFEAB
:1040B0002D490CF036FE2D490CF039FE2449041C24
:1040C000301C0CF034FE2A490CF02BFE29490CF070
:1040D0002EFE061CB9E55B461B7D1020002B1CD074
:1040E00006F0C6FE01210600A00006F0C5FE012371
:1040F0003373736053464A469B6D3060B460310041
:1041000028009E50FFF724FB66E631001A4806F0AF
:104110008BFE0E235B429A468DE606F0A9FE012136
:104120000600200006F0A8FE012333737360534697
:104130004A4630609B6DB46069689E50AA690CF075
:10414000CDFF49E654D1011016FCFFFF8180803B72
:1041500000007F438716993EA245163FD578E93D7A
:10416000EC51F83EFA7E6A3ED578E93E4260653E03
:104170003BDFCF3E6666663E2CD101109946089320
:104180005346CA460196029709938023049ADB009E
:1041900014009A4200D91C00069801216043800057
:1041A00006F06AFE071E00D13EE6534618900598B9
:1041B0001A9383681994002B00D130E118ABC568BD
:1041C00019AA1AA9A847049B002B00D191E0089ACC
:1041D00000259446079BA3466344FF26B9462C005E
:1041E00003934DE0029B002B00D1BCE040460CF055
:1041F00010FE804638000CF00CFE071C28000CF066
:1042000008FE051C029B022B00D18AE0042B11D171
:1042100086214046C9050CF084FD86218046C905EB
:10422000381C0CF07EFD8621071CC905281C0CF0EB
:1042300078FD051C7B49381C0CF08DFD7A49071C64
:1042400040460CF088FD011C381C0CF06DFD7749D0
:10425000071C281C0CF07FFD011C381C0CF064FDB1
:1042600073490CF064FD0CF085FE011C01980CF004
:104270005BFD0CF0F5FD039B185501345C4531D214
:104280004A46A300D0580CF01DFEC3210500030CC4
:10429000070A3340019809069846374035400CF02C
:1042A00089FD00289ED140460CF0B3FD80463800C1
:1042B0000CF0AFFD071C28000CF0ABFD029B051CA9
:1042C000002B9FD140465B490CF031FD5949804697
:1042D000381C0CF02CFD5749071C281C0CF027FD3E
:1042E000051CA7E7089B4F469C46DC4463465C469A
:1042F0000893049B38001B1B049306F0C1FD802328
:10430000DB009C46059BE2441B69534500D93CE712
:10431000099B9A4606F082FD831C00D0E9E48246A0
:1043200089E5404643490CF002FD43490CF0F9FC95
:1043300042490CF0FCFC3F498046381C0CF0F7FC6D
:104340003F490CF0EEFC3F490CF0F1FC3949071CE9
:10435000281C0CF0ECFC3C490CF0E3FC3B490CF055
:10436000E6FC051C66E7424639483A4B784353431E
:10437000C0182B015B1B1B015B195A01D31AC01813
:1043800000140CF04BFD8621C9050CF0CAFC0CF0A2
:1043900067FD7F2803DD7F20039B18556DE7030031
:1043A0008033F9DA80204042F6E7079806F068FD8E
:1043B00048E5294806F038FD149B002B16D01D0057
:1043C000079B264E9C461C0065440020289B2056D7
:1043D0000134C01A0CF022FD27990CF0BCFC06F049
:1043E0003BFD300006F020FDA542EED11C4806F052
:1043F0001BFD92E40121149806F03EFD0123079075
:104400001193FFF76FFB0124C6E403235B429A4636
:10441000A2E409235B429A4614E582469CE413F029
:104420007BFEC046A245163F8716993ED578E93DEA
:104430008180803B00007F43EC51F83EFA7E6A3E6B
:10444000D578E93E4260653E3BDFCF3E6666663E1C
:10445000459600008B4C00007CD1011090D10110DA
:10446000A0D20110F0B54546DE464E465746E0B5AF
:10447000C54CABB0E36805000E009046A34606901D
:104480000E911692002B00D1D2E2002900D1CFE28A
:10449000002800D1CCE20021682230000CF018FE88
:1044A0004423E268D45CE400200006F0E1FC220032
:1044B0000021B06507000CF00BFE5B46D868836CEA
:1044C0005C6899685423C25C0E2A2DD8AF4BD34048
:1044D000DB0729D561223C23825CC35C002A25D1FD
:1044E000AB4A944222D14A7B002A1FD0012B1DD116
:1044F000026CA84B92689A4200D07CE2434600913D
:104500000193290033000022FFF7A0FA051E00D115
:104510002DE1380006F0B4FC28002BB0F0BCBB46FF
:10452000B246A946A046F0BD3C23C35CDC00200097
:10453000139306F09DFC1290002800D11DE122008B
:1045400000210CF0C5FD139CA31C9B0018001893C0
:104550000CF0CEFD08228446042362449046179056
:1045600003604460002C00D128E2139B00214046E8
:104570009A000CF0ADFD06F053FC5B46DE683C2370
:1045800014901591F35C002B00D1A8E1129BC14659
:104590009A460023079305937F4B10937F4B11930B
:1045A0007F4B0F93434619935346BA461F0036E09C
:1045B0000F9B1B78002B00D1ADE0059B9E005B4656
:1045C0005D68AD192868002800D1B7E00E9903682E
:1045D0003A6801915946C968896B00915D68414606
:1045E0000B9BA847002800D037E106F017FC831C7E
:1045F00000D147E1279B002B03D00322210020009C
:1046000098475B460421DE683C238C46059AE144CA
:1046100001320592F35C08379A4200D337E1059ADC
:1046200010209446D30063449A009446336C0D9254
:1046300063441A685E6808929A685D690C92DA6849
:104640000B921A69DB6909920A9306F011FC0121A9
:104650000400B00006F010FC0123237363604B4696
:104660001B68206098464B461C604346A660002BA2
:1046700009D01868002802D01B7B002B74D140465B
:1046800006F0FEFB2068002800D193E0089B3C6008
:104690007B60079B9C465B46B4446246DE6807929B
:1046A000B3699A4200D9CCE0099A069B25AC002157
:1046B000229220000C222193239524960CF008FDD1
:1046C0000023316A2893069B98468D4218D01869BA
:1046D0000AF0C4FE4543002108221EA829950CF0CB
:1046E000F7FC21AB1D931BAB1A001DAD03CD03C21C
:1046F0002200A04603CB03C2109B2793119B289353
:104700000A9B002B00D053E74046B36B39680B9AE5
:104710000C9DA84766E72349234806F085FB2348FC
:1047200006F082FB01230F9A1370059B9E005B46E7
:104730005D68AD192868002800D047E70D991A6810
:104740008C46136C916B6344D868DB6998475B4671
:104750005B6828609859002800D037E70B25199B23
:10476000574698466D4282E006F08AFB87E7584636
:104770000E99FEF7EFFE0500CBE608250C4806F083
:1047800053FB6D42C5E6C046044C0020A44800001F
:104790001D380010E1100010CD1900102910001074
:1047A0000050022028D2011030D2011038D201105E
:1047B00094D10110199BA3489846059906F034FB43
:1047C000189C5746083C44442500444500D132E13A
:1047D0004446A846043D2E68002E09D030680028C3
:1047E00003D0337B002B00D0B5E0300006F048FB4F
:1047F000A542EFD1434608251798A0461C000CF0AF
:104800007FFC6D42A04512D02B0045469846043CE3
:104810002668002E08D03068002802D0337B002B99
:104820000CD1300006F02CFBA542F0D1454617987C
:104830000CF066FC129806F023FB6AE606F020FBFB
:10484000EFE7199B052598467F4806F0EDFA189C7E
:104850005746083C44446D42D4E7199B01009846F2
:104860007A4B05251800574606F0DEFA6D42279B65
:10487000002B03D00322210020009847189C083CFD
:104880004444BFE7199B574698460500EFE7199A3D
:1048900057469046002B22D03C22002491461D0012
:1048A0005F46E000316C0219920089180B6A002BF8
:1048B00010D0196800290DD05B69002B0AD012991D
:1048C0000958F868006C80189847002800D088E0E4
:1048D0004B46F55C0134AC42E3D3BB46574606F089
:1048E0009FFA149B159CFA22C01AA1410E9C00232A
:1048F0002064616492000AF0D7FD169B010060639A
:10490000002B2BD15B46D8684423C35C002444268B
:10491000002B57D0169BBA4699460E9F05E05B4682
:10492000D8680134835D9C424BD249466300826C57
:104930001B19DB00D218136903919168019702914A
:10494000117D0091556812992200A8470028E6D0F1
:104950005746050092E706F093FA46E73C4806F012
:1049600063FA00239A46139B129D002B22D0394BE9
:10497000394E99465346BA461F002B68002B13D078
:104980009A680024002A0CD01B68A200D05806F0B8
:1049900063FA300006F048FA2B6801349A689442B2
:1049A000F2D3484606F040FA139B013708359F4280
:1049B000E3D35746294806F037FAA3E708231893AC
:1049C000D9E5574606F02AFA189C0500083C4444ED
:1049D000831C00D116E758460E99FEF7BBFD050073
:1049E00010E70500189C29001D48083C5746444420
:1049F00006F01AFA06E7082006F03AFA031E1290AB
:104A000000D1BAE61800082200210CF061FB0C204E
:104A10000CF06EFB042384460360033B43600733C2
:104A2000634498460C2318930B3B179013939CE513
:104A300016256D4270E5082517980CF061FB6D4254
:104A4000F5E6C046C4D10110FCD1011054D10110CB
:104A50007CD10110A0D2011090D10110A4D201107C
:104A6000B8D20110F0B5DE46454657464E46E0B591
:104A70008548D5B00EF012F9FCF772F9051E00D189
:104A8000FAE0824B9A46824B0493824B0593824B09
:104A90000693824B0793824B0B93824B0C93824B72
:104AA0000A93824B099342AB9B46814B9946814BBB
:104AB0009846814B0D93814B0E93814B0F93534638
:104AC0000893089C2600F934FF3401222800524242
:104AD00017A911F013FD0128F7D11C9B33601D9B12
:104AE00073601E9BB3600C36B442EED12A210700DE
:104AF00004980EF05BF96822002120A80CF0E8FA77
:104B00007E23082200213BA816930CF0E1FA059BB6
:104B100008223AA910A83A930CF0E0FA082210A94A
:104B200012A80CF0DBFA069B20A91493079B002225
:104B300012A81593FFF796FC011E0AD00B9806F0F9
:104B400073F9149B002BBCD012A9032208009847CC
:104B5000B7E7682220A93AA80CF0C0FA2F9B2E9A3A
:104B60002D990C9806F060F90A9806F05DF9099BFA
:104B70003AAE1C00484602CC06F056F9F0680CF03C
:104B8000A7F9083602000B00404606F04DF9B34580
:104B9000F0D1239B00219A46279B5046259C299EB5
:104BA00002930CF025F9002845D10021201C0CF0BF
:104BB0001FF9002831D1002102980CF019F90028C2
:104BC00020D10021301C0CF013F9002816D0032747
:104BD000099BBF00301CDF590CF07AF90290039159
:104BE000FD21301C89050CF0FBF8002839D0029A11
:104BF000039B39000D9806F017F9A2E70F9806F00D
:104C000013F99EE7029C311C201C0CF0DBF80327F3
:104C10000028DDD1261C013FDAE70299201C0CF0A8
:104C2000D1F80028EED1311C201C0CF0CBF8002864
:104C3000CDD1261CCCE75146201C0CF0D9F8002819
:104C4000EBD1514602980CF0D3F80028DAD1514646
:104C5000301C0CF0CDF803270028B9D156460027A8
:104C6000B6E70023174C390000930194029A039B86
:104C70000E9806F0D9F864E713480EF00FF80020FC
:104C800012F054F8FDE6C046ECD20110803200204C
:104C900030D301100D100010A9190010B10F001031
:104CA00060D3011084D30110B8D301103C2100203F
:104CB000C8D30110D0D30110D8D3011000D40110F3
:104CC00044D401100000E83F04D30110F0B557466A
:104CD00045464E46DE46E0B5036845689246384A8A
:104CE0009946EB1A070088460C0083B0DB1093420C
:104CF00063D048460E1AA94543D059008B422ED89E
:104D0000002951D13300524603CA03C300239B46F6
:104D100001930833C14509D05B464A465E4403CA45
:104D200003C3B342FBD1083345453BD04246AD1ADD
:104D30005D1903CC03C39D42FBD14B46002B02D02F
:104D4000484606F09DF85B463B60019B7D60BB607A
:104D500003B0F0BCBB46B246A946A046F0BD194B15
:104D60001800019306F084F883465246019B5B4489
:104D70000193831903CA03C35B460833C145CBD1F2
:104D8000D2E7591C0133EAD20B00802149058B423E
:104D900003D2DB0018000193E4E71300DB001800E6
:104DA0000193DFE71D00C8E780235B05994200D32C
:104DB0001100CB0018000193D4E7034813F078F9F1
:104DC000FFFFFF0FF8FFFF7F04D00110F0B5DE46B4
:104DD00057464E464546E0B5AFB01C0038AB06928C
:104DE00004CB4F681B788B4699463AAB1B8890469C
:104DF00002933BAB1B78099003934368BB4200D0FE
:104E00006FE3039A3D9B56005B68751C2A0081681E
:104E1000002B00D00AE2914200D062E33D9B9B68E8
:104E2000012B00D05DE35846FDF73EFA0A900028BA
:104E300000D0F3E1012C00D14AE3022C00D188E339
:104E4000BB00012118009A4606F016F80D900028C4
:104E500000D153E35B465B689F4201D000F0F6FB54
:104E6000002F3AD05B469B68524698460D9B0595AD
:104E70001F005344994643469B00049300239A46DF
:104E800007920896002143460C1C002B18D05B4665
:104E9000049A1E685346944600249B00F518664405
:104EA000F61801CD011C0BF056FF011C201C0BF065
:104EB0003BFF041CAE42F4D140460BF0AAFF011C9C
:104EC000201C0BF034FF0CF00DF801C7C244B945AB
:104ED000D8D1079B059D9A46089E504601217043F4
:104EE00005F0CAFF061E00D13DE35B465B68002B60
:104EF00000D18DE1029A5308591C19938B000B9332
:104F0000CB0012939300039A1593D3001193089149
:104F100001231091002A00D0D8E29B0016930023B1
:104F20000493C44B149613935B465A469E68049BA5
:104F3000B00043431268D3180F93002B00D1E7E26F
:104F40001C9300231AAA137501331D9300231E9688
:104F50000E9301210B9805F08FFF0590002800D1DA
:104F600050E3109B089A934200D033E3129805F067
:104F70007FFF05000822002125A80CF0A9F8139B4B
:104F800024AC2493AC4B0822210028A82B930CF0CE
:104F9000A5F8AA4B2C952A93002D00D1C6E2012139
:104FA000159805F069FF071E00D1A1E2029B9E4201
:104FB00000D91E00B30098461A000F9938000CF073
:104FC0008DF84146029B78189A1B002192000CF044
:104FD0007FF80023002200210298009405F096FD3E
:104FE000061E00D1E3E22A00390005F053FE30002E
:104FF00005F046FF380005F043FF059B0026994663
:10500000089B984628686B68011C9A460BF0A3FE23
:105010005146071C50460BF09EFE011C381C0BF03D
:1050200083FE0BF05FFF4A46B3000136D0500835CF
:10503000B045E7D82C9A2A9B002A00D17FE20025B0
:105040002492002B00D104E32B9B210028A8984731
:1050500000232C932A9B002B03D028A903220800AD
:105060009847002D00D0B5E202980BF0D2FE011C4B
:105070008020C0050BF05BFEFE218905071C0BF0AC
:1050800099FE00280BD1089B00259846059E3068A4
:10509000391C0BF060FE013501C6A845F7D8012187
:1050A000119805F0E9FE0C90002800D194E2039BD2
:1050B000002B00D178E101210B9805F0DDFE07906F
:1050C000002800D143E2FE20069980050BF02FFE58
:1050D000011C0BF029FE011CFE2080050BF027FEB1
:1050E000029B071C5B10984600D10AE2012B00D1FD
:1050F000FAE15E1E30000BF08CFE011C381C0BF038
:1051000016FEBA4681460025370028000BF081FEC6
:1051100049460BF020FE00210BF006FE079BAE0077
:1051200001359851AF42F0D11A005746444B4344E1
:105130009B009F50039B01219C469D006544E80015
:1051400005F09AFE1890002800D1DAE1059B1A6854
:105150009246199A012A00D16EE21F1D002317936F
:105160005B466900934601251A911B932DE07B68ED
:10517000301C191C98460BF03BFE00282ED05146DF
:10518000301C0BF0CEFD41468246301C0BF0C9FDB1
:10519000011C50460BF0C8FD00210BF029FE002831
:1051A0001CD0179B48469E000BF033FE189A179BA5
:1051B000905101331A9A9BB217939A4200D130E270
:1051C0003B689A460437AB453CD03E685146301C9C
:1051D000A94601350BF00CFE0028C8D1B246F1E714
:1051E0005346040028001F00149E05F049FE0A944F
:1051F000380005F045FE404605F042FE0C9805F0EB
:105200003FFE059805F03CFE0E9B002B00D0DDE133
:10521000300005F035FE0D9805F032FE0A982FB0EB
:10522000F0BCBB46B246A946A046F0BD013B5A19A8
:10523000F1E5C04681AE0010A50F00106119001005
:10524000FFFFFF3F1B9B00229B46002328922993D0
:1052500000232A93179B9846002B00D1F2E10023EC
:105260009946189B0027002600259A465246AB0017
:1052700098580BF027FE079B80001B582360059B66
:1052800019583C9861600BF0B3FD002802D04B46E2
:1052900023606360BE4200D168E13300220003CA8C
:1052A00003C30135EDB21E002993454500DA68E1DC
:1052B000289FF51BEB109946BE4246D018000AF015
:1052C0009FF81F22121A0023310038005200FCF709
:1052D000DFFE802D00DC87E13D00803529003800AD
:1052E000FCF76EFD78239846803B9A46B844B2445A
:1052F000AE422AD04B461A934346B9461B961793A3
:10530000179B1D000833EE681793AB686868311C63
:1053100098460BF057FD002800D180E12B002A00B1
:10532000083303CA03C32F00083D6968301C0BF023
:105330005FFD0028F2D143463B60179B7E609A4593
:10534000DED11A9B4F4699461B9E039B4B4513D9B2
:10535000310000254E46039F2A9B256065608B42E5
:1053600000D11AE10B00220003CA03C301362993BE
:10537000B74200D919E1289F3A0000210C9B039DF8
:1053800010680131186050680832586008338D4247
:10539000F6D8002F02D0380005F072FD189805F0FD
:1053A0006FFD079805F06CFD0B9E0121300005F0A4
:1053B00063FD0127089D20AB8046994620901F730E
:1053C0005F609D60002800D10AE10121300005F0F6
:1053D00053FD2490824627736760A560002800D1A2
:1053E00007E1029B220000934946069B1CA8FDF79B
:1053F00093FA002800D000E13D9A01215268561E20
:10540000B000079205F038FD44211AAA52182890DE
:10541000051E177029962A9700D1F7E0069B2100F8
:10542000009348463D9A28ABFDF7A8F9002800D024
:10543000D6E6099A0499936817684B430D9A9B0026
:10544000FF188B00D358039C3B60002C0BD000212D
:105450000C9A3B1D10680131186050680832586082
:1054600008338C42F6D8002E10D07B4B079E9C460A
:10547000169B66449C460024B60067442859774929
:105480000BF055FC38510434A642F7D1280005F042
:10549000F7FC504605F0F4FC404605F0F1FC0C9892
:1054A00005F0EEFC059805F0EBFC0E9B002B09D1F6
:1054B0005B46049A5B6801320492934200D933E55B
:1054C000149EA5E60F9805F0DBFCF1E72B0024E520
:1054D0004B46424658460699FBF728FF002800D164
:1054E000AEE45F4B0A9399E60023079A136021E626
:1054F0002C9A2A9B002A46D05A4DA1E5594B0A9373
:105500008CE60798149E05F0BBFC554B0A9375E694
:10551000012105F0B1FC01231AA90F901C900B7515
:105520001D931E96002876D00E9312E54E4805F086
:105530007BFC2C9A002A40D04A4D2A9B80E5002B08
:1055400000D191E528A90322080098478CE5149E14
:10555000DBE74B46424658460699FCF76BF80028B5
:1055600000D16DE4BDE73F4B0A9354E601353100AD
:10557000220028A8EDB2FFF7A9FB299E454500DBD4
:1055800096E62A9F72E6149E002B03D028A90800F5
:1055900003329847324B0A9333E6220028A801369B
:1055A000FFF794FBB74200D8E5E62999D4E6380026
:1055B00005F066FC2C9A002ABED12A9B149E002B73
:1055C000E8D028A9032208009847E3E70F9805F0E0
:1055D00057FC1DE6149EDDE7224B149E0A9310E64D
:1055E000204B149E0A9309E631003800FCF7E8FBD3
:1055F000ABE61C4B149E0A93FDE55346149E1F0018
:105600000A90F5E5174B149E0A93FDE55346149E48
:105610001F00144CEBE5134B149E0A93F8E5179FFB
:1056200089E61B9B00229B46002328922993002396
:105630002A931A9B984612E6002300222892299367
:1056400000232A9300230026994681E6044B0A93FF
:10565000E1E512F061FDC046FFFFFF3F0000204181
:1056600014FCFFFF16FCFFFF20D00110F8B54546E3
:10567000DE4657464E460C00E0B5050000290FD027
:1056800003684668994683689B1B9B108B420DD329
:105690008C0022000021300034190BF019FD6C60E1
:1056A000F0BCBB46B246A946A046F8BD4B46F31A2D
:1056B0009F109B461C4BDA1B8A4232D37A189246C3
:1056C0008F4227D380227F009205974227D2BB00CA
:1056D0001800984605F0CCFB5B460700A200C418F2
:1056E000002120000BF0F4FC3B004A46B14503D0FA
:1056F00002CA02C3A342FBD14B46002B02D048464C
:1057000005F0BEFB53469B00FB182F6047446B60BF
:10571000AF60C5E71700802292059245D7D31F00DE
:10572000D5E7024812F0C4FCFFFFFF1F74D401103C
:1057300084B070B52C9D0591069269682A6807931C
:105740002D9E04908B1A4C2B2AD9502B03D9503202
:10575000914200D06A6072683468131B4C2B17D9D1
:10576000502B04D9230050339A4200D0736000229A
:105770002E6817AB04AD18681900B050186D043BC3
:10578000A05004328D42F6D170BC08BC04B018475A
:1057900014219B103000C91AFFF768FF3468E6E750
:1057A00014219B102800C91AFFF760FFD3E7C046F9
:1057B00084B070B50C9C06920793626823680591CB
:1057C0000D9D0490D11A0C292ED9102903D910331C
:1057D0009A4200D063606A682B68D11A0C291BD9E1
:1057E000102904D9190010318A4200D0696022685A
:1057F000079911600B991960069951600A995960CF
:1058000005999160099999600499D160089ADA60C4
:1058100070BC08BC04B0184704238910591A28002A
:10582000FFF724FF2B68E2E7042389102000591AB0
:10583000FFF71CFFCFE7C04684B070B5189C0591F8
:105840000692616822680793199D04908B1A242B95
:1058500046D9282B03D92832914200D0626069686A
:105860002B68CA1A242A33D9282A04D91A002832C4
:10587000914200D06A6022680D99116017991960F1
:105880000C995160169959600B999160159999601E
:105890000A99D1601499D960099911611399196114
:1058A000089951611299596107999161119999610A
:1058B0000699D1611099D961059911620F99196200
:1058C000049951620E9A5A6270BC08BC04B0184721
:1058D0000A2192102800891AFFF7C8FE2B68CAE730
:1058E0000A219B102000C91AFFF7C0FEB7E7C04687
:1058F00084B070B5289D0591069269682A6807935F
:10590000299E04908B1A442B2AD9482B03D948325C
:10591000914200D06A6072683468131B442B17D917
:10592000482B04D9230048339A4200D073600022E8
:105930002E6815AB04AD18681900B050986C043B84
:10594000A05004328D42F6D170BC08BC04B0184798
:1059500012219B103000C91AFFF788FE3468E6E771
:1059600012219B102800C91AFFF780FED3E7C0461A
:1059700084B070B5209C05910692616822680793F7
:10598000219D04908B1A342B56D9382B03D93832E9
:10599000914200D0626069682B68CA1A342A43D9E0
:1059A000382A04D91A003832914200D06A6022683D
:1059B000119911601F991960109951601E995960D1
:1059C0000F9991601D9999600E99D1601C99D960C9
:1059D0000D9911611B9919610C9951611A995961BD
:1059E0000B999161199999610A99D1611899D961B5
:1059F00009991162179919620899516216995962A9
:105A000007999162159999620699D1621499D962A0
:105A1000059911631399196304995163129A5A6392
:105A200070BC08BC04B018470E2192102800891AD7
:105A3000FFF71CFE2B68BAE70E219B102000C91A45
:105A4000FFF714FEA7E7C04684B070B5109C06921D
:105A50000793626823680591119D0490D11A142957
:105A600036D9182903D918339A4200D063606A687E
:105A70002B68D11A142923D9182904D919001831EF
:105A80008A4200D069602268099911600F991960F3
:105A9000089951600E995960079991600D99996024
:105AA0000699D1600C99D960059911610B9919611A
:105AB000049951610A9A5A6170BC08BC04B0184735
:105AC00006238910591A2800FFF7D0FD2B68DAE762
:105AD000062389102000591AFFF7C8FDC7E7C04602
