:020000041000EA
:1000000000B5324B212058609868022188439860DF
:10001000D860186158612E4B002199600221596106
:100020000121F02299502B49196001219960352056
:1000300000F044F80222904214D00621196600F024
:1000400034F8196E01211966002018661A6600F04E
:100050002CF8196E196E196E052000F02FF8012189
:100060000842F9D1002199601B49196000215960AB
:100070001A491B48016001219960EB211966A021F2
:10008000196600F012F800219960164914480160C1
:100090000121996001BC002800D000471248134993
:1000A000086003C880F30888084703B5996A0420EC
:1000B0000142FBD001200142F8D103BD02B5186610
:1000C0001866FFF7F2FF186E186E02BD00000240BE
:1000D000000000180000070000035F00212200005C
:1000E000F4000018222000A00001001008ED00E03C
:1000F00000000000000000000000000074B24E7A12
:1001000000200420F7010010C3010010C5010010F9
:10011000C1010010C1010010C1010010C101001097
:10012000C1010010C1010010C1010010C701001081
:10013000C1010010C1010010C9010010CB01001065
:10014000CD010010CD010010CD010010CD01001037
:10015000CD010010CD010010CD010010CD01001027
:10016000CD010010CD010010CD010010CD01001017
:10017000CD010010CD010010CD010010CD01001007
:10018000CD010010CD010010CD010010CD010010F7
:10019000CD010010CD010010CD010010CD010010E7
:1001A000CD010010CD010010CD010010CD010010D7
:1001B000CD010010CD010010CD010010CD010010C7
:1001C00000BE00BE00BE00BE00BE00BEEFF3058054
:1001D000103800BEF2EB8871C0060210E006021073
:1001E0003802001090A31AE71E481F49086006C88D
:1001F00081F3088810471D480068002801D019487D
:10020000F3E70DA40ECC002902D000F012F8F9E7B4
:100210001749184A002000E001C19142FCD116495B
:100220008847164988471649884700BEFDE701C937
:1002300001C29A42FBD37047E0060210C0000020C2
:100240008C2B0020AC3102100000042000000420A0
:10025000AC31021000100420001004200000000047
:10026000704700000000000008ED00E0000000D032
:100270008C2B0020144E02208D270110A13E00106F
:100280004D270110F8B5C0460448054B10B5834210
:1002900003D0044B002B00D0984710BD8C2B0020BE
:1002A0008C2B00200000000006480749091A8B101B
:1002B000C90FC91810B5491003D0044B002B00D04A
:1002C000984710BD8C2B00208C2B002000000000D4
:1002D00010B5074C2378002B09D1FFF7D5FF054B4C
:1002E000002B02D0044800E000BF0123237010BDA2
:1002F000582F00200000000058C90110054B10B510
:10030000002B03D00449054800E000BFFFF7CCFFF5
:1003100010BDC046000000005C2F002058C901102D
:10032000F8B54746CE4680B51F00C36844201E5C22
:10033000B96D002E0CD000200D68002D04D04C6843
:10034000A24206D0002C04D0013008318642F3D8F6
:10035000002562229C5A002C44D0089A2E68002066
:10036000156852685B6E90469946305610F04CFC0A
:10037000291C10F0CCFB414610F0E3FB4B461B68F8
:10038000F860BB60012C2DD00120305610F03CFCF1
:10039000291C10F0BCFB414610F0D3FB4B465B68B8
:1003A00078613B61022C1DD00220305610F02CFCED
:1003B000291C10F0ACFB414610F0C3FB4B469B6878
:1003C000F861BB61032C0DD00320305610F01CFCEB
:1003D000291C10F09CFB414610F0B3FB4B46DB6838
:1003E00078623B620020C0BCB946B046F8BDC0464A
:1003F00010B50A6803681000984710BD10B50400D6
:100400000800110000681A6809682368984710BD41
:1004100010B5041E10D000290ED00131081801219A
:100420000AF020FC031E07D0621C12186042104024
:10043000821EC31A138000E0002010BD10B5831E79
:100440001B88C01A0AF012FC10BDC04610B508681F
:100450000AF00CFC10BDC046030010B510008A0065
:1004600003499B00591810F02FFD002010BDC04615
:10047000A0DD0110F0B5DE4657464E464546E0B5D4
:100480001B68056887B00193AB680F009B46EB685B
:10049000594638681C6A16000EF0D6FE604359466D
:1004A000070030680EF0D0FE4443A2460023BA4451
:1004B00099465A46BA4534D9002A32D04B469C0058
:1004C000019B00269C4601236444984605E0AA68E7
:1004D000731C043493421AD21E006B6828689B5D1B
:1004E0000394DB190593434604938368002B1AD0C9
:1004F000C36804AA9B4605A903ABD8470028E6D0E9
:1005000007B0F0BCBB46B246A946A046F0BDEB68BA
:100510001B6AFF18BA4504D94B46B14601339944CA
:10052000CAE70020ECE717F083FCC046F0B5DE46D2
:1005300057464E464546E0B593688BB0040004919B
:1005400050698749059319F035FE23002269002878
:1005500000D08CE09146002A00D180E000220024E7
:1005600090464A469A46029203948022029BD20009
:100570000093934200D90092009C059B20005843B1
:10058000012180000AF06EFB0190002800D1E2E01A
:10059000534642469B68079208940990002B00D16D
:1005A000DBE053465046DD6808AA09AB07A9A84717
:1005B000029B002B44D00026049A00251268FF27D6
:1005C0009346B146039B9B009B44019B585910F0F6
:1005D0006FFB0400000A384010F011FB614910F075
:1005E0009CFA614910F0ADFA061C200C384010F05E
:1005F00006FB5C4910F091FA5C4910F0A2FA011C6C
:10060000301C10F087FA061C2000384010F0F7FA72
:10061000544910F082FA564910F093FA011C301C2C
:1006200010F078FA5B46585101239C46009BE14448
:1006300004359945C9D31A009446039B6344039338
:10064000029B009A01989B1A02930AF00FFB8023E9
:10065000DB009C4653461B69E044984585D3002047
:100660000BB0F0BCBB46B246A946A046F0BD9346CF
:10067000002AF4D0002292465A4601925246D346AE
:100680009A46059C02928022019BD2009846934292
:1006900000D9904640466043012180000AF0E2FA0A
:1006A0000090002857D05A465346079242469B680E
:1006B00008920990002B50D053465046DD6808AA96
:1006C00009AB07A9A847019B002B34D00026049A48
:1006D000029B15689B00ED18A146FF2734002E00F1
:1006E000009AA300D05810F0E3FA0500000C38403F
:1006F00010F085FA1B4910F010FA3060280A3840D3
:1007000010F07DFA174910F008FA706028003840A0
:1007100010F075FA134910F000FA0134B0600C368D
:10072000A045DDD8029A434694465B0043449C446E
:1007300063464C4602934246019B00989B1A0193E4
:100740000AF094FA8023DB009C4653461B69E3447D
:100750005B4598D883E7074882E717F069FBC046F6
:1007600078C9011000007F43A245163F8716993EC5
:10077000D578E93D16FCFFFFF0B557464E46DE46FC
:100780004546E0B507009BB0101C19931A007B6822
:100790000E1C002B00D164E15310099310F08EFA67
:1007A000B44AB54B0EF0C7FF0400301C0D0010F02A
:1007B00085FA0B000200290020000EF09EFF0FF0CA
:1007C0000BF90FF0BBF8041C10F078FA1690179193
:1007D000211C201C10F0B5F9099B10909B00089378
:1007E000002312971193129B099D1A689C68119B14
:1007F000042163432800159218930AF033FA042168
:10080000019028000AF02EFA0421029028000AF034
:1008100029FA0421039028000AF024FA04218346CF
:1008200028000AF01FFA0421804628000AF01AFA6C
:100830008246002D00D1FAE019980EF0F3FF020075
:100840000B000EF051FF0A900B91169817990200B9
:100850000B000EF049FF0C900D91FE20109D8005BD
:10086000291C10F054F910F029FA0B0002000EF0C8
:100870003BFF002700260E900F91281C10F01EFA57
:100880005B46B146C346B84606900791139414934D
:1008900048460EF0C7FF02000B000EF025FF0022B5
:1008A000764B0EF021FF734A734B0EF044FF0A9A09
:1008B0000B9B0EF022FF0FF079F80FF03FF810F0CD
:1008C000FDF90C9A0D9B0EF036FF069A079B060069
:1008D0000F000EF009FF0022684B0EF005FF0FF02D
:1008E0002DF8041C011C109810F017F94246019BCA
:1008F0009850201C10F0E2F902000B0004000D00DB
:100900000E980F990EF0F9FE0FF018F84246029B70
:1009100098503200069807993B000EF0DCFE00224A
:10092000564B0EF0E1FE8022120694460B00634403
:10093000059304902200049805992B000EF0DDFE2B
:100940000EF0FCFF4246039B985001239C46033364
:10095000E1449C46099BE0444B4599D1149B139C70
:10096000D8469B46002C62D01599189A8946930068
:100970009944A3189B00CE180696002443461959A3
:10098000029B185910F0DDF853461959039B051CBA
:10099000185910F0D6F8011C281C10F0BBF84B4673
:1009A000196810F0B7F85B4618514346051C1859F2
:1009B00010F084F902000B000EF096FE0600281CD1
:1009C0000F0010F07BF902000B00300039000EF030
:1009D0008BFE5346060018590F0010F06FF9020005
:1009E0000B00300039000EF07FFE019B0600185905
:1009F0000F0010F063F902000B00300039000EF018
:100A00009AFE0EF09BFF4B461860434652461B5918
:100A100013515B4642461B591351089B04349C42B8
:100A2000ACD104239C46069BE1444B45A5D10198DB
:100A30000AF01CF902980AF019F903980AF016F95D
:100A400058460AF013F940460AF010F950460AF0E9
:100A50000DF9129B119A5B6801321192934200D9F1
:100A6000C1E600201BB0F0BCBB46B246A946A0467A
:100A7000F0BDC046182D4454FB2109400000F03F52
:100A8000F0B557464E46DE464546E0B507009BB0FA
:100A9000101C18931A007B680E1C002B00D176E105
:100AA0005310079310F00AF9BD4ABE4B0EF043FEF7
:100AB0000400301C0D0010F001F90B0002002900A9
:100AC00020000EF01AFE0EF087FF0EF037FF041C18
:100AD00010F0F4F814901591211C201C10F031F83E
:100AE000079B3C009B001993002317900E932368EB
:100AF000A56813930E9B079E6B4304213000169349
:100B00000AF0B0F80421019030000AF0ABF804219B
:100B1000069030000AF0A6F80421834630000AF05F
:100B2000A1F80421824630000AF09CF80421070055
:100B300030000AF097F88046002E00D10DE1189899
:100B40000EF070FE02000B000EF0CEFD0890099131
:100B50001498159902000B000EF0C6FD0A900B9137
:100B6000FE20179E8005311C0FF0D1FF10F0A6F873
:100B700002000B000EF0B8FD0C900D91301C10F02F
:100B80009DF8524600231092424699469846A24646
:100B9000029003910F951197129240460EF042FE7B
:100BA00002000B000EF0A0FD00227F4B0EF09CFD1A
:100BB0007B4A7C4B0EF0BFFD089A099B0EF09DFD11
:100BC0000EF0F4FE0EF0BAFE10F078F80A9A0B9BC5
:100BD0000EF0B1FD029A039B06000F000EF084FD9B
:100BE0000022714B0EF080FD0EF0A8FE041C011CCB
:100BF000FE2080050FF091FF4A46019B9850201C73
:100C000010F05CF802000B0004000D000C980D9928
:100C10000EF073FD0EF092FE4A46069B985032008D
:100C2000029803993B000EF056FD00225E4B0EF039
:100C30005BFD8022120694460B00634405930490EA
:100C40002200049805992B000EF057FD0EF076FE59
:100C50005B464A46985001239C460333E0449C4639
:100C6000079BE144434598D1129B0F9D9846109BEA
:100C70005446119F9A46002D6FD01399169A8946B3
:100C80009446930099445B4665448C46AD000293BC
:100C9000199B654408950A94454654469A46D3469E
:100CA0000026A846A246069BB95998590FF049FF5D
:100CB00043469959029B041C98590FF042FF011CAE
:100CC000201C0FF027FF4B4619680FF023FF5346F7
:100CD00098510FF0F3FF0400B8590D000FF0EEFF2C
:100CE00002000B000EF000FD02000B0020002900A6
:100CF0000EF0F1FC4346040098590D000FF0DEFFA2
:100D000002000B00200029000EF0EEFC019B040005
:100D100098590D000FF0D2FF02000B0020002900AF
:100D20000EF009FD0EF00AFE4B4642461860BB5914
:100D3000935153469B59BB5104365E45B3D10423AE
:100D40009C46089BE14454464546DA464B45A6D1AD
:100D5000029B90469B46A2460A9C019809F086FF9A
:100D6000069809F083FF584609F080FF504609F0C5
:100D70007DFF380009F07AFF404609F077FF0E9BAF
:100D800001331A000E936368934200D9AFE6002046
:100D90001BB0F0BCBB46B246A946A046F0BDC0465B
:100DA000182D4454FB2109400000F03F012A07D0D0
:100DB000022A09D0032A01D0002A03D0002070475C
:100DC0000160FBE70260F9E70B680360F6E7C046E5
:100DD000012A07D0022A09D0032A01D0002A03D011
:100DE000002070470160FBE70260F9E70B680360D1
:100DF000F6E7C046012A07D0022A09D0032A01D00B
:100E0000002A03D0002070470160FBE70260F9E789
:100E10000B680360F6E7C046012A07D0022A09D012
:100E2000032A01D0002A03D0002070470160FBE7AD
:100E30000260F9E70B680360F6E7C046F0B5DE46EE
:100E400057464E464546E0B50C0083B000286BD0AF
:100E5000036A1B68002B67D01D68002D64D09F6853
:100E6000002F61D01A69002A5ED05E68002E5BD028
:100E7000DA68002A58D05B69002B55D049680129EF
:100E80003DD1A368416898468B422BD19E423FD109
:100E9000B24238D123689B46002B00D184E0002366
:100EA0000193D9465C46002609E0296820680FF0C6
:100EB0002EFE2060013604340435B04537D9002CAD
:100EC000F3D10121042009F0CDFE8246002825D06F
:100ED000296800680FF01BFE53461860504609F061
:100EE000C5FEE7E71A00374809F094FE1820404293
:100EF00003B0F0BCBB46B246A946A046F0BD32489E
:100F000009F088FEF2E73100304809F083FEEDE792
:100F1000320019002E4809F07DFEE7E75B46002B02
:100F200002D0019B002B48D11E204042E0E7002464
:100F300015E0FE213D688905281C0FF031FE0028D0
:100F400006D14B46291C18680FF0FBFD4B46186074
:100F500004239C460134E1440437A04519D94B468B
:100F6000002BE6D10121042009F07CFE051ED5D01E
:100F7000FE213E688905301C0FF012FE002804D1C6
:100F80002868311C0FF0DDFD2860280009F06EFE96
:100F9000DEE75B46002B05D0019B002B02D05846B4
:100FA00009F064FE0020A3E743460121980009F000
:100FB00059FE01238346019373E7584609F056FE14
:100FC000B2E7C046D8C9011084C9011068CA01102F
:100FD00020CA011082B0F0B545464E46DE4657465F
:100FE000E0B585B00F93531E8846D90FC918109BE2
:100FF000039299460F9B0500009301231A40491064
:101000000192884570DA4B4644468B4681460293EE
:10101000671C7D006B1EDE003F014F444E44796823
:1010200070689A460FF0C4FDE4004C44002807D0D5
:10103000330006CB06C4D34544DD55462C00E7E714
:101040003B0006CB06C4AB45F8DC029BBB462F0039
:101050004D469946019B002B06D103980238C10FDB
:1010600009184910B94233D0791ECE0F7618761080
:1010700047450BDC15E02300721E03CB03C7D30FDB
:101080009B1837005B10B0451ADA1E00F4002C19CB
:10109000FF0049466068EF190FF0A0FD0028EAD173
:1010A000BB465B46009A1A604A465A6005B0F0BCDF
:1010B000BB46B246A946A046F0BC08BC02B01847E1
:1010C000A346EEE7029B4D4657469946B346C1E715
:1010D00078000130C10069185C460E008B460CCECA
:1010E0000CC43E000700C3E74346DB009B46019B60
:1010F0008344002BD5D14746AFE7C046F0B54546FF
:101100009846130057464E469246DE46013BDA0F9C
:10111000E0B5D218574601230500894687B0521022
:101120001F40914259DA5346049343460E008146CC
:10113000019202970391059300E02E00771C7D0039
:10114000FF006B1E4F449C009A463B684C449846F7
:1011500023684146181C9B460FF040FD002802D032
:10116000D846270055464B464246B600F250019BF2
:10117000AB42E2DC039B2C004D469946049BBB46E8
:101180009A46029F059B9846002F2CD0621ED60FD0
:10119000B618AA4676104C4509DC14E0721ED30F2F
:1011A0009B1825605B103400B1452CDA1E00B70097
:1011B00057443D68A4004146281C54440FF0F8FCF5
:1011C0000028EBD1A3465B4642461A6007B0F0BC4C
:1011D000BB46B246A946A046F0BD8B009B46834461
:1011E000002FF0D14C4651460239CA0F5218521006
:1011F0009442CBD15B4664000134A200AA18116866
:1012000093461960C2E7BB46DDE7C046F8B54E46D7
:10121000DE46574645468146E0B588423FD003004A
:10122000083399423BD008235B429B4606008B441F
:101230000FE04B46F21A082A37DD0823981A494670
:10124000301819F041FC4B4652465D601A60B345B8
:1012500025D0B0464446A368E5689A464B46083612
:101260005968281C37000FF0B9FC0028E1D16168EB
:10127000281C0FF0B3FC00280CD0230022000833F8
:1012800003CA03C32700083C6168281C0FF0A6FCB2
:101290000028F2D153467D603B60B345D9D1F0BC04
:1012A000BB46B246A946A046F8BD082ACBD1434664
:1012B0004A46083303CA03C3C5E7C046F0B5DE4655
:1012C000574645464E46E0B585B082468B4602926B
:1012D0000D1A402D00DCBBE0029B002B00D198E0F2
:1012E000534604330393029B013B029353465E68CB
:1012F00004235B425B4498461B68EC1099465346B6
:10130000A40054442568301C291C1F680FF050FCB1
:101310004946002850D0281C0FF04AFC00286FD105
:101320004946301C0FF044FC5346002851D11E6042
:101330005F6043461B689846039B391C99465B4691
:10134000301C043B01930FF049FC4B461C1D002848
:1013500030D025000434231F1F68311C381C0FF0C7
:1013600027FC0028F5D12C004146301C019D0FF0D0
:101370001FFC002808D0043D2B68311C181C98461F
:101380000FF02CFC0028F6D1A5422BD923004246B1
:1013900004C3994653462F601E6867682B1F01934C
:1013A0001B68391C301C98460FF018FC4B461C1D5E
:1013B0000028CED14C46D7E7301C0FF0F9FB53463E
:1013C0000028B4D14946281C0FF0F2FB002817D0A2
:1013D00053464A461A6043461F605346B8461E6845
:1013E0005F68A9E759462000029AFFF767FF534656
:1013F000E51A402D2CDD029B002B0BD0A34673E792
:1014000053461D6027605F681E6843461B68984608
:1014100092E70C00AD10AE1E761000E0013E524681
:10142000B300D35831002A005046FFF767FE002E64
:10143000F4D1043C52461268236822605246A51A31
:1014400000215046AA10FFF759FE043C042DF1DCA0
:1014500005B0F0BCBB46B246A946A046F0BDC046AA
:10146000F0B5C646884600B51F00066905001400A1
:1014700009F0CCFB434618605960164873689847DA
:1014800000281ED12100002033699847002811D17F
:101490002B7B0024002B05D10FE001342A7BE3B223
:1014A0009A420AD9A300F958AB687269185D90474F
:1014B0000028F2D00320404200E0002080BCB84663
:1014C000F0BD054B0100180009F0A4FB06204042C6
:1014D000F4E7C04611040010B0CA0110F0B5574639
:1014E0004546DE464E460400E0B58BB0039092467A
:1014F00008001D1C0C1B802C00DCF0E0002A00D131
:10150000F4E0039B26000833059306936B46574689
:10151000DD77039B049108219C4636114942F60071
:10152000DA6866448C469346726858469246049A36
:1015300051466244914652681D0090461A685C68A4
:1015400002920FF04BFB013F4146002800D184E09E
:1015500050460FF043FB2B00002800D084E04146AA
:1015600058460FF03BFB039B002852D11800059D05
:1015700006CD06C0029ADC609A604B465B68059017
:101580009846049BBB460293039B069E9A463500F1
:10159000261C53465C68301C211C2F000FF01EFBDC
:1015A0000837002809D03D0008373B1F1E68211C62
:1015B000301C0FF013FB0028F5D14046211C0FF022
:1015C000F7FAA946029D103D00282ED02F00211CBD
:1015D0006868083D0FF0ECFA0028F7D13B0002974D
:1015E000994527D21A004B4614004D461B6803CC80
:1015F00003C51360130056604A46083B5B68D66813
:101600009846C6E7414650460FF0E8FA039B00288B
:101610002AD018004D4606CD06C04A4602995460AD
:10162000A0460590DC681160ABE7029B083B029383
:101630009945D7D35F466B463A00DB7F484604990D
:10164000FFF74CFF4B46039A9E1A802E47DD002F72
:1016500017D04B46049313005DE758460FF0BEFACF
:101660000028CFD0039B81E71800350006CD06C0C7
:101670007460DC684B46029A5B680590984632605D
:101680007FE734001500E410A71E7F1008AE00E0CD
:10169000013F3200FB00EB1803CB03C2736822004A
:1016A0000093390028003368FFF794FC002FEFD136
:1016B0004C46039D083C2200330003CA03C32300A9
:1016C0002A0003CA03C37368671B00930021280024
:1016D0003368FA10FFF77EFC083C082FEBDC0BB0F8
:1016E000F0BCBB46B246A946A046F0BD8146039D6C
:1016F000C9E7C046F0B55746DE464E464546E0B51A
:1017000046688246B7000121380087B009F0AAFA7E
:10171000051E00D193E053465C68A64200D08CE0E1
:10172000002C7DD09E68A34630000FF068FAB3000D
:101730009946019300239846534631007A19009246
:101740001A684E462C0092468946029003950495ED
:1017500005934B460020002B0AD043469D0053467C
:10176000002055449F1902CD0FF0D4F9AF42FAD1B1
:1017700002990FF0D2F9019B01C49C46009BC8441A
:101780006644A342E5D1049B5C469B46059B5246BA
:101790009A4600234E4699464B46904673439B001B
:1017A00098444346039D0195002B27D05B461F6854
:1017B00000230093002E0ED0454600242868391CD3
:1017C0000FF0A5F9013401C5B442F7D3009B002BFB
:1017D00021D153465C6801239C460333E1449C4677
:1017E000E344A1451BD253469E681A684B46904677
:1017F00073439B0098444346002BD7D10121B0008E
:1018000009F030FA8046002816D05B461F68012395
:101810000093002ED0D1404609F028FAD9E7019D67
:101820000024280009F022FA200007B0F0BCBB46D3
:10183000B246A946A046F0BD019D024CF1E7024C1C
:10184000F2E7C04614FCFFFF16FCFFFFF0B5DE46D2
:1018500057464E464546E0B5A7B00E9332AB1B78CF
:1018600010900993319B03915B0813930D00013392
:101870000021160021AF082222A89C0007930FF038
:101880001DFB3A00C74B21941F931CAB03CA03C333
:10189000C54B1E9300232093319BAB4200D968E1D6
:1018A000109A1319043B1B680692159301230C939D
:1018B0000E9A309B00219B1A9B001A00300098461C
:1018C0000FF0FCFA039B002B00DC02E1109A319B25
:1018D0009446069A9BB2934611935B080133089392
:1018E000079BDB000493319B9B000F93231F6344F2
:1018F00014930E9B5C449B009B4400230293AB4BD0
:1019000012940A93AA4B0B933199029B8C461A00AE
:101910000D000399624405928A4200D9CD1A079BB3
:10192000089A934200D022E1049809F097F918AB85
:101930009A4604000822002119A80FF0BFFA0A9B5A
:10194000524618930B9BFB603B0003CA03C3994BA1
:101950003C61BB60002C00D1E1E001210F9809F04F
:1019600081F98146002800D1D3E0319B9D4200D906
:101970001D00029BA8009900109B02009C460D9040
:10198000614448460FF0A0FA319B0D985A1B002184
:10199000920048440FF092FA53460022009300212F
:1019A0000023319808F0A2FF051E00D1D0E049467F
:1019B000220009F05FF8280009F058F9484609F0BC
:1019C00055F9049B9A46069BA24499464346B04665
:1019D0000D9320686668011C0FF0B3F8311C051CDC
:1019E000301C0FF0AEF8011C281C0FF093F80FF01C
:1019F0006FF94B46083401C399465445E9D10D9B14
:101A0000259A46469846BB68002A00D190E00024FB
:101A10001792002B00D1C2E0FB68380017A9984745
:101A200000232593BB68002B03D003223900380024
:101A30009847002C00D089E011980FF0E0F80FF0E3
:101A40003DF90B0002005C4900200DF056FE069C9B
:101A5000129BB1469A4626000D0004003068011C16
:101A60000FF06FF80FF02AF922002B000DF063FE43
:101A70000DF064FF01C65645F0D1309B0E9A4E46DC
:101A80000024934210D94B461E595B461D59311C08
:101A9000281C0FF0A3F8002800D1351C4B461D511F
:101AA0000434A045EFD14E46099B002B2ED00C9B51
:101AB000002B02D0149B159A1A60139A029B94462D
:101AC0006344029300230C93029B039A934200DA2F
:101AD0001AE70024209B1E9A002B06D01893002A98
:101AE0005DD01F9B18A91CA89847002320931E9B1C
:101AF000002B03D01CA9032208009847200027B020
:101B0000F0BCBB46B246A946A046F0BD059B029379
:101B1000DAE7259ABB68002A12D0284C78E72848D3
:101B200009F078F8259A002A18D0244CBB686FE792
:101B3000002B00D180E703223900380098477BE76B
:101B4000002B03D039003800033298471B4CC1E703
:101B5000484609F08BF8259A002AE6D1BB68002B8D
:101B6000F4D00322390038009847144CB2E7154CE2
:101B7000B0E70421079809F075F8209B06902090A3
:101B8000002B07D016931E9B002B08D01F9B16A975
:101B90001CA8984700230C930023159388E616F0A1
:101BA00047F9C0464D040010D10D00106DAC001077
:101BB000F1030010AD0D00100000F03F16FCFFFF18
:101BC0000CCB011014FCFFFFF0B5DE464E46454637
:101BD0005746E0B51E00436804000D00934689B0E7
:101BE000012B00D0B8E04B68012B00D0B4E0936823
:101BF000012B00D0B0E053687068013B984200D0E0
:101C0000AAE0B368012B00D0A6E0A2688B689A42D4
:101C100000D0A1E00121800009F024F80390002801
:101C200000D195E05B46586801210138800009F039
:101C300019F80190002800D18CE05B465B68AA6827
:101C40000293013B9846002A2ED02B6805920493FC
:101C5000236807960693002399469B009A465246AE
:101C6000049B9E58029B012B16D05B460024002546
:101C70001F68AD007859311C0EF0A0FF002806D077
:101C80007B195868311C0EF0A9FF002845D101349A
:101C9000A4B225004445ECD34B46059A01339BB2D0
:101CA00099469342D9D3079E029B012B1DD03368DE
:101CB00000249946002300259A464F46019BAD001B
:101CC0005E5900217B19301C99460EF069FF0028EF
:101CD0001AD1039B311C58590EF01FFF4B4601349B
:101CE000A4B2250018604445E8D3019808F0BEFF6F
:101CF0000024039808F0BAFF200009B0F0BCBB46EE
:101D0000B246A946A046F0BD4B4652460134A4B2A5
:101D100025001A604445D1D3E7E75246039B5C197E
:101D2000069B206899580EF0F5FE019BFE219C460B
:101D300020606544286889050EF0ECFE4B46059A44
:101D400001339BB299462860934200D285E7AAE707
:101D5000024CD1E7014CCCE7014CCDE716FCFFFF6C
:101D600014FCFFFFF0B54546DE4657464E46E0B54B
:101D70008DB0069316AB14001A8843688846049207
:101D8000012B00D023E14B68012B00D01FE152084A
:101D9000531C99468B68170005924B4500D016E1FD
:101DA0006368012B00D012E1A368994500D00EE1D1
:101DB00003680993002B00D1F6E00B68002B00D1DB
:101DC000F2E02368002B00D1EEE083689A46049B82
:101DD0009A4500D2DCE000D99A46049B0121180004
:101DE0008000079308F03EFF021E089000D1DBE060
:101DF00007980023002806D0FE21890501339BB2F5
:101E000002C29842FAD104980EF0FEFE051CFE2094
:101E1000069980050EF081FE011C281C0EF091FE33
:101E2000011CFE2080050EF078FE25680024061CAB
:101E300020000EF0E4FE311C0EF083FE230001347E
:101E400001C5A4B29F42F3D1012104209B4608F0B2
:101E500009FF0390002800D1A8E05346002B00D1D1
:101E6000B7E0099D0024AC462E009F006744201C6B
:101E700002CD0EF04FFEAF42FAD1041C50460EF0D8
:101E8000BEFE011C201C0EF048FE039B041C1860C3
:101E90003068211C0EF03BFE01C6B742F8D14B461C
:101EA0000121D80008F0DEFE059B040001339945AE
:101EB00000D087E0049E0121B00008F0D3FE051E8B
:101EC00000D190E0564500D95646B7003A0009992E
:101ED00028000EF0F9FF049B00219A1B9200E819DC
:101EE0000EF0ECFF0BAB00930022002300210498BE
:101EF00008F0FCFC061E00D172E007980EF084FE8C
:101F000006990EF01EFE011CFE2080050EF005FE57
:101F1000290022008146300008F0ACFD300008F0B6
:101F2000A5FE280008F0A2FE43461B68250098463F
:101F3000002300269A46049409E0011C0EF0EAFDF5
:101F40004346286001C398460136B6B20835534669
:101F500028686C68011C6B600EF0F3FD211C071CE7
:101F6000201C0EF0EEFD011C381C0EF0D3FD49467E
:101F70000EF0E7FD2860B345DFD14346049C1860AE
:101F8000200008F073FE0025039808F06FFE0EE0B5
:101F9000534650469BB201218000079308F062FE31
:101FA000021E089000D023E7104D03E00F4D089863
:101FB00008F05CFE28000DB0F0BCBB46B246A94656
:101FC000A046F0BD0A4D200008F050FEDCE7094DA8
:101FD000F0E70021081C0EF0A0FD039B18605EE7EF
:101FE000280008F043FE014DEDE7C04616FCFFFF58
:101FF00011FCFFFF14FCFFFFF0B54E46DE465746CE
:102000004546E0B59BB01E1C24AB1B7889469B4619
:1020100025AB1B780A900992002B00D05AE3099B4C
:10202000C3495C69200018F0C5F8002800D017E10A
:10203000099BDB69002B00D09AE35B46002B01D0A3
:1020400000F051FCFC21099B8905301C9D695F6AE9
:102050000EF077FD291C041C0EF0AAFD002801D10A
:1020600000F091FC38000EF0CAFD211C0EF069FD55
:10207000311C0EF052FD0EF021FE0022AD4B0DF092
:1020800033FB0DF00BFC01231490421C49460E68F3
:102090000A994D68002D00D1DAE01499B146890003
:1020A0001291D11A89001691990015910021109270
:1020B0000B91179611930A9A936812689B469B009E
:1020C0009A4651460B9B4B43D31800220C9307931F
:1020D0000D92002B00D17AE14B46069300230E931C
:1020E0004B46002B00D181E158460EF088FD5B463F
:1020F000041C002B00D1FDE00025079F3E00574443
:1021000001CE011C0EF01DFD011C281C0EF002FD6D
:10211000051CBE42F4D1211C0EF0FFFC0EF0D8FDD0
:10212000069B002118604B461E68301C0EF038FDDF
:10213000002800D0D9E0311C301C0EF002FD311C0B
:102140000EF0FFFC011C8046301C0EF0FAFC0890DB
:102150000C9A53469446634405934B4600260F93CE
:10216000231C91469A46341C4B4620CB291C281C24
:1021700099460EF0E6FC291C0EF0E3FC011C071C3E
:10218000201C0EF0C7FC391C041C281C0EF0D9FCC6
:10219000011C301C0EF0BEFC059B061C9945E3D1CA
:1021A0000F9B99465346A246191C50461C1C0EF024
:1021B000B4FC211C051C301C0EF0AFFC061C414673
:1021C000281C0EF0AAFC4B4608995860301C0EF0F3
:1021D000A4FC59490EF09BFC4B464C46099A98606A
:1021E000536A92880C34042A00D107E135220999F8
:1021F0000C988A5C0193109B02920093220059462E
:10220000119BFFF723FB002800D0ADE23423099A8D
:10221000D35C002B00D097E0129BE518069BA946E3
:10222000002B03D00E9B002B00D0C8E0079B002B97
:1022300003D00D9B002B00D0C5E00A9B0B9A5B6876
:1022400001320B92934200D935E7179EAD1BAD10BA
:1022500028001BB0F0BCBB46B246A946A046F0BD64
:102260002000364917F0A6FF002831D1099BDB6911
:10227000002B00D025E35B46002B00D019E3FC21A6
:10228000099B8905301C9F695C6A0EF05AFC391C59
:10229000051C0EF08DFC002800D131E320000EF06B
:1022A000AEFC291C0EF04DFC311C0EF036FC0EF07D
:1022B00005FD204B00220DF00EFA0DF0EFFA431C45
:1022C000013000D1012362080132D11A1491DDE6F8
:1022D0005B46002B00D0FFE2099B5A6AD30F9B1884
:1022E0005B105A1C14930123D0E6154B0893154B31
:1022F00098462DE7011C00200EF00FFC051C0EF087
:10230000E7FC069B002118604B461E68301C0EF04F
:1023100047FC002800D198E10020211C0EF0FDFBB5
:10232000074B051C0893074B061C984647E7C04619
:1023300020CB01100000E03F0000404024CB011002
:10234000C21601006142A20D149B002B00D163E76D
:102350002600129BD74FE518002130680EF020FCB4
:10236000002800D037600436B542F5D1206819A99D
:10237000400040081AF04CFACF49061C0EF0E1FB71
:10238000CE490EF0C4FB011C301C0EF0DAFBCC4928
:102390000EF0C0FB011C301C0EF0D3FBC9490EF03F
:1023A000B6FB061C19980EF02FFC311C0EF0B2FB88
:1023B000C5490EF0C6FB01C4A542D7D12EE7069849
:1023C00008F054FC32E7079808F050FC35E701218B
:1023D000504608F047FC01230D934B46069300231B
:1023E0000E934B460790002B00D07DE60121042080
:1023F00008F038FC012306900E9375E68022DE0F6C
:10240000F618761001369205964200D398E2002E17
:1024100000D129E1B400200008F020FC22000021B6
:1024200082460EF04BFD3523099A5946D35C0C9831
:102430000293536A5246019300960023FFF706FA6F
:10244000002800D098E2012104301394A61008F06F
:1024500009FC00240C900025201C5446AB00E158D8
:1024600001350EF057FBAE42F8D8A246041C3000EE
:102470000EF0C5FB011C0590201C0EF04EFB002544
:1024800000274B468346B146A8463E000893524675
:10249000B300D05859460EF03AFB011C041C0EF054
:1024A00050FB011C071C201C0EF04BFB011C281CC0
:1024B0000EF030FB391C051C40460EF02BFB01369C
:1024C0008046B145E3D8089B05994E4699460EF0E3
:1024D00024FB041C011C0EF034FB211C0EF031FB0C
:1024E0000EF0F6FB00212F1C041C0EF059FB0028F7
:1024F00044D10023D0460F930599381C0EF00DFBF4
:10250000211C0EF00AFB0C9B18604B46D860139BF5
:10251000002B3BD10021081C0EF0FFFA011C051C0A
:102520000EF00FFB041C211C281C0EF0F6FA674964
:102530000EF0EDFA0C9B4C4618604B46109A186151
:10254000119B1434934208D20023159916985144D4
:10255000CA58E25004338342FAD10C9808F086FB43
:102560004346002B02D00F9B002B64D15346002B17
:1025700000D14BE6504608F079FB47E600230C9A61
:10258000D04613604A46D36000230F9300240025F1
:10259000201C4446AB00E15801350EF0BBFAB542B1
:1025A000F8D3A046041C30000EF029FB011C089053
:1025B000201C0EF0B2FA00250027B34605902E1C11
:1025C0004246BB00D05805990EF0A1FA011C0EF04E
:1025D000B8FA041C011C301C0EF09CFA211C061CCD
:1025E000201C0EF0AEFA011C281C0EF093FA0137E5
:1025F000051C5F45E4D3B346089E5846311C0EF0D7
:102600008CFA011C0EF09DFA0021041C0EF0C8FA91
:10261000002814D02E4B0C9A4C4613604A46136186
:10262000119B109A143493428ED30C9808F01EFB21
:102630000F9B002B9AD0404608F018FB96E7281C09
:10264000311C0EF06AFA051C6DE7311C301C0EF0CF
:1026500078FA311C0EF075FA011C8046301C0EF021
:1026600070FA2E1C0890AAE5352209990C988A5C0C
:10267000019302920023002259460096FFF7E6F8E4
:102680001390002849D0069B05009B465B46002B13
:1026900003D00E9B002B00D02EE1079B002B00D116
:1026A000D6E50D9B002B00D1D2E5079808F0DEFAA5
:1026B000CEE5C046FFE6DB2EA8A19D3FF5CA8340CC
:1026C000FBB3C040E09248409B209A3E000040404F
:1026D000000040C044688568012C01D0012D76D1EE
:1026E000FE21099A0A9BD7685D609C608905381CA9
:1026F0000EF056FA002800D091E46C43002C00D173
:102700008DE40A9BA4001D6864192868391C0EF02A
:1027100018FA01C5A542F8D181E40121002008F092
:10272000A1FA01218046042008F09CFA00210C90B7
:10273000081C0EF0F2F9041C011C0EF002FA211C18
:102740000EF0FFF900270EF0C3FA391C041C0EF03E
:1027500027FA002835D00C9B1F604B46DF60012311
:102760000F9300239A46D5E6069B05009B468DE70E
:10277000099A0A989269DBB2311CFDF7FDFF051E2C
:1027800000D065E55B46002B00D0D1E0FC21301C79
:1027900089050EF0D6F9099C051C606A0EF02FFA27
:1027A000A769291C041C381C0EF018FA002800D058
:1027B000D9E0211C381C0EF0C4F9311C0EF0ADF923
:1027C00059E401230F93002305979A4694E62B00C2
:1027D00063435A1E00270792002B00D0B3E00A9AE9
:1027E0001368059301239A461E3398462B00150063
:1027F0005A46B3462600544692460599A2005258BE
:102800002000190006920BE001228A40196811434A
:102810001960844200D189E0089BA9686E6806931C
:102820000CF012FD059A7143944608188300634426
:102830001A68C6170892069A1A60F20E9446811812
:10284000424643461140624633401B185B119B00D1
:10285000FB18891AD8D5012220318A401100043B87
:102860001A68114319608442D6D131000AE001216F
:1028700091401B680B4218D0079A431C824249D9E9
:102880001800D917434644460B401B18C90E5B116C
:1028900042189B002240FB18521AE8D50121203231
:1028A0009140043B1B680B42E6D10400AB686E68A4
:1028B000A3E70A98FEF71EFF002800D1DFE4050019
:1028C000C6E4099A0A989269DBB2311CFEF7D8F87F
:1028D000051E00D1CFE4BBE40A98FEF70BFF0028E9
:1028E00000D1F9E4EBE70A98FEF704FF002801D1D4
:1028F000FFF7A8FB0500ABE4584608F0B7F9CCE6B3
:1029000020000EF07CF9391C0EF01BF9311C0EF082
:1029100004F9CCE45E460A95D346002F02D0380075
:1029200008F0A4F90A9B5C689D68D9E63100A9E724
:102930000A98FEF7DFFE002800D127E7050087E4AC
:10294000164815F041FA1F335C09A400200008F076
:1029500085F9071E03D0220000210EF0AFFA0A9B72
:102960009D685C683BE7211C281C0EF0EAF8311CCE
:102970000EF0D3F8FFF77FFB069B050050469B4601
:1029800008F074F982E638000EF039F9291C0EF0CF
:10299000D8F8311C0EF0C1F8FFF76DFB2CCB0110FD
:1029A000F0B54F46D6464646C0B58946070082B0C8
:1029B00000284CD0C36800259846DB6C002B05D15D
:1029C0001EE04346DB6C0135AB4219D93E69002E4F
:1029D00001D0AB009E594246146D6B01E418E269C8
:1029E0000196A3692900009338004B462469A0474B
:1029F0000028E6D002B0E0BCBA46B146A846F0BD19
:102A000044234246D25C002A1FD04B4600210024BA
:102A10008A4644279B6D0BE0280008F027F94B46B7
:102A200052469B6D9A514246D25D0134A2420CD966
:102A3000E6009D59002DF8D028680028ECD02B7BAB
:102A4000002BE9D008F012F9E6E70020D2E70B20CE
:102A50004042CFE7F0B557464546DE464E46E0B524
:102A600083B00C9B82461500002B00D187E0002329
:102A700000269946019353461C6829786368A2682A
:102A80005A43019B9C4694446346019303290FD00B
:102A900009294ED001292FD03E4808F0BBF80D205F
:102AA000404203B0F0BCBB46B246A946A046F0BDCA
:102AB0000027002A0AD12DE0FF205B4642469854A9
:102AC0006268A36801375343BB4223D92268BB0025
:102AD0009858E9680EF021F80EF042F96B68B0469C
:102AE0009B460EF0B3F82B690136C018FF28E3DCD3
:102AF000C343DB171840E0E7002A0BD06868B30037
:102B0000C018002327689400F958C1500433A34229
:102B1000FAD1B61801239C460C9BE1444B45AAD13F
:102B2000A969019A8B08934201D091422BD10020D0
:102B3000B7E70027002A0AD1ECE77F205B46424630
:102B400098546268A36801375343BB42E2D92268B4
:102B5000BB009858E9680DF0E0FF0EF001F96B68D2
:102B6000B0469B460EF072F82B690136C0187F28DC
:102B7000E3DC03008033E1DA80204042DEE7916944
:102B800000228B08D3D0044808F044F818204042B3
:102B900087E7C04660CB011084CB0110F0B5C64674
:102BA0004D680B00896804004D43017800B5032986
:102BB00027D009290DD001293AD182699108A9426B
:102BC0003CD1186861680EF07FF9002080BCB846DF
:102BD000F0BD8769AF423DD1002FF6D0026945684C
:102BE00090461E687F190020434628560135C01ABA
:102BF0000EF00AF8E1680DF0A4FF01C6BD42F2D163
:102C0000E3E78769AF4225D1002FDED0026945682E
:102C100090461E687F19434628780135C01A0DF08A
:102C2000F3FFE1680DF08DFF01C6AF42F3D1CCE7B1
:102C30000B4807F0EFFF0E204042C7E70321D317F0
:102C40001940891807482A00891007F0E3FF182067
:102C50004042BBE72A003900024807F0DBFFF6E7F5
:102C600018CC0110D4CB0110F0B5DE4657464E46C5
:102C70004546E0B5A5B09B46309B070098461B69CA
:102C8000914605934346187B8A46800107F0E6FF8C
:102C900004900A9007F0BAFF0021082215A80EF050
:102CA0000DF9794B0FAC06931493784B14AEE36097
:102CB0003200230003CA03C3754B3200A360002314
:102CC000404623610CA90AABFEF7CAFB051E1CD0C7
:102CD000139BA268002B07D00B93002A00D1D0E0F1
:102CE0002000E3680BA9984700231393A368002BE7
:102CF00003D00322210020009847280025B0F0BC13
:102D0000BB46B246A946A046F0BD2F9B3200996D46
:102D10004423FB5C504602933C23FB5C01932E9BB7
:102D200000935B46FFF796FE051ED1D10C9E0D9FCA
:102D300043461B699B689847002800D09CE007F039
:102D400065FFFA22801BB9412F9B92009864D964D9
:102D500000230CF09FFA2F9B986307F04FFF831C12
:102D600000D18CE043461B7B002B50D04B46DB0050
:102D70009B46079300239A462F9B049F99460995EB
:102D8000BA681068002875DD00230125043202CAE4
:102D900001334D438342FAD13E78032E0AD0092EE7
:102DA00008D0012E50D00E2531003A4807F032FFEE
:102DB0006D428DE743461B7D1020002B2FD107F07D
:102DC0004DFF01210600280007F04CFF012333735B
:102DD00073604B465A4630609B6DB56079689E5073
:102DE000BA690EF071F8079A4B46944642469B6DBD
:102DF000526863445A6001239C460733E2449C4670
:102E000043461B7B4037E3445345B9D8099D059B96
:102E10000698DB689847049807F028FF58E707F002
:102E20001DFF01210600A80007F01CFF01233373DA
:102E300073604B465A469B6D3060B5603100380078
:102E40009E50FFF7ABFECEE7102007F007FF0121F1
:102E50000890A80007F006FF4B465946089A9B6D5C
:102E600016735660956010605A507968BA690EF012
:102E70002BF8B8E701258FE703256D4272E70500BF
:102E800070E714F0D5FFC0463D040010F1030010B8
:102E9000AD0D001018CC0110F0B5DE465746454682
:102EA0004E46E0B5B5B00C933EAB10CB05911B7808
:102EB0000F92109323690D9412930500207B8001DB
:102EC00007F0CCFE002108220E90179025A80DF0E7
:102ED000F5FFE24B24AA13932493E14B22931FABFB
:102EE00003CA03C3DF4B20002193002324AA2393AA
:102EF0001CA917ABFEF7B4FA8246002800D0C7E140
:102F0000382216AB9B181B78092B03D0032B01D05A
:102F100000F0A5FC07F07AFE0022AB690A9014933A
:102F2000259B0B9107931192002B01D100F088FC97
:102F30002B6C2898DC68279B9B460DF065FEAB6CDC
:102F4000C949DF68A368061C6069069317F032F967
:102F5000059B002800D1B8E11A690392002A00D12C
:102F6000E8E0002208920592524604961E0002975D
:102F700015928023039ADB0092469A4200D99A4622
:102F80005346069801215843800007F06BFE0190DC
:102F9000002800D16EE1059AB3681A925246189043
:102FA0001992002B01D100F060FC18AB3000F468DE
:102FB00019AA1AA9A047039B002B00D1A6E0089BE1
:102FC000079C9C4664440025FF27A146099631E0F2
:102FD000C321049809060DF0E3FD00283CD0029BB4
:102FE0004046002B00D01BE20DF00EFE8621C905E5
:102FF0000DF08DFD0DF02AFE4B46187020000DF0EF
:1030000003FE8621C9050DF082FD0DF01FFE4B4623
:10301000587030000DF0F8FD8621C9050DF077FDE0
:103020000DF014FE4B46987003239C460135E14495
:10303000AA4562D9019AAB00D0580DF039FE0600BE
:10304000030C040A3B405846884998463C403E40A1
:103050000DF0A6FD0028BBD140460DF0D0FD804606
:1030600020000DF0CCFD041C30000DF0C8FD029BCB
:10307000061C002B00D0DEE140467D490DF04DFDE1
:103080007B498046201C0DF048FD7949041C301C0A
:103090000DF043FD061C594640460DF03EFD0DF077
:1030A0005FFE049B011C181C98460DF033FD0DF0CB
:1030B000CDFD4B4659461870201C0DF02EFD0DF02D
:1030C0004FFE011C40460DF025FD0DF0BFFD4B46A7
:1030D00059465870301C0DF020FD0DF041FE011CCA
:1030E00040460DF017FD0DF0B1FD4B4698700323DF
:1030F0009C460135E144AA459CD8089A534694461B
:103100005B0053449C446346099E08935246039BCC
:1031100001989B1A039307F0A9FD8022D2009446E0
:10312000059B63441A00059333699A4200D220E755
:10313000159B9A4607F062FD831C00D115E307F04A
:1031400065FD0A9B0B9CFA22C01AA1410C9C00232E
:103150002064616492000CF09DF8109B0100606394
:10316000002B00D04BE307F051FD04000D000D9B38
:103170001C941D951B699B689847002800D06AE342
:1031800007F044FDFA22001BA9410C9C0023A06417
:10319000E16492000CF07EF8A06307F02FFD831C21
:1031A00000D160E30D9B1B7B002B4ED00F9B0E9D2F
:1031B000DB001F00019300233A001F0053460293D7
:1031C0000C9B91469A460D9B9B46AA681068002866
:1031D00000DC3EE300230124043202CA01334C43E5
:1031E0008342FAD12E78032E00D19AE1092E00D124
:1031F00097E1012E00D0AEE1102007F02FFD8046B0
:103200000121A00007F02EFD434618601E735E608A
:103210009C6053464A4641469B6D99506968AA692D
:103220000DF052FE019A534694465A469B6D5268E1
:1032300063445A6008239C465B461B7B013740353C
:10324000E144BB42C1D8029B9A46129B1398DB68AB
:1032500098470E9807F00AFD13E0C0463D040010A1
:10326000F1030010AD0D001078C901108180803B82
:1032700000007F43C648C74907F0CCFC05235B42EA
:103280009A46079B002B03D0119B002B00D0B2E283
:10329000239B219A002B07D01B93002A00D1E4E244
:1032A000229B1BA91FA8984700232393219B002B37
:1032B00003D01FA9032208009847504635B0F0BC40
:1032C000BB46B246A946A046F0BD1B690493002B3D
:1032D00000D12FE75846B0490DF062FC00230028CA
:1032E00000D071E1994609935B4602934B460893DF
:1032F0005346BB46039615938023049ADB001500C2
:103300009A4200D91D00069801216843800007F009
:10331000A9FC81460028ADD0089B189005981A9307
:1033200083681995002B00D19FE218ABC46819AAD5
:103330001AA9A047049B002B00D19BE0099A002703
:103340009446079BFF266344B846AA46019337E09C
:103350009249281C0DF0E1FB9049051C381C0DF02A
:10336000DCFB8E49071C201C0DF0D7FB041C8C498C
:10337000281C0DF0E6FB8B49051C381C0DF0E1FB09
:10338000011C281C0DF0C6FB8749051C201C0DF0F4
:10339000D8FB011C281C0DF0BDFB02990DF0BDFBF4
:1033A0000DF0DEFC011C03980DF0B4FB0DF04EFC9B
:1033B0004246019B985401239C46E044C24553D9A0
:1033C00043464A469B00D0580DF072FC0400000CA6
:1033D00030400DF014FC051C200A30400DF00FFCAD
:1033E000071C200030400DF00AFC5B46041C002B3B
:1033F000AED0022B51D0042BB9D18621281CC9058F
:103400000DF085FB8621051CC905381C0DF07FFBDE
:103410008621071CC905201C0DF079FB041CA6E7BA
:103420000DF0EDFB804620000DF0E9FB041C3000A0
:103430000DF0E5FB061C029B022B50D0042B00D0A4
:1034400029E686214046C9050DF061FB86218046AC
:10345000C905201C0DF05BFB8621041CC905301C2E
:103460000DF055FB061C16E6099B55469C46D444B8
:1034700063460993049B48465B1B049307F0F6FBE5
:103480008022D2009446089B63441A000893059B4F
:103490001B699A4200D22FE74AE64049281C0DF0EA
:1034A0003CFB42490DF033FB41490DF036FB3B49F3
:1034B000051C381C0DF031FB3E490DF028FB3E4940
:1034C0000DF02BFB3549071C201C0DF026FB3B495A
:1034D0000DF01DFB3A490DF020FB041C47E7404668
:1034E0002E490DF01AFB31490DF011FB30490DF05A
:1034F00014FB2A498046201C0DF00FFB2D490DF0CE
:1035000006FB2D490DF009FB2449041C301C0DF06D
:1035100004FB2A490DF0FBFA29490DF0FEFA061CBE
:10352000B9E55B461B7D1020002B1CD007F096FBF5
:1035300001210600A00007F095FB0123337373609F
:1035400053464A469B6D3060B460310028009E505F
:10355000FFF724FB66E631001A4807F05BFB0E23F9
:103560005B429A468DE607F079FB012106002000B8
:1035700007F078FB01233373736053464A4630608B
:103580009B6DB46069689E50AA690DF09DFC49E688
:1035900040CC011016FCFFFF8180803B00007F4380
:1035A0008716993EA245163FD578E93DEC51F83E85
:1035B000FA7E6A3ED578E93E4260653E3BDFCF3E0B
:1035C0006666663E18CC0110994608935346CA4673
:1035D0000196029709938023049ADB0014009A4213
:1035E00000D91C00069801216043800007F03AFBD7
:1035F000071E00D13EE65346189005981A9383683B
:103600001994002B00D130E118ABC56819AA1AA98A
:10361000A847049B002B00D191E0089A002594460E
:10362000079BA3466344FF26B9462C0003934DE055
:10363000029B002B00D1BCE040460DF0E0FA804632
:1036400038000DF0DCFA071C28000DF0D8FA051C34
:10365000029B022B00D18AE0042B11D18621404627
:10366000C9050DF054FA86218046C905381C0DF0B5
:103670004EFA8621071CC905281C0DF048FA051CC6
:103680007B49381C0DF05DFA7A49071C40460DF065
:1036900058FA011C381C0DF03DFA7749071C281C0C
:1036A0000DF04FFA011C381C0DF034FA73490DF07F
:1036B00034FA0DF055FB011C01980DF02BFA0DF0BA
:1036C000C5FA039B185501345C4531D24A46A30024
:1036D000D0580DF0EDFAC3210500030C070A334062
:1036E000019809069846374035400DF059FA0028F0
:1036F0009ED140460DF083FA804638000DF07FFAE7
:10370000071C28000DF07BFA029B051C002B9FD1A3
:1037100040465B490DF001FA59498046381C0DF0CE
:10372000FCF95749071C281C0DF0F7F9051CA7E701
:10373000089B4F469C46DC4463465C460893049BCA
:1037400038001B1B049307F091FA8023DB009C4692
:10375000059BE2441B69534500D93CE7099B9A4607
:1037600007F04CFA831C00D0E9E4824689E5404624
:1037700043490DF0D2F943490DF0C9F942490DF022
:10378000CCF93F498046381C0DF0C7F93F490DF090
:10379000BEF93F490DF0C1F93949071C281C0DF04D
:1037A000BCF93C490DF0B3F93B490DF0B6F9051CE5
:1037B00066E7424639483A4B78435343C0182B01D9
:1037C0005B1B1B015B195A01D31AC01800140DF0C2
:1037D0001BFA8621C9050DF09AF90DF037FA7F28FA
:1037E00003DD7F20039B18556DE703008033F9DA72
:1037F00080204042F6E7079807F038FA48E5294864
:1038000007F008FA149B002B16D01D00079B264ECC
:103810009C461C0065440020289B20560134C01A99
:103820000DF0F2F927990DF08CF907F00BFA300042
:1038300007F0F0F9A542EED11C4807F0EBF992E44D
:103840000121149807F00EFA012307901193FFF756
:103850006FFB0124C6E403235B429A46A2E40923DA
:103860005B429A4614E582469CE414F0E1FAC046B5
:10387000A245163F8716993ED578E93D8180803B69
:1038800000007F43EC51F83EFA7E6A3ED578E93E6F
:103890004260653E3BDFCF3E6666663E4596000071
:1038A0008B4C000068CC01107CCC01108CCD011039
:1038B000F0B5574682464546DE464E465446E0B58C
:1038C000ABB00D001000984606910E921693002C96
:1038D00000D1B3E2E368002B00D1AFE2161E00D1A5
:1038E000ACE2002900D1A9E2002168220DF0E6FA3D
:1038F0004423E268D45CE400200007F0AFF9220022
:103900000021B06507000DF0D9FA5246D068836CEB
:103910005C6899685423C25C0E2A2DD8D44BD340DE
:10392000DB0729D561223C23825CC35C002A25D1B8
:10393000D04A944222D14A7B002A1FD0012B1DD1AC
:10394000026CCD4B92689A4200D07AE243460091D5
:103950000193290033000022FFF79EFA051E00D1D3
:1039600029E1380007F082F928002BB0F0BCBB46F3
:10397000B246A946A046F0BD3C23C35CDC00200053
:10398000139307F06BF91290002800D119E122007F
:1039900000210DF093FA139CA31C9B0018001893B0
:1039A0000DF09CFA08228446042362449046179046
:1039B00003604460002C00D123E2139B00214046A9
:1039C0009A000DF07BFA07F021F95346DE683C239C
:1039D00014901591F35C002B00D1A3E1129B199771
:1039E0009946002305930793A44B4F461093A44B8D
:1039F000C3461193A34BC1460F9336E00F9B1B7830
:103A0000002B00D1ACE0059B9E0053465D68AD19CC
:103A10002868002800D1B6E00E9903683A68019141
:103A20005146C968896B00915D6841460B9BA84768
:103A3000002800D034E107F0E1F8831C00D143E115
:103A4000279B002B03D003222100200098475346D8
:103A50000421DE683C238C46059AE344013205923A
:103A6000F35C0837934200D832E1059A102094465F
:103A7000D30063449A009446336C0D9263441A68F1
:103A80005E6808929A685D690C92DA680B921A690E
:103A9000DB690A92099307F0E1F801210400B00004
:103AA00007F0E0F80123237363605B461B68206026
:103AB00098465B461C604346A660002B09D01868F8
:103AC000002802D01B7B002B72D1404607F0CEF8B5
:103AD000206800287BD0089B3C607B60079B9C464D
:103AE0005346B4446246DE680792B3699A4200D9ED
:103AF000B3E00A9A069B25AC0021229220000C22FA
:103B00002193239524960DF0D9F90023316A289347
:103B1000069B98468D4218D018690BF095FB4543DB
:103B2000002108221EA829950DF0C8F921AB1D938C
:103B30001BAB1A001DAD03CD03C22200A04603CB70
:103B400003C2109B2793119B2893099B002B00D045
:103B500054E74046B36B39680B9A0C9DA84767E75A
:103B600049494A4807F056F8494807F053F80123F5
:103B70000F9A1370059B9E0053465D68AD19286827
:103B8000002800D048E70D991A688C46136C916B99
:103B90006344D868DB69984753465B682860985946
:103BA000002800D038E70B25C846199F6D4280E0F9
:103BB00007F05CF889E750460E99FEF7F1FE050024
:103BC000CFE60825334807F025F86D42C9E63248AC
:103BD0000599199F07F01EF8189C083C4C442500D5
:103BE0004C4500D14AE14B46A0461C00043D2E68DE
:103BF000002E09D03068002803D0337B002B00D082
:103C0000CCE0300007F032F8A542EFD123000825C0
:103C10001798444698460DF069F96D42A04512D0B8
:103C20002B0045469846043C2668002E08D0306894
:103C3000002802D0337B002B0CD1300007F016F89F
:103C4000A542F0D1454617980DF050F9129807F0AB
:103C50000DF886E607F00AF8EFE705250F48199FEB
:103C600006F0D8FF189CC846083C4C446D42D5E786
:103C7000A4480000692C00102D050010190E00103A
:103C800075040010084E022014CD01101CCD011047
:103C900024CD011080CC0110B0CC0110E8CC011073
:103CA000794B010005251800199FC84606F0B2FFA0
:103CB0006D42279B002B03D0032221002000984750
:103CC000189C083C4444A9E7C8460500199FF0E742
:103CD000C846199F002B25D03C221D0053460024C6
:103CE000BA4691461F00E000316C02199200891813
:103CF0000B6A002B10D0196800290DD05B69002BCE
:103D00000AD012990958F868006C80189847002862
:103D100000D089E04B46F55C0134AC42E3D33B0074
:103D200057469A4606F072FF149B159CFA22C01A59
:103D3000A1410E9C00232064616492000BF0AAFA5A
:103D4000169B01006063002B2BD15346D868442397
:103D5000C35C00244426002B57D0169BBB469946D3
:103D60000E9F05E05346D8680134835D9C424BD2D8
:103D700049466300826C1B19DB00D218136903915A
:103D8000916801970291117D009155681299220066
:103D9000A8470028E6D05F46050091E706F066FFD9
:103DA0002FE73A4806F036FF00239946139B129DF1
:103DB000002B22D0364B374E9B463B004F46994650
:103DC0002B68002B13D09A680024002A0CD01B68A3
:103DD000A200D05806F036FF300006F01BFF2B681B
:103DE00001349A68A242F2D8584606F013FF139B9A
:103DF000013708359F42E3D34F46274806F00AFFB4
:103E0000A3E708231893DEE55F4606F0F7FE189C4B
:103E10000500083C4444831C00D1FFE650460E993F
:103E2000FEF7BEFD0500F9E60500189C29001B48B9
:103E3000083C5746444406F0EDFEEFE616256D4279
:103E400092E5082006F00AFF031E129000D1B8E6A2
:103E50001800082200210DF031F80C200DF03EF87A
:103E6000042384460360033B43600733634498465E
:103E70000C2318930B3B179013939EE50825179876
:103E80000DF034F86D42DEE640CC011068CC011034
:103E90008CCD01107CCC011090CD0110A4CD01106F
:103EA000F0B5DE4657464E464546E0B5C9B00FF080
:103EB000A1F862480AF00CFE61480EF0E5FD04F03E
:103EC0007BFD04F09DFE04F087FF5E480EF0DCFDF4
:103ED0000124802208AB5C490193520000235B4817
:103EE000009412F0FDFD802209AB59490193520064
:103EF00000235848009412F0F3FD80220AAB564983
:103F00000193520000235548009412F0E9FD8022ED
:103F10000BAB53490193520000235248009412F016
:103F2000DFFD0CAB0193802202234F4992000093E6
:103F30004E48002312F0D4FD4D480EF0A5FD12F0BE
:103F4000E1FD4C480EF0A0FD6822002114A80CF001
:103F5000B5FF494806F05EFE2EAB9846474B0FAEC4
:103F600002930DAB9A46464B0393464B0493464B44
:103F70000593464B0693464B0793464B9B467E2341
:103F8000002108222FA833610CF098FF029B4246C3
:103F90002E93534603CA03C33300524603CA03C3D6
:103FA000039B31001193049B0598129314AA0023DC
:103FB000FFF77EFC00282DD1682214A940460CF0A2
:103FC00083FF239B229A2199069806F023FE0798E7
:103FD00006F020FE36AB444699462F4D2F4F5846EB
:103FE00002CD06F017FEE0680CF068FE083402000F
:103FF0000B00380006F00EFE4C45F0D1FA20C00050
:1040000006F0FEFDB368002BB9D00322310030006A
:104010009847B4E704002248210006F0FBFDB3688E
:10402000002B03D00322310030009847200049B014
:10403000F0BCBB46B246A946A046F0BDB80B000096
:104040002CCE011050CE01106CCE0110ED87001067
:104050007CCE0110AD8800108CCE01106D8900104F
:104060009CCE0110F1890010B0CE0110818F00109C
:10407000C0CE0110DCCE011018CF01105904001081
:10408000F50D0010FD0300100C4A0020D8CD0110E2
:104090000CCE01101CCE01103021002024CE0110C6
:1040A00054CF0110F0B5574645464E46DE46E0B5C2
:1040B000036845689246384A9946EB1A07008846D5
:1040C0000C0083B0DB10934263D048460E1AA9451A
:1040D00043D059008B422ED8002951D1330052468B
:1040E00003CA03C300239B4601930833C14509D08B
:1040F0005B464A465E4403CA03C3B342FBD108335E
:1041000045453BD04246AD1A5D1903CC03C39D42E1
:10411000FBD14B46002B02D0484606F0A7FD5B467C
:104120003B60019B7D60BB6003B0F0BCBB46B24608
:10413000A946A046F0BD194B1800019306F08EFD6C
:1041400083465246019B5B440193831903CA03C310
:104150005B460833C145CBD1D2E7591C0133EAD2C3
:104160000B00802149058B4203D2DB00180001932C
:10417000E4E71300DB0018000193DFE71D00C8E748
:1041800080235B05994200D31100CB0018000193F6
:10419000D4E7034813F018FEFFFFFF0FF8FFFF7F7F
:1041A000F0CA0110F0B5DE4657464E464546E0B52A
:1041B000AFB01C0038AB069204CB4F681B788B461F
:1041C00099463AAB1B88904602933BAB1B7809900B
:1041D00003934368BB4200D06FE3039A3D9B5600B4
:1041E0005B68751C2A008168002B00D00AE29142AE
:1041F00000D062E33D9B9B68012B00D05DE35846F5
:10420000FDF778FA0A90002800D0F3E1012C00D1E4
:104210004AE3022C00D188E3BB00012118009A4632
:1042200006F020FD0D90002800D153E35B465B684B
:104230009F4201D000F0F6FB002F3AD05B469B680E
:10424000524698460D9B05951F0053449946434698
:104250009B00049300239A46079208960021434648
:104260000C1C002B18D05B46049A1E6853469446DB
:1042700000249B00F5186644F61801CD011C0CF0D3
:1042800060FC011C201C0CF045FC041CAE42F4D167
:1042900040460CF0B4FC011C201C0CF03EFC0CF061
:1042A00017FD01C7C244B945D8D1079B059D9A4661
:1042B000089E50460121704306F0D4FC061E00D132
:1042C0003DE35B465B68002B00D18DE1029A530809
:1042D000591C19938B000B93CB0012939300039AF4
:1042E0001593D3001193089101231091002A00D057
:1042F000D8E29B00169300230493C44B14961393A7
:104300005B465A469E68049BB00043431268D3182C
:104310000F93002B00D1E7E21C9300231AAA137518
:1043200001331D9300231E960E9301210B9806F076
:1043300099FC0590002800D150E3109B089A934205
:1043400000D033E3129806F089FC05000822002112
:1043500025A80CF0B3FD139B24AC2493AC4B08228E
:10436000210028A82B930CF0AFFDAA4B2C952A9383
:10437000002D00D1C6E20121159806F073FC071E3E
:1043800000D1A1E2029B9E4200D91E00B3009846D4
:104390001A000F9938000CF097FD4146029B7818DF
:1043A0009A1B002192000CF089FD002300220021BD
:1043B0000298009406F09AFA061E00D1E3E22A0061
:1043C000390006F057FB300006F050FC380006F0CC
:1043D0004DFC059B00269946089B984628686B680B
:1043E000011C9A460CF0ADFB5146071C50460CF0E0
:1043F000A8FB011C381C0CF08DFB0CF069FC4A4634
:10440000B3000136D0500835B045E7D82C9A2A9B26
:10441000002A00D17FE200252492002B00D104E382
:104420002B9B210028A8984700232C932A9B002B24
:1044300003D028A9032208009847002D00D0B5E238
:1044400002980CF0DCFB011C8020C0050CF065FB21
:10445000FE218905071C0CF0A3FB00280BD1089B4B
:1044600000259846059E3068391C0CF06AFB013522
:1044700001C6A845F7D80121119806F0F3FB0C906E
:10448000002800D194E2039B002B00D178E10121A8
:104490000B9806F0E7FB0790002800D143E2FE20CE
:1044A000069980050CF039FB011C0CF033FB011C54
:1044B000FE2080050CF031FB029B071C5B10984628
:1044C00000D10AE2012B00D1FAE15E1E30000CF0AF
:1044D00096FB011C381C0CF020FBBA4681460025D7
:1044E000370028000CF08BFB49460CF02AFB00211A
:1044F0000CF010FB079BAE0001359851AF42F0D194
:104500001A005746444B43449B009F50039B012194
:104510009C469D006544E80006F0A4FB1890002826
:1045200000D1DAE1059B1A689246199A012A00D156
:104530006EE21F1D002317935B4669009346012519
:104540001A911B932DE07B68301C191C98460CF0C7
:1045500045FB00282ED05146301C0CF0D8FA4146BD
:104560008246301C0CF0D3FA011C50460CF0D2FAF3
:1045700000210CF033FB00281CD0179B48469E00FE
:104580000CF03DFB189A179B905101331A9A9BB27D
:1045900017939A4200D130E23B689A460437AB4504
:1045A0003CD03E685146301CA94601350CF016FB44
:1045B0000028C8D1B246F1E75346040028001F0086
:1045C000149E06F053FB0A94380006F04FFB404659
:1045D00006F04CFB0C9806F049FB059806F046FBEC
:1045E0000E9B002B00D0DDE1300006F03FFB0D9864
:1045F00006F03CFB0A982FB0F0BCBB46B246A94679
:10460000A046F0BD013B5A19F1E5C0466DAC001063
:10461000F1030010AD0D0010FFFFFF3F1B9B0022B8
:104620009B4600232892299300232A93179B9846A0
:10463000002B00D1F2E100239946189B00270026A9
:1046400000259A465246AB0098580CF031FB079B68
:1046500080001B582360059B19583C9861600CF042
:10466000BDFA002802D04B4623606360BE4200D1F1
:1046700068E13300220003CA03C30135EDB21E0016
:104680002993454500DA68E1289FF51BEB10994610
:10469000BE4246D018000AF0A9FD1F22121A0023BC
:1046A000310038005200FCF719FF802D00DC87E153
:1046B0003D00803529003800FCF7A8FD7823984696
:1046C000803B9A46B844B244AE422AD04B461A9335
:1046D0004346B9461B961793179B1D000833EE6897
:1046E0001793AB686868311C98460CF061FA002893
:1046F00000D180E12B002A00083303CA03C32F0036
:10470000083D6968301C0CF069FA0028F2D1434674
:104710003B60179B7E609A45DED11A9B4F469946B7
:104720001B9E039B4B4513D9310000254E46039F2A
:104730002A9B256065608B4200D11AE10B002200A4
:1047400003CA03C301362993B74200D919E1289F50
:104750003A0000210C9B039D1068013118605068DD
:104760000832586008338D42F6D8002F02D0380046
:1047700006F07CFA189806F079FA079806F076FAAF
:104780000B9E0121300006F06DFA0127089D20AB39
:104790008046994620901F735F609D60002800D17D
:1047A0000AE10121300006F05DFA24908246277369
:1047B0006760A560002800D107E1029B22000093FA
:1047C0004946069B1CA8FDF7CDFA002800D000E161
:1047D0003D9A01215268561EB000079206F042FA37
:1047E00044211AAA52182890051E177029962A9754
:1047F00000D1F7E0069B2100009348463D9A28AB84
:10480000FDF7E2F9002800D0D6E6099A04999368EA
:1048100017684B430D9A9B00FF188B00D358039CDD
:104820003B60002C0BD000210C9A3B1D106801311D
:10483000186050680832586008338C42F6D8002E51
:1048400010D07B4B079E9C46169B66449C460024DA
:10485000B6006744285977490CF05FF938510434A1
:10486000A642F7D1280006F001FA504606F0FEF9FC
:10487000404606F0FBF90C9806F0F8F9059806F0AA
:10488000F5F90E9B002B09D15B46049A5B68013257
:104890000492934200D933E5149EA5E60F9806F0E2
:1048A000E5F9F1E72B0024E54B46424658460699C8
:1048B000FBF762FF002800D1AEE45F4B0A9399E654
:1048C0000023079A136021E62C9A2A9B002A46D0DF
:1048D0005A4DA1E5594B0A938CE60798149E06F0B1
:1048E000C5F9554B0A9375E6012106F0BBF9012382
:1048F0001AA90F901C900B751D931E96002876D058
:104900000E9312E54E4806F085F92C9A002A40D005
:104910004A4D2A9B80E5002B00D191E528A903226E
:10492000080098478CE5149EDBE74B464246584604
:104930000699FCF7A5F8002800D16DE4BDE73F4BD0
:104940000A9354E601353100220028A8EDB2FFF7A2
:10495000A9FB299E454500DB96E62A9F72E6149E38
:10496000002B03D028A9080003329847324B0A9342
:1049700033E6220028A80136FFF794FBB74200D89F
:10498000E5E62999D4E6380006F070F92C9A002A59
:10499000BED12A9B149E002BE8D028A90322080030
:1049A0009847E3E70F9806F061F91DE6149EDDE7EE
:1049B000224B149E0A9310E6204B149E0A9309E69C
:1049C00031003800FCF722FCABE61C4B149E0A9326
:1049D000FDE55346149E1F000A90F5E5174B149E03
:1049E0000A93FDE55346149E1F00144CEBE5134B50
:1049F000149E0A93F8E5179F89E61B9B00229B46AD
:104A000000232892299300232A931A9B984612E6A2
:104A1000002300222892299300232A9300230026B2
:104A2000994681E6044B0A93E1E513F001FAC0468A
:104A3000FFFFFF3F0000204114FCFFFF16FCFFFFBB
:104A40000CCB0110F8B54546DE4657464E460C00E5
:104A5000E0B5050000290FD00368466899468368D1
:104A60009B1B9B108B420DD38C0022000021300039
:104A700034190CF023FA6C60F0BCBB46B246A94670
:104A8000A046F8BD4B46F31A9F109B461C4BDA1B01
:104A90008A4232D37A1892468F4227D380227F00EF
:104AA0009205974227D2BB001800984606F0D6F828
:104AB0005B460700A200C418002120000CF0FEF99C
:104AC0003B004A46B14503D002CA02C3A342FBD110
:104AD0004B46002B02D0484606F0C8F853469B00D0
:104AE000FB182F6047446B60AF60C5E7170080225A
:104AF00092059245D7D31F00D5E7024813F064F919
:104B0000FFFFFF1F78CF011084B070B5289D05917D
:104B1000069269682A680793299E04908B1A442B91
:104B20002AD9482B03D94832914200D06A60726872
:104B30003468131B442B17D9482B04D9230048335E
:104B40009A4200D0736000222E6815AB04AD18683D
:104B50001900B050986C043BA05004328D42F6D13D
:104B600070BC08BC04B0184712219B103000C91A51
:104B7000FFF768FF3468E6E712219B102800C91A86
:104B8000FFF760FFD3E7C04684B070B5109C069273
:104B90000793626823680591119D0490D11A142926
:104BA00036D9182903D918339A4200D063606A684D
:104BB0002B68D11A142923D9182904D919001831BE
:104BC0008A4200D069602268099911600F991960C2
:104BD000089951600E995960079991600D999960F3
:104BE0000699D1600C99D960059911610B991961E9
:104BF000049951610A9A5A6170BC08BC04B0184704
:104C000006238910591A2800FFF71CFF2B68DAE7E2
:104C1000062389102000591AFFF714FFC7E7C04682
:104C200084B070B5209C0591069261682268079354
:104C3000219D04908B1A342B56D9382B03D9383246
:104C4000914200D0626069682B68CA1A342A43D93D
:104C5000382A04D91A003832914200D06A6022689A
:104C6000119911601F991960109951601E9959602E
:104C70000F9991601D9999600E99D1601C99D96026
:104C80000D9911611B9919610C9951611A9959611A
:104C90000B999161199999610A99D1611899D96112
:104CA0000999116217991962089951621699596206
:104CB00007999162159999620699D1621499D962FE
:104CC000059911631399196304995163129A5A63F0
:104CD00070BC08BC04B018470E2192102800891A35
:104CE000FFF7B0FE2B68BAE70E219B102000C91A0F
:104CF000FFF7A8FEA7E7C04684B070B50C9C0692EB
:104D000007936268236805910D9D0490D11A0C29C0
:104D10002ED9102903D910339A4200D063606A68F3
:104D20002B68D11A0C291BD9102904D9190010316C
:104D30008A4200D069602268079911600B99196056
:104D4000069951600A99596005999160099999608D
:104D50000499D160089ADA6070BC08BC04B01847A6
:104D600004238910591A2800FFF76CFE2B68E2E72C
:104D7000042389102000591AFFF764FECFE7C046CC
:104D800084B070B5189C05910692616822680793FB
:104D9000199D04908B1A242B46D9282B03D928322D
:104DA000914200D0626069682B68CA1A242A33D9FC
:104DB000282A04D91A002832914200D06A60226859
:104DC0000D991160179919600C99516016995960E5
:104DD0000B999160159999600A99D1601499D960DD
:104DE00009991161139919610899516112995961D1
:104DF00007999161119999610699D1611099D961C9
:104E0000059911620F991962049951620E9A5A62BA
:104E100070BC08BC04B018470A2192102800891AF7
:104E2000FFF710FE2B68CAE70A219B102000C91A61
:104E3000FFF708FEB7E7C04684B070B51C9C05912B
:104E400006926168226807931D9D04908B1A2C2B93
:104E50004ED9302B03D93032914200D0626069685C
:104E60002B68CA1A2C2A3BD9302A04D91A003032AE
:104E7000914200D06A6022680F9911601B991960F5
:104E80000E9951601A9959600D999160199999601C
:104E90000C99D1601899D9600B9911611799196112
:104EA0000A99516116995961099991611599996108
:104EB0000899D1611499D9610799116213991962FE
:104EC00006995162129959620599916211999962F4
:104ED0000499D162109ADA6270BC08BC04B0184719
:104EE0000C2192102800891AFFF7ACFD2B68C2E74D
:104EF0000C219B102000C91AFFF7A4FDAFE7C046A4
:104F000084B070B52C9D0591069269682A68079354
:104F10002D9E04908B1A4C2B2AD9502B03D950323A
:104F2000914200D06A6072683468131B4C2B17D909
:104F3000502B04D9230050339A4200D073600022D2
:104F40002E6817AB04AD18681900B050186D043BFB
:104F5000A05004328D42F6D170BC08BC04B0184792
:104F600014219B103000C91AFFF76CFD3468E6E786
:104F700014219B102800C91AFFF764FDD3E7C0462F
:104F800084B070B5149C06920793626823680591FB
:104F9000159D0490D11A1C293ED9202903D920330C
:104FA0009A4200D063606A682B68D11A1C292BD9F9
:104FB000202904D9190020318A4200D06960226872
:104FC0000B991160139919600A99516012995960EF
:104FD00009999160119999600899D1601099D960E7
:104FE000079911610F991961069951610E995961DB
:104FF000059991610D9999610499D1610C9ADA61D1
:1050000070BC08BC04B0184708238910591A28003E
:10501000FFF718FD2B68D2E7082389102000591AE2
:10502000FFF710FDBFE7C04684B070B5249C059122
:105030000692616822680793259D04908B1A3C2B89
:105040005ED9402B03D94032914200D0626069683A
:105050002B68CA1A3C2A4BD9402A04D91A0040327C
:10506000914200D06A6022681399116023991960F7
:105070001299516022995960119991602199996012
:105080001099D1602099D9600F9911611F99196108
:105090000E9951611E9959610D9991611D999961FE
:1050A0000C99D1611C99D9610B9911621B991962F4
:1050B0000A9951621A9959620999916219999962EA
:1050C0000899D1621899D9620799116317991963E0
:1050D00006995163169959630599916315999963D6
:1050E0000499D163149ADA6370BC08BC04B0184701
:1050F000102192102800891AFFF7A4FC2B68B2E750
:1051000010219B102000C91AFFF79CFC9FE7C046A6
:10511000F0B54E464546DE465746E0B50C00CFB0EA
:10512000E6490500160015F045F8002800D139E2DF
:105130002800E34915F03EF8002800D184E128005A
:10514000E04915F037F8002800D1B4E22800DE4924
:1051500015F030F8002800D1EAE22800DB4915F00C
:1051600029F8002800D158E22800D94915F022F882
:10517000002800D17DE32800D64915F01BF800284F
:1051800000D1E3E32800D44915F014F8002800D139
:1051900028E32800D14915F00DF8002801D100F0CE
:1051A00022FC2800CE4915F005F8002801D100F0B6
:1051B0006FFC2800CB4914F0FDFF002801D100F05E
:1051C000C9FC2800C84914F0F5FF002801D100F0FF
:1051D000FCFC2800C54914F0EDFF002801D100F0C7
:1051E000CEFD2800C24914F0E5FF002801D100F0EF
:1051F0001FFE2800BF4914F0DDFF002801D100F098
:1052000053FE2800BC4914F0D5FF002801D100F05E
:1052100098FE2800B94914F0CDFF002801D100F014
:10522000BBFE2800B64914F0C5FF002801D100F0EC
:10523000C0FE2800B34914F0BDFF002801D100F0E2
:10524000D8FE2800B04914F0B5FF002801D100F0C5
:10525000BEFE2800AD4914F0ADFF002801D100F0DA
:10526000FCFE2800AA4914F0A5FF002801D100F097
:10527000EFFE2800A74914F09DFF002801D100F09F
:10528000DAFE2800A44914F095FF002801D100F0AF
:10529000C5FE2800A14914F08DFF002801D101F0BE
:1052A0001FF828009E4914F085FF002801D101F065
:1052B00011F828009B4914F07DFF002801D100F06F
:1052C000DAFF2800984914F075FF002801D100F09A
:1052D000CDFF2800954914F06DFF002801D100F0A2
:1052E000C0FF2800924914F065FF002801D100F0AA
:1052F000B3FF28008F4914F05DFF002801D100F0B2
:105300000FFF28008C4914F055FF002801D100F050
:1053100002FF2800894914F04DFF002801D100F058
:10532000F5FE2800864914F045FF002801D100F061
:10533000E8FE2800834914F03DFF002801D100F069
:10534000DBFE2800804914F035FF002801D100F071
:10535000CEFE28007D4914F02DFF002801D100F079
:10536000C1FE28007A4914F025FF002801D100F081
:10537000B3FE2800774914F01DFF002801D100F08A
:10538000A6FE2800744914F015FF002801D100F092
:1053900099FE2800714914F00DFF002801D100F09A
:1053A0008CFE28006E4914F005FF002801D100F0A2
:1053B0007FFE28006B4914F0FDFE002801D100F0AB
:1053C00072FE2800684914F0F5FE002801D100F0B3
:1053D00065FE2800654914F0EDFE002801D100F0BB
:1053E00058FE2800624914F0E5FE002801D100F0C3
:1053F0004BFE28005F4914F0DDFE002801D100F0CB
:105400003EFE28005C4914F0D5FE002801D100F0D2
:1054100031FE2800594914F0CDFE002801D100F0DA
:10542000F8FD2800564914F0C5FE002800D0E6E03B
:10543000544D554925962494902268460BF044FD1E
:105440000FCDFFF75DFDDAE0616822688B1A242B2F
:1054500000D8DBE0282B03D92832914200D06260CB
:1054600071683368CA1A242A00D89EE1282A04D910
:105470001A002832914200D07260802100202268F8
:10548000424C434DA446434E434F090615601860F5
:105490005660596097609860D460404CD960146140
:1054A0001C6154613E4C5C61644694619861D761B3
:1054B000D9611662186255625962A0E094CF01105A
:1054C0009CCF0110A4CF0110ACCF0110B4CF0110BC
:1054D000BCCF0110C4CF0110CCCF0110D4CF01102C
:1054E000DCCF0110E4CF0110ECCF0110F4CF01109C
:1054F000FCCF011004D001100CD0011014D0011009
:105500001CD0011020D0011024D0011028D001108F
:105510002CD0011030D0011034D0011038D001103F
:105520003CD0011044D001104CD0011054D00110D7
:105530005CD0011064D001106CD0011074D0011047
:105540007CD0011084D001108CD0011094D00110B7
:105550009CD00110A4D00110ACD00110B4D0011027
:10556000BCD00110C4D00110CCD00110D4D0011097
:10557000DCD00110E4D00110ECD00110F4D0011007
:10558000FCD00110E4E10110F4E10110CEE6F83D99
:10559000B6C3873CB6C387BCCEE6F8BDF304353F3F
:1055A000F30435BF62682368D11A142900D8B8E023
:1055B000182903D918339A4200D06360726833689F
:1055C000D11A142900D8A4E0182904D919001831D7
:1055D0008A4200D07160802000252268C249C34CF5
:1055E000C34E000614601D6056605860916099605B
:1055F000D160C049D96016611D61546158614FB0D6
:10560000F0BCBB46B246A946A046F0BD0A219B109D
:105610002000C91AFFF716FA22E7676825687B1B86
:105620009846342B00D8C8E0382B04D92B003833E7
:105630009F4200D06360736837689846DB1B9946C9
:10564000342B00D8ABE1382B04D93B0038339845D4
:1056500000D07360A84B00222B609A468023A74994
:10566000A748A84CA84E1B063A60884668607B6035
:10567000AC60BA60EE60FB602961A4493A6189467A
:105680006961A3497B61A961A249B9618C46494618
:10569000E9619849F961414629626146396251469A
:1056A0006E627B62AC62BA62E862FB6229633A6353
:1056B0006A637B63A3E7616822688B1A142B00D8A6
:1056C000D0E0182B03D91832914200D06260716883
:1056D0003368CA1A142A00D8BCE0182A04D91A0060
:1056E0001832914200D072608020226800248949DB
:1056F000894D8A4E000615601C60516058609660A6
:105700007C4E9960D160DE60156119615461586109
:1057100075E706238910591A3000FFF793F93368AB
:1057200059E7062389102000591AFFF78BF945E73E
:10573000616822688B1A242B00D8CEE0282B03D96D
:105740002832914200D0626071683368CA1A242AF4
:1057500000D8BAE0282A04D91A002832914200D091
:1057600072606F4E2268B4466E4900201160884610
:10577000802164466C4D684F090618605560596079
:1057800097609860D660694ED9601661614E1E615F
:105790005461584C5C61444697619E61D561D96102
:1057A000146218625062596229E70A21921030008F
:1057B000891AFFF747F933685FE60E229910531AEA
:1057C0009946A368DB1B9B104B4500D2A2E24B46D7
:1057D0009B00994638001A0000214F440BF06EFBE5
:1057E000676028E7616822688B1A1C2B00D8A2E149
:1057F000202B03D92032914200D062607168336857
:10580000CA1A1C2A00D89DE1202A04D91A00203285
:10581000914200D0726080212268002409068846E7
:10582000434E4448444D454F10601C6055605960DC
:10583000966043499F603D4FD760D9601761414FE3
:105840001F615661344E5E6195619C61D061424634
:10585000DA61D4E6062192103000891AFFF7F2F8D7
:10586000336841E706219B102000C91AFFF7EAF8C8
:105870002DE726AD9022344928000BF025FB616806
:1058800022688B1A442B00D8A6E0482B03D9483253
:10589000914200D0626072683768D31B442B00D8F5
:1058A00092E0482B04D93B0048339A4200D0736001
:1058B0000022246837AB18681900A050986C043B8C
:1058C000B85004328D42F6D199E60A219210300088
:1058D000891AFFF7B7F8336843E70A219B102000C5
:1058E000C91AFFF7AFF82FE7F304353FF304B5BD4E
:1058F000F304B53DF30435BF3046E2BBC2F22DBE22
:105900003046623C4255403D089EDCBD441AE53EAF
:10591000C57C773FF304B53EF30435BEB6C3873F7D
:10592000E1F5D63EB6C3073DB6C387BDF68E7E3FD2
:1059300055641EBEB6C3873D92A54BBEF304353EEB
:10594000B6C307BFB6C3073F94EF01106168226872
:105950008B1A0C2B00D894E0102B03D910329142F3
:1059600000D0626071683368CA1A0C2A00D880E0DF
:10597000102A04D91A001032914200D072602268B5
:10598000C649C7481160C74C1860C74850605C6082
:105990009060C6489860D160C54ADA602FE60E2252
:1059A0009910531A42469A46B3689B1A9B109A451F
:1059B00000D94DE153469C0022000021404644445A
:1059C0000BF07CFA746045E612219B103000C91A76
:1059D000FFF738F837686BE712219B102000C91ACF
:1059E000FFF730F857E7616822688B1A2C2B00D834
:1059F000E4E0302B03D93032914200D0626071680C
:105A00003368CA1A2C2A00D8D0E0302A04D91A00E8
:105A10003032914200D072602268A64900201160A5
:105A20008A468021A44CA54DA54EA64F09061860B4
:105A3000A4465560596096609860D760D96014613B
:105A4000974C1C61A04CA0465461964C5C61444646
:105A50009461964C9C616446D461954CDC611762FC
:105A6000186256625962956298625046D062D96255
:105A7000C5E5042192103000891AFEF7E3FF336870
:105A80007DE704219B102000C91AFEF7DBFF69E7C0
:105A9000616822688B1A3C2B00D861E1402B03D946
:105AA0004032914200D0626071683368CA1A3C2A61
:105AB00000D85CE1402A04D91A004032914200D05B
:105AC000726022688148802110600020804C814DE6
:105AD000814E824F09061860A44655605960966051
