:020000041000EA
:1000000000B5324B212058609868022188439860DF
:10001000D860186158612E4B002199600221596106
:100020000121F02299502B49196001219960352056
:1000300000F044F80222904214D00621196600F024
:1000400034F8196E01211966002018661A6600F04E
:100050002CF8196E196E196E052000F02FF8012189
:100060000842F9D1002199601B49196000215960AB
:100070001A491B48016001219960EB211966A021F2
:10008000196600F012F800219960164914480160C1
:100090000121996001BC002800D000471248134993
:1000A000086003C880F30888084703B5996A0420EC
:1000B0000142FBD001200142F8D103BD02B5186610
:1000C0001866FFF7F2FF186E186E02BD00000240BE
:1000D000000000180000070000035F00212200005C
:1000E000F4000018222000A00001001008ED00E03C
:1000F00000000000000000000000000074B24E7A12
:1001000000200420F7010010CB010010CD010010E9
:10011000C9010010C9010010C9010010C901001077
:10012000C9010010C9010010C9010010CF01001061
:10013000C9010010C9010010D1010010D301001045
:10014000C1010010C1010010C1010010C101001067
:10015000C1010010C1010010C1010010C101001057
:10016000C1010010C1010010C1010010C101001047
:10017000C1010010C1010010C1010010C101001037
:10018000C1010010C1010010C1010010C101001027
:10019000C1010010C1010010C1010010C101001017
:1001A000C1010010C1010010C1010010C101001007
:1001B000C1010010C1010010C1010010C1010010F7
:1001C000EFF30580103800BE00BE00BE00BE00BECA
:1001D00000BE00BEF2EB887180270710A027071031
:1001E0003802001090A31AE71E481F49086006C88D
:1001F00081F3088810471D480068002801D019487D
:10020000F3E70DA40ECC002902D000F012F8F9E7B4
:100210001749184A002000E001C19142FCD116495B
:100220008847164988471649884700BEFDE701C937
:1002300001C29A42FBD37047A0270710E0000020BC
:10024000F42B0020B452071000000420000004200A
:10025000B452071000100420001004200000000019
:10026000704700000000000008ED00E0000000D032
:10027000F42B0020F4D80320A5370110A5030010AB
:1002800065370110F8B5C0460448054B10B58342E8
:1002900003D0044B002B00D0984710BDF42B002056
:1002A000F42B00200000000006480749091A8B10B3
:1002B000C90FC91810B5491003D0044B002B00D04A
:1002C000984710BDF42B0020F42B00200000000004
:1002D00010B5074C2378002B09D1FFF7D5FF054B4C
:1002E000002B02D0044800E000BF0123237010BDA2
:1002F000882F002000000000C0340310054B10B50B
:10030000002B03D00449054800E000BFFFF7CCFFF5
:1003100010BDC046000000008C2F0020C034031028
:1003200010B5174813F0C0FB19F02AF9002807D0C0
:10033000144813F0B9FBFA20800010F00DFAFAE728
:10034000114813F0B1FB19F0CFF8104C1048210000
:1003500013F032FC20000F490F4A19F0D3F800289F
:1003600007D00E4813F0A0FBFA20800010F0F4F93B
:10037000FAE70B4813F098FB002017F023FD10BD9F
:10038000C0340310E834031020350310483503103F
:100390005835031080350310040040008C350310DD
:1003A000C035031010B58AB013F02EFB3E4810F094
:1003B000D3F93E4813F078FB3D4813F075FB3D48F8
:1003C00013F072FB3C4813F06FFB3C48012413F020
:1003D0006BFB13F01FFE00F081FA802209AB384955
:1003E0001201019300940023364817F0D9FC00F065
:1003F0009FFB00F089FC344813F056FB802202ABCF
:1004000032490193009400235200314817F0C8FC90
:10041000802203AB2F4901930094002352002E4801
:1004200017F0BEFC802204AB2C49019300940023FA
:1004300052002B4817F0B4FC802205AB29490193E8
:10044000009400235200284817F0AAFC802206AB33
:1004500026490193009400239200254817F0A0FC40
:10046000802207AB23490193009400239200224885
:1004700017F096FC802208AB20499200019300946B
:1004800000231F4817F08CFC1E4813F00DFB17F0DB
:10049000F9FC1D4813F008FB1C4C200013F004FB72
:1004A000014810F059F9F8E788130000E835031007
:1004B00014360310383603106436031084360310E4
:1004C000B836031021030010C0360310DC360310C9
:1004D00009070010EC360310D1070010FC3603109A
:1004E000910800100C370310150900102037031075
:1004F000C10D001030370310B94A0010383703100F
:100500007992001044370310603703109C370310B2
:10051000F0B54746CE4680B58BB003AC2200104BF9
:10052000802723CB23C223CB23C21B880026138022
:1005300026236B4499460B4B02AD984623782F70C7
:100540006B702A0002233C2140460096013418F0CB
:1005500009FF4C45F2D10BB0C0BCB946B046F0BD66
:10056000E8880310E8240020F0B557464E4645467B
:10057000DE462123E0B587B004AC23700B788346B8
:1005800063704B788A46A3702223E3704B88002760
:10059000A38016236B44994680239846174E03ADDB
:1005A000424623782A706B702A0002233C213000D7
:1005B0000097013418F0D6FE4C45F1D153465B68E4
:1005C0005D1C2800984611F02DFC40230400424693
:1005D00059460370013011F083FC2B0022003C21AE
:1005E0003000009718F0BEFE200011F05BFC07B051
:1005F000F0BCBB46B246A946A046F0BDE8240020A8
:100600007C2803D8124A8300D3589F463220704773
:100610004038FCE71538FAE72C20F8E72720F6E702
:100620002D20F4E72B20F2E73020F0E72920EEE739
:100630002620ECE72820EAE72E20E8E72F20E6E74F
:100640002A20E4E73120E2E70020E0E72520DEE78A
:100650005C850310F8B557464E464546DE46804653
:10066000E0B50C0017001E00782943DC382A41DC75
:10067000187800283ED007239B46214B9A46214BF1
:10068000994601360D2832D00A282DD0782C27DC47
:10069000382F25DC5B46FD171D40534603221B5CAB
:1006A000ED19ED101340022B01D12038C0B2FFF735
:1006B000A7FF4A464146C300D25CED014B442D19C9
:1006C0004A555A7845446A709A78AA70DA78EA707E
:1006D0001A792A715A796A719A79DB79AA71EB7160
:1006E000083424B2782C02DD002408373FB2307879
:1006F0000028C6D1F0BCBB46B246A946A046F8BD0C
:100700008122071050870310F8B5CE46474680B5C2
:1007100000F050FB00284AD005200FF071F80022AD
:10072000012105200EF0E6FF322017F00BFDD0234B
:100730001B065B689B0633D5204B214E9846214B08
:10074000214F9946D02520242D06322017F0FAFC9F
:100750006B681C42F9D117F037FD4146306800F054
:10076000A1FA01213868494216F0F4FED025012093
:1007700000F010FA20242D06322017F0E3FC6B68FD
:100780001C42F9D04946306800F08CFA002000F095
:1007900001FA002300220021386816F039FCD1E765
:1007A000064B074E9846074B074F9946D3E7074835
:1007B00013F07AF9002017F005FBADE708380310B5
:1007C00018D100201438031050CE0020D837031061
:1007D000F0B5D6464F4646460620C0B50FF010F895
:1007E0000022012106200EF085FF322017F0AAFC1E
:1007F000D0231B065B685B0637D5204B204C9A46FE
:10080000204B214F9846214B9946D026402536064D
:10081000322017F097FC73681D42F9D151462068C9
:1008200000F040FA01213868494216F093FE414633
:10083000206800F037FAD026022000F0ABF94025FE
:100840003606322017F07EFC73681D42F9D0494607
:10085000206800F027FA002000F09CF90023002215
:100860000021386816F0D4FBCFE7044B044C9A46BD
:10087000044B054F9846054B9946CFE720380310A7
:1008800018D100202C38031050CE00203838031027
:1008900070B5D025802416200EF0B2FF0022012171
:1008A00016200EF027FF322017F04CFC0A4E2D06C2
:1008B000E4036B6823420BD100230022002130683F
:1008C00016F0A6FB322017F03DFC6B682342F9D0EE
:1008D000322017F037FCECE774D4012010B501206A
:1008E00016F082FC084B032218600021012016F04C
:1008F0002FFB064B0022186080201121400016F0CB
:1009000027FB034B186010BD50CE002074D401208B
:1009100018D10020F0B5DE4657464E464546E0B5B4
:100920009BB01122002107A811F0D4FA00F042FA7E
:10093000070000F04DF96E4B00249A466D4B0125DF
:1009400099466D4B6D4E98461EE05346012201219B
:10095000012000F06DF94B4603220121012000F037
:1009600067F9434605220121012000F061F93300B7
:1009700007220121012000F05BF9FA200134400038
:1009800017F0E0FB0A2C0CD02542DED0002100201D
:1009900000F034F9FA200134400017F0D3FB0A2CA0
:1009A000F2D10021002000F029F9554B554C9B460F
:1009B000554B564E9A46564B564D9946564B984671
:1009C000564B0293564B0393564B0493564B059349
:1009D00018E0002304AA310007A8137730F0CAF802
:1009E000002864D0290007A830F0C4F8002806D1F8
:1009F000404613F059F80121012000F0FFF83220A1
:100A000017F0A0FB0022206807A916F015FD0128A9
:100A1000DFD00022380011A916F00EFD0128EED11A
:100A20000021002000F0EAF8169811F099F9029AD6
:100A30000090019111210CA812F008FE0CAB0122CC
:100A40000021002000F0F4F8179811F089F9039ABA
:100A50000090019111210CA812F0F8FD0CAB0322BB
:100A60000021002000F0E4F8189811F079F9049AB8
:100A70000090019111210CA812F0E8FD0CAB0522A9
:100A80000021002000F0D4F8199811F069F9059AB6
:100A90000090019111210CA812F0D8FD072201212C
:100AA00000200CAB00F0C4F800F0D6F8A7E7002156
:100AB00000F0A4F85B4600220121002000F0B8F805
:100AC000534603220121002000F0B2F84B460522D4
:100AD0000121002000F0ACF800F0BEF8134817F038
:100AE00031FB0021002000F089F800F0B5F879E72B
:100AF000443803105438031064380310743803105A
:100B00008438031018D100209438031008380310DB
:100B1000A438031014380310B4380310D438031069
:100B2000E0380310EC380310F83803108813000085
:100B3000F8B5D0248027802680252406BF01360101
:100B400067620521A7610D206D010EF0B9FD666297
:100B50000521A6610B200EF0B3FD052165620C2076
:100B6000A5610EF0ADFD6761FA20A661A5610FF0E9
:100B7000F3FDA761FA206661A5610FF0EDFDA761A5
:100B8000FA20A66165610FF0E7FDA761A661A56186
:100B9000F8BDC046D02380221B069201012809D14E
:100BA0005A61802212019A61D02380221B065201D1
:100BB0009A6170479A6180221201022801D15A611C
:100BC000F2E79A610328EFD1802252015A61F0E7DF
:100BD00070B500F04BF8FFF79BFC064D064C6A68B9
:100BE0000021200011F076F929002000FFF7BCFC5D
:100BF00070BDC046A4200020B84C0020434258419C
:100C0000FE2370B50C00084E4142084D9943280060
:100C10007268FF3111F05EF9002C00D170BD310017
:100C20002800FFF7A1FCF9E7A4200020B84C002021
:100C300070B5074D0400D2002800C900FFF70AFD77
:100C4000002C00D170BD28000249FFF78DFCF9E7A8
:100C5000B84C0020A420002010B502490248FFF73C
:100C600083FC10BDA4200020B84C002010B5002249
:100C700001210F200EF03EFD002201210E200EF07A
:100C800039FD03210F200EF01BFD03210E200EF075
:100C900017FD0248024918F03DFB10BDE824002072
:100CA000801A0600F0B589B0112205000F0003A8D4
:100CB000002111F00FF9114B1149986A10F066F9F3
:100CC0000A21040010F062F920000E000A2110F041
:100CD0005DF9FA21890010F059F90A480A00330039
:100CE0000100009703A812F09BFC012200232800BA
:100CF000524203A916F08CF909B0F0BD004005403E
:100D0000A08601000439031070B5254D84B0254933
:100D1000280018F0FFFA032100200EF0D1FC032177
:100D200001200EF0CDFC0022012100200EF0E2FC9B
:100D30000022012101200EF0DDFC012016F054FA02
:100D4000194C2421206000220A2016F001F901210B
:100D5000164B49421860206816F0FCFB002804D1AD
:100D6000134812F0A1FE04B070BD00266B2302AA46
:100D70001380682128000096693B18F0F3FA1C23C1
:100D800003AA13806821280000961A3B18F0EAFA9B
:100D9000002300220021206816F03AF9E0E7C0465F
:100DA000F0240020801A0600545900204CCE002068
:100DB00010390310014B18687047C0464CCE002014
:100DC000F0B5DE4657464E464546E0B595B017F0BD
:100DD000FBF94F4B4F4F9B464F4BBA4604934F4B3B
:100DE000089003934E4B09AE0BAC059306E00598B3
:100DF00012F05AFE0A2108A817F04AF95B4664214E
:100E0000186816F0A7FB0028F1D03B2204AB04A918
:100E1000DA738C4601232C3A6821049800936244CB
:100E200018F0A0FA01306BD0002332006821009343
:100E30000498063318F0A0FA5B46050000221868F3
:100E40000021002316F0E4F80135D0D030887588F1
:100E500043BA23806BBA6380B388C0BA5ABADBBA8C
:100E60009846039BA2801B68EDBA994610F022FFBA
:100E7000494610F0A8FE071CA060280010F01AFFD9
:100E8000494610F0A0FE051CE060404610F012FF3D
:100E9000494610F098FE234980462061381C10F026
:100EA000A6FE2049071C6061281C10F0A0FE1D4909
:100EB000051CA061404610F09AFE391C8046E06196
:100EC000381C10F094FE291C071C281C10F08FFE03
:100ED000011C381C10F074FE4146051C404610F001
:100EE00086FE011C281C10F06BFE10F03FFF5346DD
:100EF0002062002221001868002316F089F879E7A3
:100F00005B46002200211868002316F081F86EE786
:100F1000545900204CCE0020F0240020AC200020AA
:100F20003C3903100AE81C41F8B54746CE4680B567
:100F30001F00C36844201E5CB96D002E0CD0002039
:100F40000D68002D04D04C68A24206D0002C04D0BD
:100F5000013008318642F3D8002562229C5A002CC9
:100F600044D0089A2E680020156852685B6E90463F
:100F70009946305610F09EFE291C10F01EFE414688
:100F800010F035FE4B461B68F860BB60012C2DD07D
:100F90000120305610F08EFE291C10F00EFE414646
:100FA00010F025FE4B465B6878613B61022C1DD03A
:100FB0000220305610F07EFE291C10F0FEFD414646
:100FC00010F015FE4B469B68F861BB61032C0DD0F9
:100FD0000320305610F06EFE291C10F0EEFD414645
:100FE00010F005FE4B46DB6878623B620020C0BC17
:100FF000B946B046F8BDC04610B50A68036810008F
:10100000984710BD10B504000800110000681A6868
:1010100009682368984710BD10B5041E10D0002938
:101020000ED00131081801210BF0D6FA031E07D0AB
:10103000621C121860421040821EC31A138000E026
:10104000002010BD10B5831E1B88C01A0BF0C8FA13
:1010500010BDC04610B508680BF0C2FA10BDC046FE
:10106000030010B510008A0003499B00591810F0C6
:1010700037FF002010BDC046B0320020F0B5DE467C
:1010800057464E464546E0B51B68056887B0019354
:10109000AB680F009B46EB68594638681C6A16001F
:1010A0000FF074FF60435946070030680FF06EFF81
:1010B0004443A2460023BA4499465A46BA4534D915
:1010C000002A32D04B469C00019B00269C460123FF
:1010D0006444984605E0AA68731C043493421AD20B
:1010E0001E006B6828689B5D0394DB1905934346DB
:1010F00004938368002B1AD0C36804AA9B4605A9F1
:1011000003ABD8470028E6D007B0F0BCBB46B246D8
:10111000A946A046F0BDEB681B6AFF18BA4504D982
:101120004B46B14601339944CAE70020ECE72DF065
:101130005FFBC046F0B5DE4657464E464546E0B535
:1011400093688BB0040004915069874905932FF090
:1011500011FD23002269002800D08CE09146002A6E
:1011600000D180E00022002490464A469A4602922E
:1011700003948022029BD2000093934200D90092F4
:10118000009C059B20005843012180000BF024FAAD
:101190000190002800D1E2E0534642469B68079246
:1011A00008940990002B00D1DBE053465046DD68DF
:1011B00008AA09AB07A9A847029B002B44D0002628
:1011C000049A00251268FF279346B146039B9B00B3
:1011D0009B44019B585910F0BDFD0400000A3840A3
:1011E00010F063FD614910F0EEFC614910F0FFFC66
:1011F000061C200C384010F058FD5C4910F0E3FC50
:101200005C4910F0F4FC011C301C10F0D9FC061CE9
:101210002000384010F049FD544910F0D4FC5649E4
:1012200010F0E5FC011C301C10F0CAFC5B46585164
:1012300001239C46009BE14404359945C9D31A001B
:101240009446039B63440393029B009A01989B1A64
:1012500002930BF0C5F98023DB009C4653461B69C3
:10126000E044984585D300200BB0F0BCBB46B246A5
:10127000A946A046F0BD9346002AF4D0002292462B
:101280005A4601925246D3469A46059C02928022C3
:10129000019BD2009846934200D990464046604355
:1012A000012180000BF098F90090002857D05A4691
:1012B0005346079242469B6808920990002B50D0F3
:1012C00053465046DD6808AA09AB07A9A847019B09
:1012D000002B34D00026049A029B15689B00ED1861
:1012E000A146FF2734002E00009AA300D05810F02A
:1012F00031FD0500000C384010F0D7FC1B4910F000
:1013000062FC3060280A384010F0CFFC174910F01A
:101310005AFC70602800384010F0C7FC134910F0E8
:1013200052FC0134B0600C36A045DDD8029A434629
:1013300094465B0043449C4463464C4602934246B9
:10134000019B00989B1A01930BF04AF98023DB0064
:101350009C4653461B69E3445B4598D883E707489E
:1013600082E72DF045FAC0466839031000007F433C
:10137000A245163F8716993ED578E93D16FCFFFF3A
:10138000F0B557464E46DE464546E0B507009BB0F1
:10139000101C19931A007B680E1C002B00D164E10D
:1013A0005310099310F0DCFCB44AB54B10F04DF823
:1013B0000400301C0D0010F0D3FC0B0002002900CB
:1013C000200010F028F810F069F910F029F9041C39
:1013D00010F0C6FC16901791211C201C10F007FC81
:1013E000099B10909B000893002312971193129B66
:1013F000099D1A689C68119B04216343280015927B
:1014000018930BF0E9F80421019028000BF0E4F8A0
:101410000421029028000BF0DFF80421039028003B
:101420000BF0DAF80421834628000BF0D5F80421EC
:10143000804628000BF0D0F88246002D00D1FAE05B
:10144000199810F075F802000B000FF0DFFF0A90FA
:101450000B911698179902000B000FF0D7FF0C9014
:101460000D91FE20109D8005291C10F0A6FB10F0A8
:1014700077FC0B0002000FF0C9FF002700260E903A
:101480000F91281C10F06CFC5B46B146C346B84671
:101490000690079113941493484610F049F80200FF
:1014A0000B000FF0B3FF0022764B0FF0AFFF734A33
:1014B000734B0FF0CAFF0A9A0B9B0FF0ACFF10F0B2
:1014C000DBF810F0ADF810F04BFC0C9A0D9B0FF010
:1014D000BCFF069A079B06000F000FF097FF002243
:1014E000684B0FF093FF10F09BF8041C011C109840
:1014F00010F069FB4246019B9850201C10F030FC14
:1015000002000B0004000D000E980F990FF083FFEE
:1015100010F086F84246029B9850320006980799D0
:101520003B000FF06EFF0022564B0FF06FFF802242
:10153000120694460B00634405930490220004981D
:1015400005992B000FF067FF10F06AF84246039BE5
:10155000985001239C460333E1449C46099BE04498
:101560004B4599D1149B139CD8469B46002C62D0C6
:101570001599189A894693009944A3189B00CE1890
:101580000696002443461959029B185910F02FFB68
:1015900053461959039B051C185910F028FB011CD0
:1015A000281C10F00DFB4B46196810F009FB5B4638
:1015B00018514346051C185910F0D2FB02000B00CD
:1015C0000FF024FF0600281C0F0010F0C9FB0200DA
:1015D0000B00300039000FF019FF53460600185970
:1015E0000F0010F0BDFB02000B00300039000FF0BF
:1015F0000DFF019B060018590F0010F0B1FB02000F
:101600000B00300039000FF020FF10F009F84B46B6
:101610001860434652461B5913515B4642461B59BC
:101620001351089B04349C42ACD104239C46069B76
:10163000E1444B45A5D101980AF0D2FF02980AF087
:10164000CFFF03980AF0CCFF58460AF0C9FF404686
:101650000AF0C6FF50460AF0C3FF129B119A5B685E
:1016600001321192934200D9C1E600201BB0F0BCB8
:10167000BB46B246A946A046F0BDC046182D44540C
:10168000FB2109400000F03FF0B557464E46DE46CC
:101690004546E0B507009BB0101C18931A007B6804
:1016A0000E1C002B00D176E15310079310F058FB6D
:1016B000BD4ABE4B0FF0C9FE0400301C0D0010F0F7
:1016C0004FFB0B000200290020000FF0A4FE0FF0DA
:1016D000E5FF0FF0A5FF041C10F042FB14901591DC
:1016E000211C201C10F083FA079B3C009B001993DF
:1016F000002317900E932368A56813930E9B079EF3
:101700006B430421300016930AF066FF0421019018
:1017100030000AF061FF0421069030000AF05CFFFF
:101720000421834630000AF057FF0421824630002E
:101730000AF052FF0421070030000AF04DFF8046F6
:10174000002E00D10DE118980FF0F2FE02000B0000
:101750000FF05CFE089009911498159902000B0097
:101760000FF054FE0A900B91FE20179E8005311C4D
:1017700010F023FA10F0F4FA02000B000FF046FE0E
:101780000C900D91301C10F0EBFA52460023109291
:10179000424699469846A246029003910F951197AA
:1017A000129240460FF0C4FE02000B000FF02EFE16
:1017B00000227F4B0FF02AFE7B4A7C4B0FF045FE48
:1017C000089A099B0FF027FE0FF056FF0FF028FF35
:1017D00010F0C6FA0A9A0B9B0FF037FE029A039B91
:1017E00006000F000FF012FE0022714B0FF00EFEEC
:1017F0000FF016FF041C011CFE20800510F0E3F919
:101800004A46019B9850201C10F0AAFA02000B00D7
:1018100004000D000C980D990FF0FDFD0FF000FF76
:101820004A46069B98503200029803993B000FF0FD
:10183000E8FD00225E4B0FF0E9FD8022120694467F
:101840000B006344059304902200049805992B0033
:101850000FF0E1FD0FF0E4FE5B464A46985001238D
:101860009C460333E0449C46079BE144434598D1A2
:10187000129B0F9D9846109B5446119F9A46002D2F
:101880006FD01399169A89469446930099445B4603
:1018900065448C46AD000293199B654408950A94F3
:1018A000454654469A46D3460026A846A246069B7D
:1018B000B959985910F09BF943469959029B041C59
:1018C000985910F094F9011C201C10F079F94B463E
:1018D000196810F075F95346985110F041FA040058
:1018E000B8590D0010F03CFA02000B000FF08EFD0D
:1018F00002000B00200029000FF083FD4346040086
:1019000098590D0010F02CFA02000B00200029005D
:101910000FF07CFD019B040098590D0010F020FA97
:1019200002000B00200029000FF08FFD0FF078FE61
:101930004B4642461860BB59935153469B59BB5185
:1019400004365E45B3D104239C46089BE1445446CB
:101950004546DA464B45A6D1029B90469B46A24699
:101960000A9C01980AF03CFE06980AF039FE584697
:101970000AF036FE50460AF033FE38000AF030FE18
:1019800040460AF02DFE0E9B01331A000E93636849
:10199000934200D9AFE600201BB0F0BCBB46B24674
:1019A000A946A046F0BDC046182D4454FB2109406D
:1019B0000000F03F012A07D0022A09D0032A01D0F3
:1019C000002A03D0002070470160FBE70260F9E7BE
:1019D0000B680360F6E7C046012A07D0022A09D047
:1019E000032A01D0002A03D0002070470160FBE7E2
:1019F0000260F9E70B680360F6E7C046012A07D0EA
:101A0000022A09D0032A01D0002A03D000207047FF
:101A10000160FBE70260F9E70B680360F6E7C04688
:101A2000012A07D0022A09D0032A01D0002A03D0B4
:101A3000002070470160FBE70260F9E70B68036074
:101A4000F6E7C046F0B5DE4657464E464546E0B599
:101A50000C0083B000286BD0036A1B68002B67D092
:101A60001D68002D64D09F68002F61D01A69002A7C
:101A70005ED05E68002E5BD0DA68002A58D05B69C1
:101A8000002B55D0496801293DD1A368416898468B
:101A90008B422BD19E423FD1B24238D123689B4624
:101AA000002B00D184E000230193D9465C46002638
:101AB00009E02968206810F080F8206001360434BD
:101AC0000435B04537D9002CF3D1012104200AF0A8
:101AD00083FD8246002825D02968006810F06DF843
:101AE0005346186050460AF07BFDE7E71A00374876
:101AF0000AF04AFD1820404203B0F0BCBB46B24693
:101B0000A946A046F0BD32480AF03EFDF2E731009A
:101B100030480AF039FDEDE7320019002E480AF08E
:101B200033FDE7E75B46002B02D0019B002B48D139
:101B30001E204042E0E7002415E0FE213D688905B3
:101B4000281C10F083F8002806D14B46291C186881
:101B500010F04DF84B46186004239C460134E144D4
:101B60000437A04519D94B46002BE6D101210420AA
:101B70000AF032FD051ED5D0FE213E688905301CD5
:101B800010F064F8002804D12868311C10F02FF8F8
:101B9000286028000AF024FDDEE75B46002B05D014
:101BA000019B002B02D058460AF01AFD0020A3E743
:101BB0004346012198000AF00FFD0123834601935B
:101BC00073E758460AF00CFDB2E7C046C839031067
:101BD00074390310583A0310103A031082B0F0B56C
:101BE00045464E46DE465746E0B585B00F93531E38
:101BF0008846D90FC918109B039299460F9B050080
:101C0000009301231A4049100192884570DA4B462F
:101C100044468B4681460293671C7D006B1EDE00A6
:101C20003F014F444E44796870689A4610F016F8A8
:101C3000E4004C44002807D0330006CB06C4D3454B
:101C400044DD55462C00E7E73B0006CB06C4AB4518
:101C5000F8DC029BBB462F004D469946019B002BAA
:101C600006D103980238C10F09184910B94233D080
:101C7000791ECE0F7618761047450BDC15E0230051
:101C8000721E03CB03C7D30F9B1837005B10B04500
:101C90001ADA1E00F4002C19FF0049466068EF199B
:101CA0000FF0F2FF0028EAD1BB465B46009A1A60AB
:101CB0004A465A6005B0F0BCBB46B246A946A046AB
:101CC000F0BC08BC02B01847A346EEE7029B4D46A5
:101CD00057469946B346C1E778000130C1006918FC
:101CE0005C460E008B460CCE0CC43E000700C3E7DA
:101CF0004346DB009B46019B8344002BD5D14746DE
:101D0000AFE7C046F0B545469846130057464E46E5
:101D10009246DE46013BDA0FE0B5D2185746012362
:101D20000500894687B052101F40914259DA534648
:101D3000049343460E008146019202970391059356
:101D400000E02E00771C7D00FF006B1E4F449C00BE
:101D50009A463B684C44984623684146181C9B466B
:101D60000FF092FF002802D0D846270055464B4678
:101D70004246B600F250019BAB42E2DC039B2C00D2
:101D80004D469946049BBB469A46029F059B984642
:101D9000002F2CD0621ED60FB618AA4676104C45DE
:101DA00009DC14E0721ED30F9B1825605B10340011
:101DB000B1452CDA1E00B70057443D68A4004146E7
:101DC000281C54440FF04AFF0028EBD1A3465B4681
:101DD00042461A6007B0F0BCBB46B246A946A046D0
:101DE000F0BD8B009B468344002FF0D14C465146FA
:101DF0000239CA0F521852109442CBD15B4664008C
:101E00000134A200AA18116893461960C2E7BB46C4
:101E1000DDE7C046F8B54E46DE46574645468146A4
:101E2000E0B588423FD00300083399423BD00823F5
:101E30005B429B4606008B440FE04B46F21A082A91
:101E400037DD0823981A494630182FF01DFB4B4602
:101E500052465D601A60B34525D0B0464446A3683B
:101E6000E5689A464B4608365968281C37000FF03B
:101E70000BFF0028E1D16168281C0FF005FF002846
:101E80000CD023002200083303CA03C32700083CF8
:101E90006168281C0FF0F8FE0028F2D153467D60DF
:101EA0003B60B345D9D1F0BCBB46B246A946A0467B
:101EB000F8BD082ACBD143464A46083303CA03C3B8
:101EC000C5E7C046F0B5DE46574645464E46E0B546
:101ED00085B082468B4602920D1A402D00DCBBE095
:101EE000029B002B00D198E0534604330393029BDE
:101EF000013B029353465E6804235B425B44984671
:101F00001B68EC1099465346A40054442568301CC5
:101F1000291C1F680FF0A2FE4946002850D0281C3B
:101F20000FF09CFE00286FD14946301C0FF096FE42
:101F30005346002851D11E605F6043461B68984697
:101F4000039B391C99465B46301C043B01930FF000
:101F50009BFE4B461C1D002830D025000434231F57
:101F60001F68311C381C0FF079FE0028F5D12C00B9
:101F70004146301C019D0FF071FE002808D0043D41
:101F80002B68311C181C98460FF07EFE0028F6D1F5
:101F9000A5422BD92300424604C3994653462F60DD
:101FA0001E6867682B1F01931B68391C301C9846FC
:101FB0000FF06AFE4B461C1D0028CED14C46D7E7D9
:101FC000301C0FF04BFE53460028B4D14946281C64
:101FD0000FF044FE002817D053464A461A60434685
:101FE0001F605346B8461E685F68A9E7594620003F
:101FF000029AFFF767FF5346E51A402D2CDD029B3E
:10200000002B0BD0A34673E753461D6027605F6823
:102010001E6843461B68984692E70C00AD10AE1E42
:10202000761000E0013E5246B300D35831002A003A
:102030005046FFF767FE002EF4D1043C524612686A
:10204000236822605246A51A00215046AA10FFF7C5
:1020500059FE043C042DF1DC05B0F0BCBB46B24691
:10206000A946A046F0BDC046F0B5C646884600B5B4
:102070001F000669050014000AF082FA4346186042
:10208000596016487368984700281ED12100002027
:1020900033699847002811D12B7B0024002B05D1F0
:1020A0000FE001342A7BE3B29A420AD9A300F9581F
:1020B000AB687269185D90470028F2D00320404257
:1020C00000E0002080BCB846F0BD054B01001800C0
:1020D0000AF05AFA06204042F4E7C04619100010F0
:1020E000A03A0310F0B557464546DE464E4604007A
:1020F000E0B58BB00390924608001D1C0C1B802C91
:1021000000DCF0E0002A00D1F4E0039B2600083355
:10211000059306936B465746DD77039B0491082190
:102120009C4636114942F600DA6866448C4693466E
:10213000726858469246049A5146624491465268E3
:102140001D0090461A685C6802920FF09DFD013FE9
:102150004146002800D184E050460FF095FD2B0049
:10216000002800D084E0414658460FF08DFD039BC7
:10217000002852D11800059D06CD06C0029ADC60E9
:102180009A604B465B6805909846049BBB46029359
:10219000039B069E9A463500261C53465C68301CFD
:1021A000211C2F000FF070FD0837002809D03D00DA
:1021B00008373B1F1E68211C301C0FF065FD0028EE
:1021C000F5D14046211C0FF049FDA946029D103D66
:1021D00000282ED02F00211C6868083D0FF03EFD1E
:1021E0000028F7D13B000297994527D21A004B46A9
:1021F00014004D461B6803CC03C5136013005660E2
:102200004A46083B5B68D6689846C6E74146504652
:102210000FF03AFD039B00282AD018004D4606CD4A
:1022200006C04A4602995460A0460590DC681160D9
:10223000ABE7029B083B02939945D7D35F466B46B9
:102240003A00DB7F48460499FFF74CFF4B46039A60
:102250009E1A802E47DD002F17D04B4604931300A3
:102260005DE758460FF010FD0028CFD0039B81E7B3
:102270001800350006CD06C07460DC684B46029A33
:102280005B680590984632607FE734001500E410E3
:10229000A71E7F1008AE00E0013F3200FB00EB18E4
:1022A00003CB03C27368220000933900280033680F
:1022B000FFF794FC002FEFD14C46039D083C220011
:1022C000330003CA03C323002A0003CA03C373688D
:1022D000671B0093002128003368FA10FFF77EFC8B
:1022E000083C082FEBDC0BB0F0BCBB46B246A9465D
:1022F000A046F0BD8146039DC9E7C046F0B55746EC
:10230000DE464E464546E0B546688246B7000121A6
:10231000380087B00AF060F9051E00D193E05346FB
:102320005C68A64200D08CE0002C7DD09E68A3465D
:1023300030000FF0BAFCB300994601930023984691
:10234000534631007A1900921A684E462C00924684
:10235000894602900395049505934B460020002B77
:102360000AD043469D005346002055449F1902CD94
:102370000FF026FCAF42FAD102990FF024FC019B2A
:1023800001C49C46009BC8446644A342E5D1049B1B
:102390005C469B46059B52469A4600234E4699460C
:1023A0004B46904673439B0098444346039D0195DA
:1023B000002B27D05B461F6800230093002E0ED011
:1023C000454600242868391C0FF0F7FB013401C58D
:1023D000B442F7D3009B002B21D153465C68012304
:1023E0009C460333E1449C46E344A1451BD253463B
:1023F0009E681A684B46904673439B009844434638
:10240000002BD7D10121B0000AF0E6F88046002861
:1024100016D05B461F6801230093002ED0D14046A2
:102420000AF0DEF8D9E7019D002428000AF0D8F868
:10243000200007B0F0BCBB46B246A946A046F0BD9E
:10244000019D024CF1E7024CF2E7C04614FCFFFF8D
:1024500016FCFFFFF0B5DE4657464E464546E0B552
:10246000A7B00E9332AB1B7810900993319B039168
:102470005B0813930D0001330021160021AF0822E1
:1024800022A89C0007930FF025FD3A00C74B21942A
:102490001F931CAB03CA03C3C54B1E930023209399
:1024A000319BAB4200D968E1109A1319043B1B68B9
:1024B0000692159301230C930E9A309B00219B1AD0
:1024C0009B001A00300098460FF004FD039B002B80
:1024D00000DC02E1109A319B9446069A9BB2934627
:1024E00011935B0801330893079BDB000493319B36
:1024F0009B000F93231F634414930E9B5C449B002B
:102500009B4400230293AB4B12940A93AA4B0B9368
:102510003199029B8C461A000D0003996244059282
:102520008A4200D9CD1A079B089A934200D022E133
:1025300004980AF04DF818AB9A46040008220021CE
:1025400019A80FF0C7FC0A9B524618930B9BFB601F
:102550003B0003CA03C3994B3C61BB60002C00D114
:10256000E1E001210F980AF037F88146002800D1F8
:10257000D3E0319B9D4200D91D00029BA800990029
:10258000109B02009C460D90614448460FF0A8FC49
:10259000319B0D985A1B0021920048440FF09AFC81
:1025A00053460022009300210023319809F05EFE7B
:1025B000051E00D1D0E04946220009F01BFF28008B
:1025C0000AF00EF848460AF00BF8049B9A46069B60
:1025D000A24499464346B0460D9320686668011CA4
:1025E0000FF005FB311C051C301C0FF000FB011C1B
:1025F000281C0FF0E5FA0FF0B9FB4B46083401C375
:1026000099465445E9D10D9B259A46469846BB68A4
:10261000002A00D190E000241792002B00D1C2E0E4
:10262000FB68380017A9984700232593BB68002B47
:1026300003D00322390038009847002C00D089E0ED
:1026400011980FF032FB0FF08BFB0B0002005C497E
:1026500000200EF0E0FE069C129BB1469A46260032
:102660000D0004003068011C0FF0C1FA0FF078FB78
:1026700022002B000EF0E9FE0EF0D2FF01C65645F7
:10268000F0D1309B0E9A4E460024934210D94B460F
:102690001E595B461D59311C281C0FF0F5FA002805
:1026A00000D1351C4B461D510434A045EFD14E4698
:1026B000099B002B2ED00C9B002B02D0149B159A4B
:1026C0001A60139A029B94466344029300230C936E
:1026D000029B039A934200DA1AE70024209B1E9A79
:1026E000002B06D01893002A5DD01F9B18A91CA8A8
:1026F0009847002320931E9B002B03D01CA9032284
:1027000008009847200027B0F0BCBB46B246A94657
:10271000A046F0BD059B0293DAE7259ABB68002A24
:1027200012D0284C78E7284809F02EFF259A002A75
:1027300018D0244CBB686FE7002B00D180E7032240
:102740003900380098477BE7002B03D03900380068
:10275000033298471B4CC1E7484609F041FF259AD0
:10276000002AE6D1BB68002BF4D0032239003800E0
:102770009847144CB2E7154CB0E70421079809F0CC
:102780002BFF209B06902090002B07D016931E9BBA
:10279000002B08D01F9B16A91CA8984700230C9358
:1027A0000023159388E62CF023F8C046551000103E
:1027B000D9190010E1C50010F90F0010B51900106B
:1027C0000000F03F16FCFFFFFC3A031014FCFFFF73
:1027D000F0B5DE464E4645465746E0B51E00436816
:1027E00004000D00934689B0012B00D0B8E04B687F
:1027F000012B00D0B4E09368012B00D0B0E0536807
:102800007068013B984200D0AAE0B368012B00D069
:10281000A6E0A2688B689A4200D0A1E00121800066
:1028200009F0DAFE0390002800D195E05B46586875
:1028300001210138800009F0CFFE0190002800D16D
:102840008CE05B465B68AA680293013B9846002ACD
:102850002ED02B68059204932368079606930023D5
:1028600099469B009A465246049B9E58029B012B18
:1028700016D05B46002400251F68AD007859311C36
:102880000FF0F2F9002806D07B195868311C0FF0C0
:10289000FBF9002845D10134A4B225004445ECD30E
:1028A0004B46059A01339BB299469342D9D3079E72
:1028B000029B012B1DD0336800249946002300257C
:1028C0009A464F46019BAD005E5900217B19301C92
:1028D00099460FF0BBF900281AD1039B311C5859B7
:1028E0000FF071F94B460134A4B22500186044453D
:1028F000E8D3019809F074FE0024039809F070FEF3
:10290000200009B0F0BCBB46B246A946A046F0BDC7
:102910004B4652460134A4B225001A604445D1D337
:10292000E7E75246039B5C19069B206899580FF015
:1029300047F9019BFE219C46206065442868890573
:102940000FF03EF94B46059A01339BB29946286039
:10295000934200D285E7AAE7024CD1E7014CCCE7CD
:10296000014CCDE716FCFFFF14FCFFFFF0B5454618
:10297000DE4657464E46E0B58DB0069316AB1400C2
:102980001A88436888460492012B00D023E14B68E3
:10299000012B00D01FE15208531C99468B68170089
:1029A00005924B4500D016E16368012B00D012E17F
:1029B000A368994500D00EE103680993002B00D16C
:1029C000F6E00B68002B00D1F2E02368002B00D169
:1029D000EEE083689A46049B9A4500D2DCE000D979
:1029E0009A46049B012118008000079309F0F4FD2A
:1029F000021E089000D1DBE007980023002806D0D3
:102A0000FE21890501339BB202C29842FAD1049893
:102A10000FF050F9051CFE20069980050FF0D3F841
:102A2000011C281C0FF0E3F8011CFE2080050FF0AC
:102A3000CAF825680024061C20000FF036F9311C66
:102A40000FF0D5F82300013401C5A4B29F42F3D1A1
:102A5000012104209B4609F0BFFD0390002800D10E
:102A6000A8E05346002B00D1B7E0099D0024AC46F6
:102A70002E009F006744201C02CD0FF0A1F8AF424A
:102A8000FAD1041C50460FF010F9011C201C0FF065
:102A90009AF8039B041C18603068211C0FF08DF815
:102AA00001C6B742F8D14B460121D80009F094FD88
:102AB000059B04000133994500D087E0049E012165
:102AC000B00009F089FD051E00D190E0564500D9FF
:102AD0005646B7003A00099928000FF001FA049B06
:102AE00000219A1B9200E8190FF0F4F90BAB009348
:102AF000002200230021049809F0B8FB061E00D133
:102B000072E007980FF0D6F806990FF070F8011CE4
:102B1000FE2080050FF057F8290022008146300082
:102B200009F068FC300009F05BFD280009F058FD51
:102B300043461B6825009846002300269A460494C5
:102B400009E0011C0FF03CF84346286001C3984699
:102B50000136B6B20835534628686C68011C6B60B4
:102B60000FF045F8211C071C201C0FF040F8011C39
:102B7000381C0FF025F849460FF039F82860B345A6
:102B8000DFD14346049C1860200009F029FD002590
:102B9000039809F025FD0EE0534650469BB20121F3
:102BA0008000079309F018FD021E089000D023E76B
:102BB000104D03E00F4D089809F012FD28000DB0EC
:102BC000F0BCBB46B246A946A046F0BD0A4D200067
:102BD00009F006FDDCE7094DF0E70021081C0EF0C6
:102BE000F2FF039B18605EE7280009F0F9FC014D35
:102BF000EDE7C04616FCFFFF11FCFFFF14FCFFFFD2
:102C0000F0B54E46DE4657464546E0B59BB01E1C25
:102C100024AB1B7889469B4625AB1B780A9009920A
:102C2000002B00D05AE3099BC3495C6920002DF0BA
:102C3000A1FF002800D017E1099BDB69002B00D021
:102C40009AE35B46002B01D000F051FCFC21099B6C
:102C50008905301C9D695F6A0EF0C9FF291C041CA0
:102C60000EF0FCFF002801D100F091FC38000FF0BD
:102C70001CF8211C0EF0BBFF311C0EF0A4FF0FF05E
:102C80006FF80022AD4B0EF0C1FB0EF08DFC01235E
:102C90001490421C49460E680A994D68002D00D1D7
:102CA000DAE01499B14689001291D11A890016917F
:102CB00099001591002110920B91179611930A9A81
:102CC000936812689B469B009A4651460B9B4B4368
:102CD000D31800220C9307930D92002B00D17AE1B8
:102CE0004B46069300230E934B46002B00D181E107
:102CF00058460EF0DAFF5B46041C002B00D1FDE0C5
:102D00000025079F3E00574401CE011C0EF06FFFC7
:102D1000011C281C0EF054FF051CBE42F4D1211CDE
:102D20000EF051FF0FF022F8069B002118604B4671
:102D30001E68301C0EF08AFF002800D0D9E0311C3C
:102D4000301C0EF054FF311C0EF051FF011C804668
:102D5000301C0EF04CFF08900C9A53469446634486
:102D600005934B4600260F93231C91469A46341C2C
:102D70004B4620CB291C281C99460EF038FF291CF5
:102D80000EF035FF011C071C201C0EF019FF391C2A
:102D9000041C281C0EF02BFF011C301C0EF010FF31
:102DA000059B061C9945E3D10F9B99465346A246C5
:102DB000191C50461C1C0EF006FF211C051C301C63
:102DC0000EF001FF061C4146281C0EF0FCFE4B468F
:102DD00008995860301C0EF0F6FE59490EF0EDFED1
:102DE0004B464C46099A9860536A92880C34042AE0
:102DF00000D107E1352209990C988A5C0193109B58
:102E00000292009322005946119BFFF723FB0028F2
:102E100000D0ADE23423099AD35C002B00D097E0B8
:102E2000129BE518069BA946002B03D00E9B002B96
:102E300000D0C8E0079B002B03D00D9B002B00D0D7
:102E4000C5E00A9B0B9A5B6801320B92934200D952
:102E500035E7179EAD1BAD1028001BB0F0BCBB467C
:102E6000B246A946A046F0BD200036492DF082FEAC
:102E7000002831D1099BDB69002B00D025E35B469C
:102E8000002B00D019E3FC21099B8905301C9F69A8
:102E90005C6A0EF0ACFE391C051C0EF0DFFE00284B
:102EA00000D131E320000EF000FF291C0EF09FFE40
:102EB000311C0EF088FE0EF053FF204B00220EF066
:102EC000A0FA0EF071FB431C013000D1012362080F
:102ED0000132D11A1491DDE65B46002B00D0FFE2EF
:102EE000099B5A6AD30F9B185B105A1C1493012339
:102EF000D0E6154B0893154B98462DE7011C002092
:102F00000EF061FE051C0EF031FF069B00211860DB
:102F10004B461E68301C0EF099FE002800D198E147
:102F20000020211C0EF04FFE074B051C0893074B99
:102F3000061C984647E7C046103B03100000E03FE0
:102F400000004040143B0310C21601006142A20D74
:102F5000149B002B00D163E72600129BD74FE51886
:102F6000002130680EF072FE002800D03760043671
:102F7000B542F5D1206819A94000400830F0F4F9B5
:102F8000CF49061C0EF033FECE490EF016FE011C92
:102F9000301C0EF02CFECC490EF012FE011C301C31
:102FA0000EF025FEC9490EF008FE061C19980EF019
:102FB00081FE311C0EF004FEC5490EF018FE01C45E
:102FC000A542D7D12EE7069809F00AFB32E7079809
:102FD00009F006FB35E70121504609F0FDFA01230F
:102FE0000D934B46069300230E934B460790002B00
:102FF00000D07DE60121042009F0EEFA01230690BD
:103000000E9375E68022DE0FF618761001369205D3
:10301000964200D398E2002E00D129E1B4002000AE
:1030200009F0D6FA2200002182460EF053FF352324
:10303000099A5946D35C0C980293536A52460193FD
:1030400000960023FFF706FA002800D098E201213D
:1030500004301394A61009F0BFFA00240C90002548
:10306000201C5446AB00E15801350EF0A9FDAE42DC
:10307000F8D8A246041C30000EF017FE011C059083
:10308000201C0EF0A0FD002500274B468346B146CC
:10309000A8463E0008935246B300D05859460EF059
:1030A0008CFD011C041C0EF0A2FD011C071C201C41
:1030B0000EF09DFD011C281C0EF082FD391C051C24
:1030C00040460EF07DFD01368046B145E3D8089BB1
:1030D00005994E4699460EF076FD041C011C0EF033
:1030E00086FD211C0EF083FD0EF040FE00212F1CFA
:1030F000041C0EF0ABFD002844D10023D0460F93F2
:103100000599381C0EF05FFD211C0EF05CFD0C9B38
:1031100018604B46D860139B002B3BD10021081C44
:103120000EF051FD011C051C0EF061FD041C211C5C
:10313000281C0EF048FD67490EF03FFD0C9B4C46E5
:1031400018604B46109A1861119B1434934208D2B0
:103150000023159916985144CA58E250043383420B
:10316000FAD10C9809F03CFA4346002B02D00F9B91
:10317000002B64D15346002B00D14BE6504609F09A
:103180002FFA47E600230C9AD04613604A46D360D4
:1031900000230F9300240025201C4446AB00E15877
:1031A00001350EF00DFDB542F8D3A046041C3000E9
:1031B0000EF07BFD011C0890201C0EF004FD002584
:1031C0000027B34605902E1C4246BB00D0580599F7
:1031D0000EF0F3FC011C0EF00AFD041C011C301C57
:1031E0000EF0EEFC211C061C201C0EF000FD011C44
:1031F000281C0EF0E5FC0137051C5F45E4D3B346FF
:10320000089E5846311C0EF0DEFC011C0EF0EFFC4F
:103210000021041C0EF01AFD002814D02E4B0C9A2D
:103220004C4613604A461361119B109A1434934222
:103230008ED30C9809F0D4F90F9B002B9AD04046FE
:1032400009F0CEF996E7281C311C0EF0BCFC051CD9
:103250006DE7311C301C0EF0CAFC311C0EF0C7FCAF
:10326000011C8046301C0EF0C2FC2E1C0890AAE502
:10327000352209990C988A5C01930292002300225E
:1032800059460096FFF7E6F81390002849D0069BB0
:1032900005009B465B46002B03D00E9B002B00D005
:1032A0002EE1079B002B00D1D6E50D9B002B00D112
:1032B000D2E5079809F094F9CEE5C046FFE6DB2E8B
:1032C000A8A19D3FF5CA8340FBB3C040E0924840AF
:1032D0009B209A3E00004040000040C04468856842
:1032E000012C01D0012D76D1FE21099A0A9BD768C5
:1032F0005D609C608905381C0EF0A8FC002800D099
:1033000091E46C43002C00D18DE40A9BA4001D685D
:1033100064192868391C0EF06AFC01C5A542F8D171
:1033200081E40121002009F057F9012180460420A1
:1033300009F052F900210C90081C0EF044FC041C0A
:10334000011C0EF054FC211C0EF051FC00270EF065
:103350000DFD391C041C0EF079FC002835D00C9BA7
:103360001F604B46DF6001230F9300239A46D5E68A
:10337000069B05009B468DE7099A0A989269DBB285
:10338000311CFDF7FDFF051E00D065E55B46002BF7
:1033900000D0D1E0FC21301C89050EF028FC099CEE
:1033A000051C606A0EF081FCA769291C041C381CEE
:1033B0000EF06AFC002800D0D9E0211C381C0EF069
:1033C00016FC311C0EF0FFFB59E401230F93002380
:1033D00005979A4694E62B0063435A1E00270792EE
:1033E000002B00D0B3E00A9A1368059301239A4694
:1033F0001E3398462B0015005A46B3462600544605
:1034000092460599A20052582000190006920BE03E
:1034100001228A40196811431960844200D189E071
:10342000089BA9686E6806930DF0B0FD059A71437C
:1034300094460818830063441A68C6170892069ACF
:103440001A60F20E94468118424643461140624685
:1034500033401B185B119B00FB18891AD8D5012239
:1034600020318A401100043B1A68114319608442DC
:10347000D6D131000AE0012191401B680B4218D0DF
:10348000079A431C824249D91800D917434644463B
:103490000B401B18C90E5B1142189B002240FB1801
:1034A000521AE8D5012120329140043B1B680B429F
:1034B000E6D10400AB686E68A3E70A98FEF71EFF2A
:1034C000002800D1DFE40500C6E4099A0A98926951
:1034D000DBB2311CFEF7D8F8051E00D1CFE4BBE407
:1034E0000A98FEF70BFF002800D1F9E4EBE70A98F1
:1034F000FEF704FF002801D1FFF7A8FB0500ABE4AD
:10350000584609F06DF8CCE620000EF0CEFB391CD1
:103510000EF06DFB311C0EF056FBCCE45E460A95B6
:10352000D346002F02D0380009F05AF80A9B5C6895
:103530009D68D9E63100A9E70A98FEF7DFFE00286A
:1035400000D127E7050087E416482BF01DF91F334B
:103550005C09A400200009F03BF8071E03D02200FC
:1035600000210EF0B7FC0A9B9D685C683BE7211CBC
:10357000281C0EF03CFB311C0EF025FBFFF77FFBF7
:10358000069B050050469B4609F02AF882E6380063
:103590000EF08BFB291C0EF02AFB311C0EF013FBE6
:1035A000FFF76DFB1C3B0310F0B54F46D646464671
:1035B000C0B58946070082B000284CD0C3680025FA
:1035C0009846DB6C002B05D11EE04346DB6C0135D1
:1035D000AB4219D93E69002E01D0AB009E5942463C
:1035E000146D6B01E418E2690196A3692900009348
:1035F00038004B462469A0470028E6D002B0E0BC62
:10360000BA46B146A846F0BD44234246D25C002AE1
:103610001FD04B46002100248A4644279B6D0BE0B7
:10362000280008F0DDFF4B4652469B6D9A514246FA
:10363000D25D0134A2420CD9E6009D59002DF8D08C
:1036400028680028ECD02B7B002BE9D008F0C8FFBD
:10365000E6E70020D2E70B204042CFE7F0B557461F
:103660004546DE464E46E0B583B00C9B82461500CB
:10367000002B00D187E00023002699460193534692
:103680001C6829786368A2685A43019B9C4694444D
:103690006346019303290FD009294ED001292FD069
:1036A0003E4808F071FF0D20404203B0F0BCBB461D
:1036B000B246A946A046F0BD0027002A0AD12DE057
:1036C000FF205B46424698546268A3680137534323
:1036D000BB4223D92268BB009858E9680EF073FA00
:1036E0000EF084FB6B68B0469B460EF005FB2B6921
:1036F0000136C018FF28E3DCC343DB171840E0E7BE
:10370000002A0BD06868B300C01800232768940013
:10371000F958C1500433A342FAD1B61801239C468C
:103720000C9BE1444B45AAD1A969019A8B089342AD
:1037300001D091422BD10020B7E70027002A0AD1FF
:10374000ECE77F205B46424698546268A3680137E5
:103750005343BB42E2D92268BB009858E9680EF097
:1037600032FA0EF043FB6B68B0469B460EF0C4FA8B
:103770002B690136C0187F28E3DC03008033E1DACF
:1037800080204042DEE7916900228B08D3D00448B4
:1037900008F0FAFE1820404287E7C046503B03106D
:1037A000743B0310F0B5C6464D680B0089680400F1
:1037B0004D43017800B5032927D009290DD00129EF
:1037C0003AD182699108A9423CD1186861680EF02B
:1037D00087FB002080BCB846F0BD8769AF423DD171
:1037E000002FF6D00269456890461E687F190020B8
:1037F000434628560135C01A0EF05CFAE1680EF017
:10380000F6F901C6BD42F2D1E3E78769AF4225D19F
:10381000002FDED00269456890461E687F19434636
:1038200028780135C01A0EF045FAE1680EF0DFF98C
:1038300001C6AF42F3D1CCE70B4808F0A5FE0E203D
:103840004042C7E70321D3171940891807482A00C7
:10385000891008F099FE18204042BBE72A00390081
:10386000024808F091FEF6E7083C0310C43B031041
:10387000F0B5DE4657464E464546E0B5A5B09B46F8
:10388000309B070098461B69914605934346187B79
:103890008A46800108F09CFE04900A9008F070FEB1
:1038A0000021082215A80EF015FB794B0FAC0693EA
:1038B0001493784B14AEE3603200230003CA03C3B1
:1038C000754B3200A3600023404623610CA90AAB6C
:1038D000FEF7CAFB051E1CD0139BA268002B07D065
:1038E0000B93002A00D1D0E02000E3680BA9984791
:1038F00000231393A368002B03D003222100200090
:103900009847280025B0F0BCBB46B246A946A04661
:10391000F0BD2F9B3200996D4423FB5C504602930F
:103920003C23FB5C01932E9B00935B46FFF796FEC6
:10393000051ED1D10C9E0D9F43461B699B6898477D
:10394000002800D09CE008F01BFEFA22801BB94141
:103950002F9B92009864D96400230DF03DFB2F9BB0
:10396000986308F00BFE831C00D18CE043461B7B60
:10397000002B50D04B46DB009B46079300239A4612
:103980002F9B049F99460995BA681068002875DD39
:1039900000230125043202CA01334D438342FAD188
:1039A0003E78032E0AD0092E08D0012E50D00E25C5
:1039B00031003A4808F0E8FD6D428DE743461B7D33
:1039C0001020002B2FD108F003FE01210600280053
:1039D00008F002FE0123337373604B465A46306091
:1039E0009B6DB56079689E50BA690EF079FA079AB6
:1039F0004B46944642469B6D526863445A6001238D
:103A00009C460733E2449C4643461B7B4037E344D5
:103A10005345B9D8099D059B0698DB6898470498DB
:103A200008F0DEFD58E708F0D3FD01210600A800EC
:103A300008F0D2FD0123337373604B465A469B6DE9
:103A40003060B560310038009E50FFF7ABFECEE726
:103A5000102008F0BDFD01210890A80008F0BCFD71
:103A60004B465946089A9B6D1673566095601060D8
:103A70005A507968BA690EF033FAB8E701258FE732
:103A800003256D4272E7050070E72AF0B1FEC046DB
:103A900045100010F90F0010B5190010083C031074
:103AA000F0B5DE46574645464E46E0B5B5B00C93F8
:103AB0003EAB10CB05911B780F92109323690D94A8
:103AC00012930500207B800108F082FD002108226E
:103AD0000E90179025A80EF0FDF9E24B24AA13933F
:103AE0002493E14B22931FAB03CA03C3DF4B200097
:103AF0002193002324AA23931CA917ABFEF7B4FA41
:103B00008246002800D0C7E1382216AB9B181B78EC
:103B1000092B03D0032B01D000F0A5FC08F030FDE9
:103B20000022AB690A901493259B0B910793119285
:103B3000002B01D100F088FC2B6C2898DC68279BB7
:103B40009B460EF0B7F8AB6CC949DF68A368061C4A
:103B5000606906932DF00EF8059B002800D1B8E1AE
:103B60001A690392002A00D1E8E000220892059227
:103B7000524604961E00029715928023039ADB009A
:103B800092469A4200D99A465346069801215843D4
:103B9000800008F021FD0190002800D16EE1059A17
:103BA000B3681A92524618901992002B01D100F076
:103BB00060FC18AB3000F46819AA1AA9A047039B4F
:103BC000002B00D1A6E0089B079C9C46644400257E
:103BD000FF27A146099631E0C321049809060EF09B
:103BE00035F800283CD0029B4046002B00D01BE259
:103BF0000EF060F88621C9050DF0DFFF0EF07CF8AD
:103C00004B46187020000EF055F88621C9050DF0BE
:103C1000D4FF0EF071F84B46587030000EF04AF8A1
:103C20008621C9050DF0C9FF0EF066F84B46987065
:103C300003239C460135E144AA4562D9019AAB00B1
:103C4000D0580EF087F80600030C040A3B40584693
:103C5000884998463C403E400DF0F8FF0028BBD113
:103C600040460EF022F8804620000EF01EF8041C9C
:103C700030000EF01AF8029B061C002B00D0DEE18B
:103C800040467D490DF09FFF7B498046201C0DF08A
:103C90009AFF7949041C301C0DF095FF061C59460B
:103CA00040460DF090FF0EF0A1F8049B011C181C7B
:103CB00098460DF085FF0EF01FF84B4659461870D8
:103CC000201C0DF080FF0EF091F8011C40460DF015
:103CD00077FF0EF011F84B4659465870301C0DF026
:103CE00072FF0EF083F8011C40460DF069FF0EF0E4
:103CF00003F84B46987003239C460135E144AA45DE
:103D00009CD8089A534694465B0053449C446346AF
:103D1000099E08935246039B01989B1A039308F04F
:103D20005FFC8022D2009446059B63441A000593F1
:103D300033699A4200D220E7159B9A4608F01EFC90
:103D4000831C00D115E308F01BFC0A9B0B9CFA2294
:103D5000C01AA1410C9C00232064616492000DF004
:103D60003BF9109B01006063002B00D04BE308F08F
:103D700007FC04000D000D9B1C941D951B699B689E
:103D80009847002800D06AE308F0FAFBFA22001BEB
:103D9000A9410C9C0023A064E16492000DF01CF981
:103DA000A06308F0EBFB831C00D160E30D9B1B7B41
:103DB000002B4ED00F9B0E9DDB001F0001930023B4
:103DC0003A001F00534602930C9B91469A460D9B66
:103DD0009B46AA681068002800DC3EE3002301240B
:103DE000043202CA01334C438342FAD12E78032EA7
:103DF00000D19AE1092E00D197E1012E00D0AEE169
:103E0000102008F0E5FB80460121A00008F0E4FB4B
:103E1000434618601E735E609C6053464A464146A6
:103E20009B6D99506968AA690EF05AF8019A534639
:103E300094465A469B6D526863445A6008239C46D8
:103E40005B461B7B01374035E144BB42C1D8029B36
:103E50009A46129B1398DB6898470E9808F0C0FBAF
:103E600013E0C04645100010F90F0010B5190010FE
:103E7000683903108180803B00007F43C648C749F2
:103E800008F082FB05235B429A46079B002B03D078
:103E9000119B002B00D0B2E2239B219A002B07D06C
:103EA0001B93002A00D1E4E2229B1BA91FA898477C
:103EB00000232393219B002B03D01FA9032208007A
:103EC0009847504635B0F0BCBB46B246A946A0461E
:103ED000F0BD1B690493002B00D12FE75846B04971
:103EE0000DF0B4FE0023002800D071E1994609933B
:103EF0005B4602934B4608935346BB460396159385
:103F00008023049ADB0015009A4200D91D00069810
:103F100001216843800008F05FFB81460028ADD096
:103F2000089B189005981A9383681995002B00D167
:103F30009FE218ABC46819AA1AA9A047049B002BDA
:103F400000D19BE0099A00279446079BFF26634413
:103F5000B846AA46019337E09249281C0DF033FE7B
:103F60009049051C381C0DF02EFE8E49071C201CA4
:103F70000DF029FE041C8C49281C0DF038FE8B49DD
:103F8000051C381C0DF033FE011C281C0DF018FE1A
:103F90008749051C201C0DF02AFE011C281C0DF071
:103FA0000FFE02990DF00FFE0DF020FF011C03988B
:103FB0000DF006FE0DF0A0FE4246019B9854012331
:103FC0009C46E044C24553D943464A469B00D058DC
:103FD0000DF0C0FE0400000C30400DF066FE051C24
:103FE000200A30400DF061FE071C200030400DF02B
:103FF0005CFE5B46041C002BAED0022B51D0042B80
:10400000B9D18621281CC9050DF0D7FD8621051CD4
:10401000C905381C0DF0D1FD8621071CC905201CDF
:104020000DF0CBFD041CA6E70DF03FFE80462000FE
:104030000DF03BFE041C30000DF037FE061C029B09
:10404000022B50D0042B00D029E686214046C9051A
:104050000DF0B3FD86218046C905201C0DF0ADFD95
:104060008621041CC905301C0DF0A7FD061C16E6B0
:10407000099B55469C46D44463460993049B484695
:104080005B1B049308F0ACFA8022D2009446089B94
:1040900063441A000893059B1B699A4200D22FE7DC
:1040A0004AE64049281C0DF08EFD42490DF085FD81
:1040B00041490DF088FD3B49051C381C0DF083FD7E
:1040C0003E490DF07AFD3E490DF07DFD3549071C56
:1040D000201C0DF078FD3B490DF06FFD3A490DF0C5
:1040E00072FD041C47E740462E490DF06CFD314936
:1040F0000DF063FD30490DF066FD2A498046201C15
:104100000DF061FD2D490DF058FD2D490DF05BFDC1
:104110002449041C301C0DF056FD2A490DF04DFDBC
:1041200029490DF050FD061CB9E55B461B7D1020AA
:10413000002B1CD008F04CFA01210600A00008F06A
:104140004BFA01233373736053464A469B6D3060CC
:10415000B460310028009E50FFF724FB66E6310072
:104160001A4808F011FA0E235B429A468DE608F0D1
:104170002FFA01210600200008F02EFA01233373E4
:10418000736053464A4630609B6DB46069689E50C8
:10419000AA690DF0A5FE49E6303C031016FCFFFFAE
:1041A0008180803B00007F438716993EA245163FE1
:1041B000D578E93DEC51F83EFA7E6A3ED578E93E85
:1041C0004260653E3BDFCF3E6666663E083C0310BC
:1041D000994608935346CA4601960297099380234D
:1041E000049ADB0014009A4200D91C0006980121B1
:1041F0006043800008F0F0F9071E00D13EE6534608
:10420000189005981A9383681994002B00D130E117
:1042100018ABC56819AA1AA9A847049B002B00D19E
:1042200091E0089A00259446079BA3466344FF2625
:10423000B9462C0003934DE0029B002B00D1BCE05B
:1042400040460DF032FD804638000DF02EFD071C73
:1042500028000DF02AFD051C029B022B00D18AE0EC
:10426000042B11D186214046C9050DF0A6FC8621FC
:104270008046C905381C0DF0A0FC8621071CC90525
:10428000281C0DF09AFC051C7B49381C0DF0AFFC76
:104290007A49071C40460DF0AAFC011C381C0DF0A1
:1042A0008FFC7749071C281C0DF0A1FC011C381C51
:1042B0000DF086FC73490DF086FC0DF097FD011C96
:1042C00001980DF07DFC0DF017FD039B185501348E
:1042D0005C4531D24A46A300D0580DF03BFDC321C6
:1042E0000500030C070A3340019809069846374039
:1042F00035400DF0ABFC00289ED140460DF0D5FCBA
:10430000804638000DF0D1FC071C28000DF0CDFCD4
:10431000029B051C002B9FD140465B490DF053FCCE
:1043200059498046381C0DF04EFC5749071C281C83
:104330000DF049FC051CA7E7089B4F469C46DC4452
:1043400063465C460893049B38001B1B049308F0EB
:1043500047F98023DB009C46059BE2441B695345DB
:1043600000D93CE7099B9A4608F008F9831C00D065
:10437000E9E4824689E5404643490DF024FC43497F
:104380000DF01BFC42490DF01EFC3F498046381CD5
:104390000DF019FC3F490DF010FC3F490DF013FCE6
:1043A0003949071C281C0DF00EFC3C490DF005FC9A
:1043B0003B490DF008FC051C66E7424639483A4B7C
:1043C00078435343C0182B015B1B1B015B195A0137
:1043D000D31AC01800140DF06DFC8621C9050DF02C
:1043E000ECFB0DF089FC7F2803DD7F20039B185533
:1043F0006DE703008033F9DA80204042F6E7079842
:1044000008F0EEF848E5294808F0BEF8149B002BA8
:1044100016D01D00079B264E9C461C0065440020BC
:10442000289B20560134C01A0DF044FC27990DF04A
:10443000DEFB08F0C1F8300008F0A6F8A542EED186
:104440001C4808F0A1F892E40121149808F0C4F87F
:10445000012307901193FFF76FFB0124C6E40323A8
:104460005B429A46A2E409235B429A4614E58246DF
:104470009CE42AF0BDF9C046A245163F8716993E36
:10448000D578E93D8180803B00007F43EC51F83EC8
:10449000FA7E6A3ED578E93E4260653E3BDFCF3E1C
:1044A0006666663E459600008B4C0000583C031043
:1044B00068520310783D0310F0B54546DE464E467F
:1044C0005746E0B5C54CABB0E36805000E0090461A
:1044D000A34606900E911692002B00D1D2E200293D
:1044E00000D1CFE2002800D1CCE2002168223000C8
:1044F0000DF0F0FC4423E268D45CE400200008F0F6
:1045000067F822000021B06507000DF0E3FC5B4670
:10451000D868836C5C6899685423C25C0E2A2DD8D5
:10452000AF4BD340DB0729D561223C23825CC35CBF
:10453000002A25D1AB4A944222D14A7B002A1FD0BF
:10454000012B1DD1026CA84B92689A4200D07CE2EC
:10455000434600910193290033000022FFF7A0FA9F
:10456000051E00D12DE1380008F03AF828002BB0E4
:10457000F0BCBB46B246A946A046F0BD3C23C35C96
:10458000DC002000139308F023F81290002800D1DB
:104590001DE1220000210DF09DFC139CA31C9B003B
:1045A000180018930DF0A6FC0822844604236244E8
:1045B0009046179003604460002C00D128E2139BC2
:1045C000002140469A000DF085FC07F0D9FF5B46BC
:1045D000DE683C2314901591F35C002B00D1A8E118
:1045E000129BC1469A460023079305937F4B109375
:1045F0007F4B11937F4B0F93434619935346BA4613
:104600001F0036E00F9B1B78002B00D1ADE0059B0F
:104610009E005B465D68AD192868002800D1B7E0B0
:104620000E9903683A6801915946C968896B0091EF
:104630005D6841460B9BA847002800D037E107F092
:104640009DFF831C00D147E1279B002B03D0032251
:104650002100200098475B460421DE683C238C46FD
:10466000059AE14401320592F35C08379A4200D37F
:1046700037E1059A10209446D30063449A0094468B
:10468000336C0D9263441A685E6808929A685D699B
:104690000C92DA680B921A69DB6909920A9307F0A7
:1046A00097FF01210400B00007F096FF0123237358
:1046B00063604B461B68206098464B461C6043462F
:1046C000A660002B09D01868002802D01B7B002BA5
:1046D00074D1404607F084FF2068002800D193E0A1
:1046E000089B3C607B60079B9C465B46B4446246EB
:1046F000DE680792B3699A4200D9CCE0099A069B1A
:1047000025AC0021229220000C222193239524968F
:104710000DF0E0FB0023316A2893069B98468D42FA
:1047200018D018690CF032FC4543002108221EA85D
:1047300029950DF0CFFB21AB1D931BAB1A001DADCE
:1047400003CD03C22200A04603CB03C2109B2793D4
:10475000119B28930A9B002B00D053E74046B36B74
:1047600039680B9A0C9DA84766E72349234807F050
:104770000BFF234807F008FF01230F9A1370059BD6
:104780009E005B465D68AD192868002800D047E7A9
:104790000D991A688C46136C916B6344D868DB6979
:1047A00098475B465B6828609859002800D037E737
:1047B0000B25199B574698466D4282E007F010FF83
:1047C00087E758460E99FEF7EFFE0500CBE6082571
:1047D0000C4807F0D9FE6D42C5E6C0465859002086
:1047E000A44800007138001035110010211A001083
:1047F0007D100010DAD80320003D0310083D03109F
:10480000103D03106C3C0310199BA3489846059972
:1048100007F0BAFE189C5746083C4444250044451E
:1048200000D132E14446A846043D2E68002E09D04E
:104830003068002803D0337B002B00D0B5E0300077
:1048400007F0CEFEA542EFD1434608251798A046B3
:104850001C000DF057FB6D42A04512D02B004546C1
:104860009846043C2668002E08D03068002802D004
:10487000337B002B0CD1300007F0B2FEA542F0D103
:10488000454617980DF03EFB129807F0A9FE6AE620
:1048900007F0A6FEEFE7199B052598467F4807F02D
:1048A00073FE189C5746083C44446D42D4E7199B5C
:1048B000010098467A4B05251800574607F064FE1C
:1048C0006D42279B002B03D0032221002000984734
:1048D000189C083C4444BFE7199B5746984605007E
:1048E000EFE7199A57469046002B22D03C2200242D
:1048F00091461D005F46E000316C02199200891854
:104900000B6A002B10D0196800290DD05B69002BB1
:104910000AD012990958F868006C80189847002846
:1049200000D088E04B46F55C0134AC42E3D3BB4693
:10493000574607F025FE149B159CFA22C01AA14188
:104940000E9C00232064616492000CF045FB169BD2
:1049500001006063002B2BD15B46D8684423C35C05
:1049600000244426002B57D0169BBA4699460E9F2A
:1049700005E05B46D8680134835D9C424BD24946D2
:104980006300826C1B19DB00D218136903919168D4
:1049900001970291117D0091556812992200A84754
:1049A0000028E6D05746050092E707F019FE46E7D3
:1049B0003C4807F0E9FD00239A46139B129D002B0B
:1049C00022D0394B394E99465346BA461F002B68C0
:1049D000002B13D09A680024002A0CD01B68A20078
:1049E000D05807F0E9FD300007F0CEFD2B68013408
:1049F0009A689442F2D3484607F0C6FD139B0137EC
:104A000008359F42E3D35746294807F0BDFDA3E789
:104A100008231893D9E5574607F0B0FD189C050008
:104A2000083C4444831C00D116E758460E99FEF713
:104A3000BBFD050010E70500189C29001D48083C37
:104A40005746444407F0A0FD06E7082007F0C0FDE4
:104A5000031E129000D1BAE61800082200210DF0C2
:104A600039FA0C200DF046FA042384460360033B18
:104A700043600733634498460C2318930B3B17900D
:104A800013939CE516256D4270E5082517980DF0E7
:104A900039FA6D42F5E6C0469C3C0310D43C031045
:104AA000303C0310583C0310783D0310685203104B
:104AB0007C3D0310903D0310F0B5DE464546574659
:104AC0004E46E0B57A48D1B00EF0EEFFFCF772F931
:104AD000051E00D1E4E0774B774A0193F933FF33A9
:104AE0001E000292754A0392754A0492754A059215
:104AF000754A0992754A0792754A0892754A069254
:104B0000754A0092754A9346754A0B92754A0A9205
:104B1000019F01222800524213A912F08DFC0128A6
:104B2000F7D1189B3B60199B7B601A9BBB600C37CD
:104B3000B742EED12A21040002980FF03DF8682216
:104B400000211CA80DF0C6F97E230822002137A8F9
:104B500012930DF0BFF9039B082236A90CA83693D7
:104B60000DF0BEF908220CA90EA80DF0B9F9049BAE
:104B70001CA91093059B00220EA81193FFF79CFC23
:104B8000011E0AD0099807F0FFFC109B002BBFD034
:104B90000EA9032208009847BAE768221CA936A884
:104BA0000DF09EF92B9B2A9A2999079807F0ECFCA7
:104BB000089807F0E9FC069BA0461C0036AF02CC23
:104BC000009807F0E1FCF8680DF0CAF802000B004D
:104BD000584607F0D9FC08373EABBB42EFD11F9BCC
:104BE00044469846219B00219946239B40469A467D
:104BF000259F0DF049F800283CD1002148460DF0D2
:104C000043F8002828D1002150460DF03DF8002837
:104C100018D10021381C0DF037F800280ED00324DD
:104C2000FD21381C89050DF027F8002806D0069BC9
:104C3000A40019590B9807F0A7FCA6E70A9807F0FB
:104C4000A3FCA2E75046391C0DF008F80324002805
:104C5000E6D15746013CE3E7514648460CF0FEFFDB
:104C60000028EFD14846391C0CF0F8FF0028D6D1B7
:104C70004F46D5E7414648460DF006F80028EBD1EF
:104C8000414650460DF000F80028DBD14146381C63
:104C90000CF0FAFF03240028C2D147460024BFE7E6
:104CA00011480EF001FF002013F08CF813E7C04606
:104CB000C43D0310B0320020083E03106110001004
:104CC000FD19001005100010383E03105C3E031063
:104CD000903E03106C210020A03E0310A83E03105C
:104CE000B03E0310B83E0310DC3D0310F0B557464C
:104CF00045464E46DE46E0B5036845689246384A6A
:104D00009946EB1A070088460C0083B0DB109342EB
:104D100063D048460E1AA94543D059008B422ED87D
:104D2000002951D13300524603CA03C300239B46D6
:104D300001930833C14509D05B464A465E4403CA25
:104D400003C3B342FBD1083345453BD04246AD1ABD
:104D50005D1903CC03C39D42FBD14B46002B02D00F
:104D6000484607F03DFC5B463B60019B7D60BB60B5
:104D700003B0F0BCBB46B246A946A046F0BD194BF5
:104D80001800019307F024FC83465246019B5B44C4
:104D90000193831903CA03C35B460833C145CBD1D2
:104DA000D2E7591C0133EAD20B00802149058B421E
:104DB00003D2DB0018000193E4E71300DB001800C6
:104DC0000193DFE71D00C8E780235B05994200D30C
:104DD0001100CB0018000193D4E7034829F0D4FC5C
:104DE000FFFFFF0FF8FFFF7FE03A0310F0B5DE464C
:104DF00057464E464546E0B5AFB01C0038AB06926C
:104E000004CB4F681B788B4699463AAB1B8890467B
:104E100002933BAB1B78099003934368BB4200D0DD
:104E20006FE3039A3D9B56005B68751C2A008168FE
:104E3000002B00D00AE2914200D062E33D9B9B68C8
:104E4000012B00D05DE35846FDF758FA0A90002880
:104E500000D0F3E1012C00D14AE3022C00D188E319
:104E6000BB00012118009A4607F0B6FB0D90002800
:104E700000D153E35B465B689F4201D000F0F6FB34
:104E8000002F3AD05B469B68524698460D9B05958D
:104E90001F005344994643469B00049300239A46BF
:104EA00007920896002143460C1C002B18D05B4645
:104EB000049A1E685346944600249B00F5186644E5
:104EC000F61801CD011C0CF092FE011C201C0CF008
:104ED00077FE041CAE42F4D140460CF0E6FE011C05
:104EE000201C0CF070FE0CF041FF01C7C244B94514
:104EF000D8D1079B059D9A46089E504601217043D4
:104F000007F06AFB061E00D13DE35B465B68002BA1
:104F100000D18DE1029A5308591C19938B000B9311
:104F2000CB0012939300039A1593D3001193089129
:104F300001231091002A00D0D8E29B001693002391
:104F40000493C44B149613935B465A469E68049B85
:104F5000B00043431268D3180F93002B00D1E7E24F
:104F60001C9300231AAA137501331D9300231E9668
:104F70000E9301210B9807F02FFB0590002800D11C
:104F800050E3109B089A934200D033E3129807F045
:104F90001FFB05000822002125A80CF09BFF139B96
:104FA00024AC2493AC4B0822210028A82B930CF0AE
:104FB00097FFAA4B2C952A93002D00D1C6E2012120
:104FC000159807F009FB071E00D1A1E2029B9E4243
:104FD00000D91E00B30098461A000F9938000CF053
:104FE0007FFF4146029B78189A1B002192000CF02B
:104FF00071FF0023002200210298009407F036F987
:10500000061E00D1E3E22A00390007F0F3F9300070
:1050100007F0E6FA380007F0E3FA059B0026994608
:10502000089B984628686B68011C9A460CF0DFFDC7
:105030005146071C50460CF0DAFD011C381C0CF0E0
:10504000BFFD0CF093FE4A46B3000136D050083540
:10505000B045E7D82C9A2A9B002A00D17FE2002590
:105060002492002B00D104E32B9B210028A8984711
:1050700000232C932A9B002B03D028A9032208008D
:105080009847002D00D0B5E202980CF00EFE011CEE
:105090008020C0050CF097FDFE218905071C0CF04F
:1050A000D5FD00280BD1089B00259846059E306849
:1050B000391C0CF09CFD013501C6A845F7D801212B
:1050C000119807F089FA0C90002800D194E2039B14
:1050D000002B00D178E101210B9807F07DFA0790B1
:1050E000002800D143E2FE20069980050CF06BFDFC
:1050F000011C0CF065FD011CFE2080050CF063FD19
:10510000029B071C5B10984600D10AE2012B00D1DC
:10511000FAE15E1E30000CF0C8FD011C381C0CF0DA
:1051200052FDBA4681460025370028000CF0BDFD2F
:1051300049460CF05CFD00210CF042FD079BAE00DF
:1051400001359851AF42F0D11A005746444B4344C1
:105150009B009F50039B01219C469D006544E800F5
:1051600007F03AFA1890002800D1DAE1059B1A6896
:105170009246199A012A00D16EE21F1D002317934F
:105180005B466900934601251A911B932DE07B68CD
:10519000301C191C98460CF077FD00282ED0514683
:1051A000301C0CF00AFD41468246301C0CF005FD17
:1051B000011C50460CF004FD00210CF065FD002898
:1051C0001CD0179B48469E000CF06FFD189A179B49
:1051D000905101331A9A9BB217939A4200D130E250
:1051E0003B689A460437AB453CD03E685146301C7C
:1051F000A94601350CF048FD0028C8D1B246F1E7B8
:105200005346040028001F00149E07F0E9F90A9491
:10521000380007F0E5F9404607F0E2F90C9807F08E
:10522000DFF9059807F0DCF90E9B002B00D0DDE1DB
:10523000300007F0D5F90D9807F0D2F90A982FB091
:10524000F0BCBB46B246A946A046F0BD013B5A1988
:10525000F1E5C046E1C50010F90F0010B5190010C6
:10526000FFFFFF3F1B9B00229B46002328922993B0
:1052700000232A93179B9846002B00D1F2E10023CC
:105280009946189B0027002600259A465246AB00F7
:1052900098580CF05FFD079B80001B582360059B0E
:1052A00019583C9861600CF0EFFC002802D04B4686
:1052B00023606360BE4200D168E13300220003CA6C
:1052C00003C30135EDB21E002993454500DA68E1BC
:1052D000289FF51BEB109946BE4246D018000BF0F4
:1052E00021FE1F22121A0023310038005200FCF761
:1052F000F9FE802D00DC87E13D0080352900380073
:10530000FCF788FD78239846803B9A46B844B2441F
:10531000AE422AD04B461A934346B9461B96179382
:10532000179B1D000833EE681793AB686868311C43
:1053300098460CF093FC002800D180E12B002A0055
:10534000083303CA03C32F00083D6968301C0CF002
:105350009BFC0028F2D143463B60179B7E609A4538
:10536000DED11A9B4F4699461B9E039B4B4513D992
:10537000310000254E46039F2A9B256065608B42C5
:1053800000D11AE10B00220003CA03C3013629939E
:10539000B74200D919E1289F3A0000210C9B039DD8
:1053A00010680131186050680832586008338D4227
:1053B000F6D8002F02D0380007F012F9189807F03D
:1053C0000FF9079807F00CF90B9E0121300007F048
:1053D00003F90127089D20AB8046994620901F7352
:1053E0005F609D60002800D10AE10121300007F0D4
:1053F000F3F82490824627736760A560002800D1E7
:1054000007E1029B220000934946069B1CA8FDF77A
:10541000ADFA002800D000E13D9A01215268561EE5
:10542000B000079207F0D8F844211AAA5218289021
:10543000051E177029962A9700D1F7E0069B2100D8
:10544000009348463D9A28ABFDF7C2F9002800D0EA
:10545000D6E6099A0499936817684B430D9A9B0006
:10546000FF188B00D358039C3B60002C0BD000210D
:105470000C9A3B1D10680131186050680832586062
:1054800008338C42F6D8002E10D07B4B079E9C46EA
:10549000169B66449C460024B60067442859774909
:1054A0000CF091FB38510434A642F7D1280007F0E4
:1054B00097F8504607F094F8404607F091F80C989A
:1054C00007F08EF8059807F08BF80E9B002B09D19A
:1054D0005B46049A5B6801320492934200D933E53B
:1054E000149EA5E60F9807F07BF8F1E72B0024E562
:1054F0004B46424658460699FBF742FF002800D12A
:10550000AEE45F4B0A9399E60023079A136021E605
:105510002C9A2A9B002A46D05A4DA1E5594B0A9352
:105520008CE60798149E07F05BF8554B0A9375E6D6
:10553000012107F051F801231AA90F901C900B7557
:105540001D931E96002876D00E9312E54E4807F064
:105550001BF82C9A002A40D04A4D2A9B80E5002B4C
:1055600000D191E528A90322080098478CE5149EF4
:10557000DBE74B46424658460699FCF785F800287B
:1055800000D16DE4BDE73F4B0A9354E6013531008D
:10559000220028A8EDB2FFF7A9FB299E454500DBB4
:1055A00096E62A9F72E6149E002B03D028A90800D5
:1055B00003329847324B0A9333E6220028A801367B
:1055C000FFF794FBB74200D8E5E62999D4E6380006
:1055D00007F006F82C9A002ABED12A9B149E002BB5
:1055E000E8D028A9032208009847E3E70F9806F0BF
:1055F000F7FF1DE6149EDDE7224B149E0A9310E68A
:10560000204B149E0A9309E631003800FCF702FC97
:10561000ABE61C4B149E0A93FDE55346149E1F00F7
:105620000A90F5E5174B149E0A93FDE55346149E28
:105630001F00144CEBE5134B149E0A93F8E5179FDB
:1056400089E61B9B00229B46002328922993002376
:105650002A931A9B984612E6002300222892299347
:1056600000232A9300230026994681E6044B0A93DF
:10567000E1E529F0BDF8C046FFFFFF3F00002041F3
:1056800014FCFFFF16FCFFFFFC3A0310F8B545467B
:10569000DE4657464E460C00E0B5050000290FD007
:1056A00003684668994683689B1B9B108B420DD309
:1056B0008C0022000021300034190CF00BFC6C60CF
:1056C000F0BCBB46B246A946A046F8BD4B46F31A0D
:1056D0009F109B461C4BDA1B8A4232D37A189246A3
:1056E0008F4227D380227F009205974227D2BB00AA
:1056F0001800984606F06CFF5B460700A200C4182D
:10570000002120000CF0E6FB3B004A46B14503D0E7
:1057100002CA02C3A342FBD14B46002B02D048462B
:1057200006F05EFF53469B00FB182F6047446B60FA
:10573000AF60C5E71700802292059245D7D31F00BE
:10574000D5E7024829F020F8FFFFFF1FCC3E0310E9
:1057500084B070B5289D0591069269682A68079300
:10576000299E04908B1A442B2AD9482B03D94832FE
:10577000914200D06A6072683468131B442B17D9B9
:10578000482B04D9230048339A4200D0736000228A
:105790002E6815AB04AD18681900B050986C043B26
:1057A000A05004328D42F6D170BC08BC04B018473A
:1057B00012219B103000C91AFFF768FF3468E6E732
:1057C00012219B102800C91AFFF760FFD3E7C046DB
:1057D00084B070B52C9D0591069269682A6807937C
:1057E0002D9E04908B1A4C2B2AD9502B03D9503262
:1057F000914200D06A6072683468131B4C2B17D931
:10580000502B04D9230050339A4200D073600022F9
:105810002E6817AB04AD18681900B050186D043B22
:10582000A05004328D42F6D170BC08BC04B01847B9
:1058300014219B103000C91AFFF728FF3468E6E7EF
:1058400014219B102800C91AFFF720FFD3E7C04698
:1058500084B070B5149C0692079362682368059122
:10586000159D0490D11A1C293ED9202903D9203333
:105870009A4200D063606A682B68D11A1C292BD920
:10588000202904D9190020318A4200D06960226899
:105890000B991160139919600A9951601299596016
:1058A00009999160119999600899D1601099D9600E
:1058B000079911610F991961069951610E99596102
:1058C000059991610D9999610499D1610C9ADA61F8
:1058D00070BC08BC04B0184708238910591A280066
:1058E000FFF7D4FE2B68D2E7082389102000591A4D
:1058F000FFF7CCFEBFE7C04684B070B51C9C059195
:1059000006926168226807931D9D04908B1A2C2BC8
:105910004ED9302B03D93032914200D06260696891
:105920002B68CA1A2C2A3BD9302A04D91A003032E3
:10593000914200D06A6022680F9911601B9919602A
:105940000E9951601A9959600D9991601999996051
:105950000C99D1601899D9600B9911611799196147
:105960000A9951611699596109999161159999613D
:105970000899D1611499D961079911621399196233
:105980000699516212995962059991621199996229
:105990000499D162109ADA6270BC08BC04B018474E
:1059A0000C2192102800891AFFF770FE2B68C2E7BD
:1059B0000C219B102000C91AFFF768FEAFE7C04614
:1059C00084B070B5249C05910692616822680793A3
:1059D000259D04908B1A3C2B5ED9402B03D9403275
:1059E000914200D0626069682B68CA1A3C2A4BD980
:1059F000402A04D91A004032914200D06A602268DD
:105A00001399116023991960129951602299596074
:105A100011999160219999601099D1602099D9606C
:105A20000F9911611F9919610E9951611E99596160
:105A30000D9991611D9999610C99D1611C99D96158
:105A40000B9911621B9919620A9951621A9959624C
:105A500009999162199999620899D1621899D96244
:105A60000799116317991963069951631699596338
:105A700005999163159999630499D163149ADA632E
:105A800070BC08BC04B01847102192102800891A75
:105A9000FFF7FCFD2B68B2E710219B102000C91A0C
:105AA000FFF7F4FD9FE7C04684B070B5209C0591D8
:105AB0000692616822680793219D04908B1A342B0B
:105AC00056D9382B03D93832914200D062606968C8
:105AD0002B68CA1A342A43D9382A04D91A00383212
